{
  "_format": "hh-sol-artifact-1",
  "contractName": "CeloERC721",
  "sourceName": "contracts/CeloERC721.sol",
  "abi": [
    {
      "inputs": [
        {
          "internalType": "string",
          "name": "name",
          "type": "string"
        },
        {
          "internalType": "string",
          "name": "symbol",
          "type": "string"
        }
      ],
      "stateMutability": "nonpayable",
      "type": "constructor"
    },
    {
      "anonymous": false,
      "inputs": [
        {
          "indexed": true,
          "internalType": "address",
          "name": "owner",
          "type": "address"
        },
        {
          "indexed": true,
          "internalType": "address",
          "name": "approved",
          "type": "address"
        },
        {
          "indexed": true,
          "internalType": "uint256",
          "name": "tokenId",
          "type": "uint256"
        }
      ],
      "name": "Approval",
      "type": "event"
    },
    {
      "anonymous": false,
      "inputs": [
        {
          "indexed": true,
          "internalType": "address",
          "name": "owner",
          "type": "address"
        },
        {
          "indexed": true,
          "internalType": "address",
          "name": "operator",
          "type": "address"
        },
        {
          "indexed": false,
          "internalType": "bool",
          "name": "approved",
          "type": "bool"
        }
      ],
      "name": "ApprovalForAll",
      "type": "event"
    },
    {
      "anonymous": false,
      "inputs": [
        {
          "indexed": true,
          "internalType": "address",
          "name": "from",
          "type": "address"
        },
        {
          "indexed": true,
          "internalType": "address",
          "name": "to",
          "type": "address"
        },
        {
          "indexed": true,
          "internalType": "uint256",
          "name": "tokenId",
          "type": "uint256"
        }
      ],
      "name": "Transfer",
      "type": "event"
    },
    {
      "inputs": [
        {
          "internalType": "uint256",
          "name": "BidId",
          "type": "uint256"
        }
      ],
      "name": "BidURI",
      "outputs": [
        {
          "internalType": "string",
          "name": "",
          "type": "string"
        }
      ],
      "stateMutability": "view",
      "type": "function"
    },
    {
      "inputs": [],
      "name": "_EventTokenSearchIds",
      "outputs": [
        {
          "internalType": "uint256",
          "name": "",
          "type": "uint256"
        }
      ],
      "stateMutability": "view",
      "type": "function"
    },
    {
      "inputs": [],
      "name": "_GrantEventIds",
      "outputs": [
        {
          "internalType": "uint256",
          "name": "",
          "type": "uint256"
        }
      ],
      "stateMutability": "view",
      "type": "function"
    },
    {
      "inputs": [
        {
          "internalType": "uint256",
          "name": "",
          "type": "uint256"
        }
      ],
      "name": "_GrantEventURIs",
      "outputs": [
        {
          "internalType": "string",
          "name": "",
          "type": "string"
        }
      ],
      "stateMutability": "view",
      "type": "function"
    },
    {
      "inputs": [
        {
          "internalType": "uint256",
          "name": "",
          "type": "uint256"
        }
      ],
      "name": "_JudgerURIs",
      "outputs": [
        {
          "internalType": "string",
          "name": "",
          "type": "string"
        }
      ],
      "stateMutability": "view",
      "type": "function"
    },
    {
      "inputs": [
        {
          "internalType": "uint256",
          "name": "",
          "type": "uint256"
        },
        {
          "internalType": "uint256",
          "name": "",
          "type": "uint256"
        }
      ],
      "name": "_SearchedStore",
      "outputs": [
        {
          "internalType": "string",
          "name": "",
          "type": "string"
        }
      ],
      "stateMutability": "view",
      "type": "function"
    },
    {
      "inputs": [
        {
          "internalType": "uint256",
          "name": "_tokenId",
          "type": "uint256"
        }
      ],
      "name": "_getSearchedTokenURI",
      "outputs": [
        {
          "internalType": "string",
          "name": "",
          "type": "string"
        }
      ],
      "stateMutability": "view",
      "type": "function"
    },
    {
      "inputs": [
        {
          "internalType": "uint256",
          "name": "bidId",
          "type": "uint256"
        },
        {
          "internalType": "string",
          "name": "_bidURI",
          "type": "string"
        }
      ],
      "name": "_setBidURI",
      "outputs": [],
      "stateMutability": "nonpayable",
      "type": "function"
    },
    {
      "inputs": [
        {
          "internalType": "uint256",
          "name": "_eventId",
          "type": "uint256"
        },
        {
          "internalType": "string",
          "name": "_raised",
          "type": "string"
        }
      ],
      "name": "_setEventRaised",
      "outputs": [],
      "stateMutability": "nonpayable",
      "type": "function"
    },
    {
      "inputs": [
        {
          "internalType": "uint256",
          "name": "eventId",
          "type": "uint256"
        },
        {
          "internalType": "string",
          "name": "_eventURI",
          "type": "string"
        }
      ],
      "name": "_setEventURI",
      "outputs": [],
      "stateMutability": "nonpayable",
      "type": "function"
    },
    {
      "inputs": [
        {
          "internalType": "uint256",
          "name": "eventId",
          "type": "uint256"
        },
        {
          "internalType": "string",
          "name": "_eventURI",
          "type": "string"
        }
      ],
      "name": "_setGrantEventURI",
      "outputs": [],
      "stateMutability": "nonpayable",
      "type": "function"
    },
    {
      "inputs": [
        {
          "internalType": "uint256",
          "name": "TokenBidId",
          "type": "uint256"
        },
        {
          "internalType": "uint256",
          "name": "TokenId",
          "type": "uint256"
        },
        {
          "internalType": "string",
          "name": "_BidURI",
          "type": "string"
        }
      ],
      "name": "_setTokenBid",
      "outputs": [],
      "stateMutability": "nonpayable",
      "type": "function"
    },
    {
      "inputs": [
        {
          "internalType": "uint256",
          "name": "EventTokenId",
          "type": "uint256"
        },
        {
          "internalType": "uint256",
          "name": "EventId",
          "type": "uint256"
        },
        {
          "internalType": "string",
          "name": "_tokenURI",
          "type": "string"
        }
      ],
      "name": "_setTokenEvent",
      "outputs": [],
      "stateMutability": "nonpayable",
      "type": "function"
    },
    {
      "inputs": [
        {
          "internalType": "uint256",
          "name": "tokenId",
          "type": "uint256"
        },
        {
          "internalType": "string",
          "name": "_tokenURI",
          "type": "string"
        }
      ],
      "name": "_setTokenURI",
      "outputs": [],
      "stateMutability": "nonpayable",
      "type": "function"
    },
    {
      "inputs": [
        {
          "internalType": "address",
          "name": "to",
          "type": "address"
        },
        {
          "internalType": "uint256",
          "name": "tokenId",
          "type": "uint256"
        }
      ],
      "name": "approve",
      "outputs": [],
      "stateMutability": "nonpayable",
      "type": "function"
    },
    {
      "inputs": [
        {
          "internalType": "address",
          "name": "owner",
          "type": "address"
        }
      ],
      "name": "balanceOf",
      "outputs": [
        {
          "internalType": "uint256",
          "name": "",
          "type": "uint256"
        }
      ],
      "stateMutability": "view",
      "type": "function"
    },
    {
      "inputs": [
        {
          "internalType": "address",
          "name": "_claimer",
          "type": "address"
        },
        {
          "internalType": "string",
          "name": "_tokenURI",
          "type": "string"
        },
        {
          "internalType": "uint256",
          "name": "_eventid",
          "type": "uint256"
        }
      ],
      "name": "claimToken",
      "outputs": [
        {
          "internalType": "uint256",
          "name": "",
          "type": "uint256"
        }
      ],
      "stateMutability": "nonpayable",
      "type": "function"
    },
    {
      "inputs": [
        {
          "internalType": "uint256",
          "name": "_tokenId",
          "type": "uint256"
        },
        {
          "internalType": "string",
          "name": "_bidURI",
          "type": "string"
        },
        {
          "internalType": "string",
          "name": "_updatedURI",
          "type": "string"
        },
        {
          "internalType": "uint256",
          "name": "_eventid",
          "type": "uint256"
        }
      ],
      "name": "createBid",
      "outputs": [],
      "stateMutability": "nonpayable",
      "type": "function"
    },
    {
      "inputs": [
        {
          "internalType": "string",
          "name": "_eventURI",
          "type": "string"
        }
      ],
      "name": "createEvent",
      "outputs": [
        {
          "internalType": "uint256",
          "name": "",
          "type": "uint256"
        }
      ],
      "stateMutability": "nonpayable",
      "type": "function"
    },
    {
      "inputs": [
        {
          "internalType": "string",
          "name": "_eventURI",
          "type": "string"
        }
      ],
      "name": "createGrantEvent",
      "outputs": [
        {
          "internalType": "uint256",
          "name": "",
          "type": "uint256"
        }
      ],
      "stateMutability": "nonpayable",
      "type": "function"
    },
    {
      "inputs": [
        {
          "internalType": "uint256",
          "name": "eventId",
          "type": "uint256"
        }
      ],
      "name": "eventURI",
      "outputs": [
        {
          "internalType": "string",
          "name": "",
          "type": "string"
        }
      ],
      "stateMutability": "view",
      "type": "function"
    },
    {
      "inputs": [
        {
          "internalType": "uint256",
          "name": "tokenId",
          "type": "uint256"
        }
      ],
      "name": "getApproved",
      "outputs": [
        {
          "internalType": "address",
          "name": "",
          "type": "address"
        }
      ],
      "stateMutability": "view",
      "type": "function"
    },
    {
      "inputs": [
        {
          "internalType": "string",
          "name": "_bidURI",
          "type": "string"
        }
      ],
      "name": "getBidIdByUri",
      "outputs": [
        {
          "internalType": "uint256",
          "name": "",
          "type": "uint256"
        }
      ],
      "stateMutability": "view",
      "type": "function"
    },
    {
      "inputs": [
        {
          "internalType": "uint256",
          "name": "TokenID",
          "type": "uint256"
        }
      ],
      "name": "getBidsSearchToken",
      "outputs": [
        {
          "internalType": "string[]",
          "name": "",
          "type": "string[]"
        }
      ],
      "stateMutability": "view",
      "type": "function"
    },
    {
      "inputs": [
        {
          "internalType": "uint256",
          "name": "_eventId",
          "type": "uint256"
        }
      ],
      "name": "getEventRaised",
      "outputs": [
        {
          "internalType": "string",
          "name": "",
          "type": "string"
        }
      ],
      "stateMutability": "view",
      "type": "function"
    },
    {
      "inputs": [
        {
          "internalType": "uint256",
          "name": "EventId",
          "type": "uint256"
        },
        {
          "internalType": "string",
          "name": "_tokenURI",
          "type": "string"
        }
      ],
      "name": "getGetEventsTokenID",
      "outputs": [
        {
          "internalType": "uint256",
          "name": "",
          "type": "uint256"
        }
      ],
      "stateMutability": "view",
      "type": "function"
    },
    {
      "inputs": [
        {
          "internalType": "uint256",
          "name": "TokenID",
          "type": "uint256"
        }
      ],
      "name": "getTotalBid",
      "outputs": [
        {
          "internalType": "string[]",
          "name": "",
          "type": "string[]"
        }
      ],
      "stateMutability": "view",
      "type": "function"
    },
    {
      "inputs": [
        {
          "internalType": "string",
          "name": "_tokenURI",
          "type": "string"
        }
      ],
      "name": "gettokenIdByUri",
      "outputs": [
        {
          "internalType": "uint256",
          "name": "",
          "type": "uint256"
        }
      ],
      "stateMutability": "view",
      "type": "function"
    },
    {
      "inputs": [
        {
          "internalType": "uint256",
          "name": "EventID",
          "type": "uint256"
        }
      ],
      "name": "gettokenSearchEventTotal",
      "outputs": [
        {
          "internalType": "string[]",
          "name": "",
          "type": "string[]"
        }
      ],
      "stateMutability": "view",
      "type": "function"
    },
    {
      "inputs": [
        {
          "internalType": "address",
          "name": "owner",
          "type": "address"
        },
        {
          "internalType": "address",
          "name": "operator",
          "type": "address"
        }
      ],
      "name": "isApprovedForAll",
      "outputs": [
        {
          "internalType": "bool",
          "name": "",
          "type": "bool"
        }
      ],
      "stateMutability": "view",
      "type": "function"
    },
    {
      "inputs": [],
      "name": "name",
      "outputs": [
        {
          "internalType": "string",
          "name": "",
          "type": "string"
        }
      ],
      "stateMutability": "view",
      "type": "function"
    },
    {
      "inputs": [
        {
          "internalType": "uint256",
          "name": "tokenId",
          "type": "uint256"
        }
      ],
      "name": "ownerOf",
      "outputs": [
        {
          "internalType": "address",
          "name": "",
          "type": "address"
        }
      ],
      "stateMutability": "view",
      "type": "function"
    },
    {
      "inputs": [
        {
          "internalType": "address",
          "name": "from",
          "type": "address"
        },
        {
          "internalType": "address",
          "name": "to",
          "type": "address"
        },
        {
          "internalType": "uint256",
          "name": "tokenId",
          "type": "uint256"
        }
      ],
      "name": "safeTransferFrom",
      "outputs": [],
      "stateMutability": "nonpayable",
      "type": "function"
    },
    {
      "inputs": [
        {
          "internalType": "address",
          "name": "from",
          "type": "address"
        },
        {
          "internalType": "address",
          "name": "to",
          "type": "address"
        },
        {
          "internalType": "uint256",
          "name": "tokenId",
          "type": "uint256"
        },
        {
          "internalType": "bytes",
          "name": "_data",
          "type": "bytes"
        }
      ],
      "name": "safeTransferFrom",
      "outputs": [],
      "stateMutability": "nonpayable",
      "type": "function"
    },
    {
      "inputs": [
        {
          "internalType": "address",
          "name": "operator",
          "type": "address"
        },
        {
          "internalType": "bool",
          "name": "approved",
          "type": "bool"
        }
      ],
      "name": "setApprovalForAll",
      "outputs": [],
      "stateMutability": "nonpayable",
      "type": "function"
    },
    {
      "inputs": [
        {
          "internalType": "bytes4",
          "name": "interfaceId",
          "type": "bytes4"
        }
      ],
      "name": "supportsInterface",
      "outputs": [
        {
          "internalType": "bool",
          "name": "",
          "type": "bool"
        }
      ],
      "stateMutability": "view",
      "type": "function"
    },
    {
      "inputs": [],
      "name": "symbol",
      "outputs": [
        {
          "internalType": "string",
          "name": "",
          "type": "string"
        }
      ],
      "stateMutability": "view",
      "type": "function"
    },
    {
      "inputs": [
        {
          "internalType": "uint256",
          "name": "tokenId",
          "type": "uint256"
        }
      ],
      "name": "tokenURI",
      "outputs": [
        {
          "internalType": "string",
          "name": "",
          "type": "string"
        }
      ],
      "stateMutability": "view",
      "type": "function"
    },
    {
      "inputs": [],
      "name": "totalEvent",
      "outputs": [
        {
          "internalType": "uint256",
          "name": "",
          "type": "uint256"
        }
      ],
      "stateMutability": "view",
      "type": "function"
    },
    {
      "inputs": [],
      "name": "totalSupply",
      "outputs": [
        {
          "internalType": "uint256",
          "name": "",
          "type": "uint256"
        }
      ],
      "stateMutability": "view",
      "type": "function"
    },
    {
      "inputs": [
        {
          "internalType": "address",
          "name": "from",
          "type": "address"
        },
        {
          "internalType": "address",
          "name": "to",
          "type": "address"
        },
        {
          "internalType": "uint256",
          "name": "tokenId",
          "type": "uint256"
        }
      ],
      "name": "transferFrom",
      "outputs": [],
      "stateMutability": "nonpayable",
      "type": "function"
    }
  ],
  "bytecode": "0x60806040523480156200001157600080fd5b5060405162004686380380620046868339818101604052810190620000379190620001a3565b818181600090805190602001906200005192919062000075565b5080600190805190602001906200006a92919062000075565b5050505050620003ac565b8280546200008390620002bd565b90600052602060002090601f016020900481019282620000a75760008555620000f3565b82601f10620000c257805160ff1916838001178555620000f3565b82800160010185558215620000f3579182015b82811115620000f2578251825591602001919060010190620000d5565b5b50905062000102919062000106565b5090565b5b808211156200012157600081600090555060010162000107565b5090565b60006200013c620001368462000251565b62000228565b9050828152602081018484840111156200015b576200015a6200038c565b5b6200016884828562000287565b509392505050565b600082601f83011262000188576200018762000387565b5b81516200019a84826020860162000125565b91505092915050565b60008060408385031215620001bd57620001bc62000396565b5b600083015167ffffffffffffffff811115620001de57620001dd62000391565b5b620001ec8582860162000170565b925050602083015167ffffffffffffffff81111562000210576200020f62000391565b5b6200021e8582860162000170565b9150509250929050565b60006200023462000247565b9050620002428282620002f3565b919050565b6000604051905090565b600067ffffffffffffffff8211156200026f576200026e62000358565b5b6200027a826200039b565b9050602081019050919050565b60005b83811015620002a75780820151818401526020810190506200028a565b83811115620002b7576000848401525b50505050565b60006002820490506001821680620002d657607f821691505b60208210811415620002ed57620002ec62000329565b5b50919050565b620002fe826200039b565b810181811067ffffffffffffffff8211171562000320576200031f62000358565b5b80604052505050565b7f4e487b7100000000000000000000000000000000000000000000000000000000600052602260045260246000fd5b7f4e487b7100000000000000000000000000000000000000000000000000000000600052604160045260246000fd5b600080fd5b600080fd5b600080fd5b600080fd5b6000601f19601f8301169050919050565b6142ca80620003bc6000396000f3fe608060405234801561001057600080fd5b50600436106102535760003560e01c80636352211e11610146578063a99bee2e116100c3578063d45fc51611610087578063d45fc516146107a0578063d654e993146107d0578063dfc5e169146107ec578063e08033d31461081c578063e985e9c514610838578063eb1d234d1461086857610253565b8063a99bee2e146106d6578063aed47961146106f4578063b10a5dfa14610724578063b88d4fde14610754578063c87b56dd1461077057610253565b8063932a196b1161010a578063932a196b1461060c57806395d89b411461063c5780639bc2bc711461065a578063a0fd0c6a1461068a578063a22cb465146106ba57610253565b80636352211e1461054257806370a08231146105725780637cedbc1e146105a25780637eadfa6a146105d257806384eb8f68146105f057610253565b806323b872dd116101d4578063446a92e311610198578063446a92e3146104525780634eb083ec146104825780635154380a146104b257806352379627146104e257806353c227cc1461051257610253565b806323b872dd1461039e57806328520ab7146103ba57806335011d90146103ea5780633592dd801461041a57806342842e0e1461043657610253565b80630da3c49c1161021b5780630da3c49c1461030e578063144cbca61461032a5780631677bf081461034857806318160ddd146103645780631cd043d61461038257610253565b8063015388681461025857806301ffc9a71461027457806306fdde03146102a4578063081812fc146102c2578063095ea7b3146102f2575b600080fd5b610272600480360381019061026d9190613113565b610898565b005b61028e60048036038101906102899190613043565b61090c565b60405161029b919061374a565b60405180910390f35b6102ac6109ee565b6040516102b99190613765565b60405180910390f35b6102dc60048036038101906102d791906130e6565b610a80565b6040516102e991906136c1565b60405180910390f35b61030c60048036038101906103079190613003565b610b05565b005b6103286004803603810190610323919061316f565b610c1d565b005b610332610d3d565b60405161033f9190613967565b60405180910390f35b610362600480360381019061035d9190613113565b610d43565b005b61036c610d6f565b6040516103799190613967565b60405180910390f35b61039c60048036038101906103979190613113565b610d79565b005b6103b860048036038101906103b39190612e7e565b610e02565b005b6103d460048036038101906103cf9190613113565b610e62565b6040516103e19190613967565b60405180910390f35b61040460048036038101906103ff9190612f94565b610f3b565b6040516104119190613967565b60405180910390f35b610434600480360381019061042f919061324e565b610f9e565b005b610450600480360381019061044b9190612e7e565b610fe2565b005b61046c600480360381019061046791906130e6565b611002565b6040516104799190613765565b60405180910390f35b61049c600480360381019061049791906130e6565b6110a7565b6040516104a99190613765565b60405180910390f35b6104cc60048036038101906104c791906130e6565b61114c565b6040516104d99190613728565b60405180910390f35b6104fc60048036038101906104f7919061309d565b6112fc565b6040516105099190613967565b60405180910390f35b61052c600480360381019061052791906130e6565b61132c565b6040516105399190613765565b60405180910390f35b61055c600480360381019061055791906130e6565b6113cc565b60405161056991906136c1565b60405180910390f35b61058c60048036038101906105879190612e11565b61147e565b6040516105999190613967565b60405180910390f35b6105bc60048036038101906105b791906130e6565b611536565b6040516105c99190613765565b60405180910390f35b6105da6115ef565b6040516105e79190613967565b60405180910390f35b61060a60048036038101906106059190613113565b6115f9565b005b6106266004803603810190610621919061309d565b611625565b6040516106339190613967565b60405180910390f35b610644611694565b6040516106519190613765565b60405180910390f35b610674600480360381019061066f919061309d565b611726565b6040516106819190613967565b60405180910390f35b6106a4600480360381019061069f91906130e6565b611797565b6040516106b19190613765565b60405180910390f35b6106d460048036038101906106cf9190612f54565b61183c565b005b6106de611852565b6040516106eb9190613967565b60405180910390f35b61070e600480360381019061070991906130e6565b611858565b60405161071b9190613728565b60405180910390f35b61073e6004803603810190610739919061320e565b611a08565b60405161074b9190613765565b60405180910390f35b61076e60048036038101906107699190612ed1565b611ab8565b005b61078a600480360381019061078591906130e6565b611b1a565b6040516107979190613765565b60405180910390f35b6107ba60048036038101906107b5919061309d565b611c07565b6040516107c79190613967565b60405180910390f35b6107ea60048036038101906107e5919061324e565b611c76565b005b610806600480360381019061080191906130e6565b611cba565b6040516108139190613765565b60405180910390f35b61083660048036038101906108319190613113565b611d5a565b005b610852600480360381019061084d9190612e3e565b611d86565b60405161085f919061374a565b60405180910390f35b610882600480360381019061087d91906130e6565b611e1a565b60405161088f9190613728565b60405180910390f35b6108a182611fca565b6108e0576040517f08c379a00000000000000000000000000000000000000000000000000000000081526004016108d7906138e7565b60405180910390fd5b80601460008481526020019081526020016000209080519060200190610907929190612b6e565b505050565b60007f80ac58cd000000000000000000000000000000000000000000000000000000007bffffffffffffffffffffffffffffffffffffffffffffffffffffffff1916827bffffffffffffffffffffffffffffffffffffffffffffffffffffffff191614806109d757507f5b5e139f000000000000000000000000000000000000000000000000000000007bffffffffffffffffffffffffffffffffffffffffffffffffffffffff1916827bffffffffffffffffffffffffffffffffffffffffffffffffffffffff1916145b806109e757506109e682612036565b5b9050919050565b6060600080546109fd90613c1c565b80601f0160208091040260200160405190810160405280929190818152602001828054610a2990613c1c565b8015610a765780601f10610a4b57610100808354040283529160200191610a76565b820191906000526020600020905b815481529060010190602001808311610a5957829003601f168201915b5050505050905090565b6000610a8b82611fca565b610aca576040517f08c379a0000000000000000000000000000000000000000000000000000000008152600401610ac1906138c7565b60405180910390fd5b6004600083815260200190815260200160002060009054906101000a900473ffffffffffffffffffffffffffffffffffffffff169050919050565b6000610b10826113cc565b90508073ffffffffffffffffffffffffffffffffffffffff168373ffffffffffffffffffffffffffffffffffffffff161415610b81576040517f08c379a0000000000000000000000000000000000000000000000000000000008152600401610b7890613927565b60405180910390fd5b8073ffffffffffffffffffffffffffffffffffffffff16610ba06120a0565b73ffffffffffffffffffffffffffffffffffffffff161480610bcf5750610bce81610bc96120a0565b611d86565b5b610c0e576040517f08c379a0000000000000000000000000000000000000000000000000000000008152600401610c0590613847565b60405180910390fd5b610c1883836120a8565b505050565b6000610cc482601460008881526020019081526020016000208054610c4190613c1c565b80601f0160208091040260200160405190810160405280929190818152602001828054610c6d90613c1c565b8015610cba5780601f10610c8f57610100808354040283529160200191610cba565b820191906000526020600020905b815481529060010190602001808311610c9d57829003601f168201915b5050505050610e62565b905082601460008781526020019081526020016000209080519060200190610ced929190612b6e565b50610cf9818385610f9e565b610d06600b548686611c76565b600b6000815480929190610d1990613c7f565b919050555060076000815480929190610d3190613c7f565b91905055505050505050565b600e5481565b80601860008481526020019081526020016000209080519060200190610d6a929190612b6e565b505050565b6000600654905090565b80601560008481526020019081526020016000209080519060200190610da0929190612b6e565b506040518060400160405280600181526020017f3000000000000000000000000000000000000000000000000000000000000000815250601860008481526020019081526020016000209080519060200190610dfd929190612b6e565b505050565b610e13610e0d6120a0565b82612161565b610e52576040517f08c379a0000000000000000000000000000000000000000000000000000000008152600401610e4990613947565b60405180910390fd5b610e5d83838361223f565b505050565b600080600090505b600a54811015610f2f57610e7d846124a6565b80519060200120600f6000838152602001908152602001600020600060028110610eaa57610ea9613d86565b5b01604051610eb891906136aa565b6040518091039020148015610f0e57508280519060200120600f6000838152602001908152602001600020600160028110610ef657610ef5613d86565b5b01604051610f0491906136aa565b6040518091039020145b15610f1c5780915050610f35565b8080610f2790613c7f565b915050610e6a565b50600090505b92915050565b6000610f4984600654612607565b610f5560065484610898565b610f62600a548385610f9e565b60066000815480929190610f7590613c7f565b9190505550600a6000815480929190610f8d90613c7f565b919050555060065490509392505050565b6040518060400160405280610fb2846124a6565b815260200182815250600f6000858152602001908152602001600020906002610fdc929190612bf4565b50505050565b610ffd83838360405180602001604052806000815250611ab8565b505050565b606060136000838152602001908152602001600020805461102290613c1c565b80601f016020809104026020016040519081016040528092919081815260200182805461104e90613c1c565b801561109b5780601f106110705761010080835404028352916020019161109b565b820191906000526020600020905b81548152906001019060200180831161107e57829003601f168201915b50505050509050919050565b60606018600083815260200190815260200160002080546110c790613c1c565b80601f01602080910402602001604051908101604052809291908181526020018280546110f390613c1c565b80156111405780601f1061111557610100808354040283529160200191611140565b820191906000526020600020905b81548152906001019060200180831161112357829003601f168201915b50505050509050919050565b60606000600a67ffffffffffffffff81111561116b5761116a613db5565b5b60405190808252806020026020018201604052801561119e57816020015b60608152602001906001900390816111895790505b5090506000805b600b548110156112f1576111b8856124a6565b80519060200120601160008381526020019081526020016000206000600281106111e5576111e4613d86565b5b016040516111f391906136aa565b604051809103902014156112de576011600082815260200190815260200160002060016002811061122757611226613d86565b5b01805461123390613c1c565b80601f016020809104026020016040519081016040528092919081815260200182805461125f90613c1c565b80156112ac5780601f10611281576101008083540402835291602001916112ac565b820191906000526020600020905b81548152906001019060200180831161128f57829003601f168201915b50505050508383815181106112c4576112c3613d86565b5b602002602001018190525081806112da90613c7f565b9250505b80806112e990613c7f565b9150506111a5565b508192505050919050565b600061130a600954836115f9565b6009600081548092919061131d90613c7f565b91905055506009549050919050565b6017602052806000526040600020600091509050805461134b90613c1c565b80601f016020809104026020016040519081016040528092919081815260200182805461137790613c1c565b80156113c45780601f10611399576101008083540402835291602001916113c4565b820191906000526020600020905b8154815290600101906020018083116113a757829003601f168201915b505050505081565b6000806002600084815260200190815260200160002060009054906101000a900473ffffffffffffffffffffffffffffffffffffffff169050600073ffffffffffffffffffffffffffffffffffffffff168173ffffffffffffffffffffffffffffffffffffffff161415611475576040517f08c379a000000000000000000000000000000000000000000000000000000000815260040161146c90613887565b60405180910390fd5b80915050919050565b60008073ffffffffffffffffffffffffffffffffffffffff168273ffffffffffffffffffffffffffffffffffffffff1614156114ef576040517f08c379a00000000000000000000000000000000000000000000000000000000081526004016114e690613867565b60405180910390fd5b600360008373ffffffffffffffffffffffffffffffffffffffff1673ffffffffffffffffffffffffffffffffffffffff168152602001908152602001600020549050919050565b60606012600083815260200190815260200160002060006002811061155e5761155d613d86565b5b01805461156a90613c1c565b80601f016020809104026020016040519081016040528092919081815260200182805461159690613c1c565b80156115e35780601f106115b8576101008083540402835291602001916115e3565b820191906000526020600020905b8154815290600101906020018083116115c657829003601f168201915b50505050509050919050565b6000600854905090565b80601660008481526020019081526020016000209080519060200190611620929190612b6e565b505050565b600080600090505b6006548110156116895782805190602001206014600083815260200190815260200160002060405161165f91906136aa565b60405180910390201415611676578091505061168f565b808061168190613c7f565b91505061162d565b50600090505b919050565b6060600180546116a390613c1c565b80601f01602080910402602001604051908101604052809291908181526020018280546116cf90613c1c565b801561171c5780601f106116f15761010080835404028352916020019161171c565b820191906000526020600020905b8154815290600101906020018083116116ff57829003601f168201915b5050505050905090565b600061173460085483610d79565b6117756008546040518060400160405280600181526020017f3000000000000000000000000000000000000000000000000000000000000000815250610d43565b6008600081548092919061178890613c7f565b91905055506008549050919050565b60606015600083815260200190815260200160002080546117b790613c1c565b80601f01602080910402602001604051908101604052809291908181526020018280546117e390613c1c565b80156118305780601f1061180557610100808354040283529160200191611830565b820191906000526020600020905b81548152906001019060200180831161181357829003601f168201915b50505050509050919050565b61184e6118476120a0565b83836127e1565b5050565b60095481565b60606000600a67ffffffffffffffff81111561187757611876613db5565b5b6040519080825280602002602001820160405280156118aa57816020015b60608152602001906001900390816118955790505b5090506000805b600b548110156119fd576118c4856124a6565b80519060200120601160008381526020019081526020016000206000600281106118f1576118f0613d86565b5b016040516118ff91906136aa565b604051809103902014156119ea576011600082815260200190815260200160002060016002811061193357611932613d86565b5b01805461193f90613c1c565b80601f016020809104026020016040519081016040528092919081815260200182805461196b90613c1c565b80156119b85780601f1061198d576101008083540402835291602001916119b8565b820191906000526020600020905b81548152906001019060200180831161199b57829003601f168201915b50505050508383815181106119d0576119cf613d86565b5b602002602001018190525081806119e690613c7f565b9250505b80806119f590613c7f565b9150506118b1565b508192505050919050565b60126020528160005260406000208160028110611a2457600080fd5b01600091509150508054611a3790613c1c565b80601f0160208091040260200160405190810160405280929190818152602001828054611a6390613c1c565b8015611ab05780601f10611a8557610100808354040283529160200191611ab0565b820191906000526020600020905b815481529060010190602001808311611a9357829003601f168201915b505050505081565b611ac9611ac36120a0565b83612161565b611b08576040517f08c379a0000000000000000000000000000000000000000000000000000000008152600401611aff90613947565b60405180910390fd5b611b148484848461294e565b50505050565b6060611b2582611fca565b611b64576040517f08c379a0000000000000000000000000000000000000000000000000000000008152600401611b5b90613907565b60405180910390fd5b601460008381526020019081526020016000208054611b8290613c1c565b80601f0160208091040260200160405190810160405280929190818152602001828054611bae90613c1c565b8015611bfb5780601f10611bd057610100808354040283529160200191611bfb565b820191906000526020600020905b815481529060010190602001808311611bde57829003601f168201915b50505050509050919050565b600080600090505b600754811015611c6b57828051906020012060136000838152602001908152602001600020604051611c4191906136aa565b60405180910390201415611c585780915050611c71565b8080611c6390613c7f565b915050611c0f565b50600090505b919050565b6040518060400160405280611c8a846124a6565b81526020018281525060116000858152602001908152602001600020906002611cb4929190612bf4565b50505050565b60166020528060005260406000206000915090508054611cd990613c1c565b80601f0160208091040260200160405190810160405280929190818152602001828054611d0590613c1c565b8015611d525780601f10611d2757610100808354040283529160200191611d52565b820191906000526020600020905b815481529060010190602001808311611d3557829003601f168201915b505050505081565b80601360008481526020019081526020016000209080519060200190611d81929190612b6e565b505050565b6000600560008473ffffffffffffffffffffffffffffffffffffffff1673ffffffffffffffffffffffffffffffffffffffff16815260200190815260200160002060008373ffffffffffffffffffffffffffffffffffffffff1673ffffffffffffffffffffffffffffffffffffffff16815260200190815260200160002060009054906101000a900460ff16905092915050565b60606000600a67ffffffffffffffff811115611e3957611e38613db5565b5b604051908082528060200260200182016040528015611e6c57816020015b6060815260200190600190039081611e575790505b5090506000805b600a54811015611fbf57611e86856124a6565b80519060200120600f6000838152602001908152602001600020600060028110611eb357611eb2613d86565b5b01604051611ec191906136aa565b60405180910390201415611fac57600f6000828152602001908152602001600020600160028110611ef557611ef4613d86565b5b018054611f0190613c1c565b80601f0160208091040260200160405190810160405280929190818152602001828054611f2d90613c1c565b8015611f7a5780601f10611f4f57610100808354040283529160200191611f7a565b820191906000526020600020905b815481529060010190602001808311611f5d57829003601f168201915b5050505050838381518110611f9257611f91613d86565b5b60200260200101819052508180611fa890613c7f565b9250505b8080611fb790613c7f565b915050611e73565b508192505050919050565b60008073ffffffffffffffffffffffffffffffffffffffff166002600084815260200190815260200160002060009054906101000a900473ffffffffffffffffffffffffffffffffffffffff1673ffffffffffffffffffffffffffffffffffffffff1614159050919050565b60007f01ffc9a7000000000000000000000000000000000000000000000000000000007bffffffffffffffffffffffffffffffffffffffffffffffffffffffff1916827bffffffffffffffffffffffffffffffffffffffffffffffffffffffff1916149050919050565b600033905090565b816004600083815260200190815260200160002060006101000a81548173ffffffffffffffffffffffffffffffffffffffff021916908373ffffffffffffffffffffffffffffffffffffffff160217905550808273ffffffffffffffffffffffffffffffffffffffff1661211b836113cc565b73ffffffffffffffffffffffffffffffffffffffff167f8c5be1e5ebec7d5bd14f71427d1e84f3dd0314c0f7b2291e5b200ac8c7c3b92560405160405180910390a45050565b600061216c82611fca565b6121ab576040517f08c379a00000000000000000000000000000000000000000000000000000000081526004016121a290613827565b60405180910390fd5b60006121b6836113cc565b90508073ffffffffffffffffffffffffffffffffffffffff168473ffffffffffffffffffffffffffffffffffffffff1614806121f857506121f78185611d86565b5b8061223657508373ffffffffffffffffffffffffffffffffffffffff1661221e84610a80565b73ffffffffffffffffffffffffffffffffffffffff16145b91505092915050565b8273ffffffffffffffffffffffffffffffffffffffff1661225f826113cc565b73ffffffffffffffffffffffffffffffffffffffff16146122b5576040517f08c379a00000000000000000000000000000000000000000000000000000000081526004016122ac906137a7565b60405180910390fd5b600073ffffffffffffffffffffffffffffffffffffffff168273ffffffffffffffffffffffffffffffffffffffff161415612325576040517f08c379a000000000000000000000000000000000000000000000000000000000815260040161231c906137e7565b60405180910390fd5b6123308383836129aa565b61233b6000826120a8565b6001600360008573ffffffffffffffffffffffffffffffffffffffff1673ffffffffffffffffffffffffffffffffffffffff168152602001908152602001600020600082825461238b9190613b32565b925050819055506001600360008473ffffffffffffffffffffffffffffffffffffffff1673ffffffffffffffffffffffffffffffffffffffff16815260200190815260200160002060008282546123e29190613aab565b92505081905550816002600083815260200190815260200160002060006101000a81548173ffffffffffffffffffffffffffffffffffffffff021916908373ffffffffffffffffffffffffffffffffffffffff160217905550808273ffffffffffffffffffffffffffffffffffffffff168473ffffffffffffffffffffffffffffffffffffffff167fddf252ad1be2c89b69c2b068fc378daa952ba7f163c4a11628f55a4df523b3ef60405160405180910390a46124a18383836129af565b505050565b606060008214156124ee576040518060400160405280600181526020017f30000000000000000000000000000000000000000000000000000000000000008152509050612602565b600082905060005b6000821461252057808061250990613c7f565b915050600a826125199190613b01565b91506124f6565b60008167ffffffffffffffff81111561253c5761253b613db5565b5b6040519080825280601f01601f19166020018201604052801561256e5781602001600182028036833780820191505090505b5090505b600085146125fb576001826125879190613b32565b9150600a856125969190613cc8565b60306125a29190613aab565b60f81b8183815181106125b8576125b7613d86565b5b60200101907effffffffffffffffffffffffffffffffffffffffffffffffffffffffffffff1916908160001a905350600a856125f49190613b01565b9450612572565b8093505050505b919050565b600073ffffffffffffffffffffffffffffffffffffffff168273ffffffffffffffffffffffffffffffffffffffff161415612677576040517f08c379a000000000000000000000000000000000000000000000000000000000815260040161266e906138a7565b60405180910390fd5b61268081611fca565b156126c0576040517f08c379a00000000000000000000000000000000000000000000000000000000081526004016126b7906137c7565b60405180910390fd5b6126cc600083836129aa565b6001600360008473ffffffffffffffffffffffffffffffffffffffff1673ffffffffffffffffffffffffffffffffffffffff168152602001908152602001600020600082825461271c9190613aab565b92505081905550816002600083815260200190815260200160002060006101000a81548173ffffffffffffffffffffffffffffffffffffffff021916908373ffffffffffffffffffffffffffffffffffffffff160217905550808273ffffffffffffffffffffffffffffffffffffffff16600073ffffffffffffffffffffffffffffffffffffffff167fddf252ad1be2c89b69c2b068fc378daa952ba7f163c4a11628f55a4df523b3ef60405160405180910390a46127dd600083836129af565b5050565b8173ffffffffffffffffffffffffffffffffffffffff168373ffffffffffffffffffffffffffffffffffffffff161415612850576040517f08c379a000000000000000000000000000000000000000000000000000000000815260040161284790613807565b60405180910390fd5b80600560008573ffffffffffffffffffffffffffffffffffffffff1673ffffffffffffffffffffffffffffffffffffffff16815260200190815260200160002060008473ffffffffffffffffffffffffffffffffffffffff1673ffffffffffffffffffffffffffffffffffffffff16815260200190815260200160002060006101000a81548160ff0219169083151502179055508173ffffffffffffffffffffffffffffffffffffffff168373ffffffffffffffffffffffffffffffffffffffff167f17307eab39ab6107e8899845ad3d59bd9653f200f220920489ca2b5937696c3183604051612941919061374a565b60405180910390a3505050565b61295984848461223f565b612965848484846129b4565b6129a4576040517f08c379a000000000000000000000000000000000000000000000000000000000815260040161299b90613787565b60405180910390fd5b50505050565b505050565b505050565b60006129d58473ffffffffffffffffffffffffffffffffffffffff16612b4b565b15612b3e578373ffffffffffffffffffffffffffffffffffffffff1663150b7a026129fe6120a0565b8786866040518563ffffffff1660e01b8152600401612a2094939291906136dc565b602060405180830381600087803b158015612a3a57600080fd5b505af1925050508015612a6b57506040513d601f19601f82011682018060405250810190612a689190613070565b60015b612aee573d8060008114612a9b576040519150601f19603f3d011682016040523d82523d6000602084013e612aa0565b606091505b50600081511415612ae6576040517f08c379a0000000000000000000000000000000000000000000000000000000008152600401612add90613787565b60405180910390fd5b805181602001fd5b63150b7a0260e01b7bffffffffffffffffffffffffffffffffffffffffffffffffffffffff1916817bffffffffffffffffffffffffffffffffffffffffffffffffffffffff191614915050612b43565b600190505b949350505050565b6000808273ffffffffffffffffffffffffffffffffffffffff163b119050919050565b828054612b7a90613c1c565b90600052602060002090601f016020900481019282612b9c5760008555612be3565b82601f10612bb557805160ff1916838001178555612be3565b82800160010185558215612be3579182015b82811115612be2578251825591602001919060010190612bc7565b5b509050612bf09190612c47565b5090565b8260028101928215612c36579160200282015b82811115612c35578251829080519060200190612c25929190612b6e565b5091602001919060010190612c07565b5b509050612c439190612c64565b5090565b5b80821115612c60576000816000905550600101612c48565b5090565b5b80821115612c845760008181612c7b9190612c88565b50600101612c65565b5090565b508054612c9490613c1c565b6000825580601f10612ca65750612cc5565b601f016020900490600052602060002090810190612cc49190612c47565b5b50565b6000612cdb612cd6846139a7565b613982565b905082815260208101848484011115612cf757612cf6613de9565b5b612d02848285613bda565b509392505050565b6000612d1d612d18846139d8565b613982565b905082815260208101848484011115612d3957612d38613de9565b5b612d44848285613bda565b509392505050565b600081359050612d5b81614238565b92915050565b600081359050612d708161424f565b92915050565b600081359050612d8581614266565b92915050565b600081519050612d9a81614266565b92915050565b600082601f830112612db557612db4613de4565b5b8135612dc5848260208601612cc8565b91505092915050565b600082601f830112612de357612de2613de4565b5b8135612df3848260208601612d0a565b91505092915050565b600081359050612e0b8161427d565b92915050565b600060208284031215612e2757612e26613df3565b5b6000612e3584828501612d4c565b91505092915050565b60008060408385031215612e5557612e54613df3565b5b6000612e6385828601612d4c565b9250506020612e7485828601612d4c565b9150509250929050565b600080600060608486031215612e9757612e96613df3565b5b6000612ea586828701612d4c565b9350506020612eb686828701612d4c565b9250506040612ec786828701612dfc565b9150509250925092565b60008060008060808587031215612eeb57612eea613df3565b5b6000612ef987828801612d4c565b9450506020612f0a87828801612d4c565b9350506040612f1b87828801612dfc565b925050606085013567ffffffffffffffff811115612f3c57612f3b613dee565b5b612f4887828801612da0565b91505092959194509250565b60008060408385031215612f6b57612f6a613df3565b5b6000612f7985828601612d4c565b9250506020612f8a85828601612d61565b9150509250929050565b600080600060608486031215612fad57612fac613df3565b5b6000612fbb86828701612d4c565b935050602084013567ffffffffffffffff811115612fdc57612fdb613dee565b5b612fe886828701612dce565b9250506040612ff986828701612dfc565b9150509250925092565b6000806040838503121561301a57613019613df3565b5b600061302885828601612d4c565b925050602061303985828601612dfc565b9150509250929050565b60006020828403121561305957613058613df3565b5b600061306784828501612d76565b91505092915050565b60006020828403121561308657613085613df3565b5b600061309484828501612d8b565b91505092915050565b6000602082840312156130b3576130b2613df3565b5b600082013567ffffffffffffffff8111156130d1576130d0613dee565b5b6130dd84828501612dce565b91505092915050565b6000602082840312156130fc576130fb613df3565b5b600061310a84828501612dfc565b91505092915050565b6000806040838503121561312a57613129613df3565b5b600061313885828601612dfc565b925050602083013567ffffffffffffffff81111561315957613158613dee565b5b61316585828601612dce565b9150509250929050565b6000806000806080858703121561318957613188613df3565b5b600061319787828801612dfc565b945050602085013567ffffffffffffffff8111156131b8576131b7613dee565b5b6131c487828801612dce565b935050604085013567ffffffffffffffff8111156131e5576131e4613dee565b5b6131f187828801612dce565b925050606061320287828801612dfc565b91505092959194509250565b6000806040838503121561322557613224613df3565b5b600061323385828601612dfc565b925050602061324485828601612dfc565b9150509250929050565b60008060006060848603121561326757613266613df3565b5b600061327586828701612dfc565b935050602061328686828701612dfc565b925050604084013567ffffffffffffffff8111156132a7576132a6613dee565b5b6132b386828701612dce565b9150509250925092565b60006132c9838361341c565b905092915050565b6132da81613b66565b82525050565b60006132eb82613a2e565b6132f58185613a5c565b93508360208202850161330785613a09565b8060005b85811015613343578484038952815161332485826132bd565b945061332f83613a4f565b925060208a0199505060018101905061330b565b50829750879550505050505092915050565b61335e81613b78565b82525050565b600061336f82613a39565b6133798185613a6d565b9350613389818560208601613be9565b61339281613df8565b840191505092915050565b600081546133aa81613c1c565b6133b48186613a7e565b945060018216600081146133cf57600181146133e057613413565b60ff19831686528186019350613413565b6133e985613a19565b60005b8381101561340b578154818901526001820191506020810190506133ec565b838801955050505b50505092915050565b600061342782613a44565b6134318185613a89565b9350613441818560208601613be9565b61344a81613df8565b840191505092915050565b600061346082613a44565b61346a8185613a9a565b935061347a818560208601613be9565b61348381613df8565b840191505092915050565b600061349b603283613a9a565b91506134a682613e09565b604082019050919050565b60006134be602583613a9a565b91506134c982613e58565b604082019050919050565b60006134e1601c83613a9a565b91506134ec82613ea7565b602082019050919050565b6000613504602483613a9a565b915061350f82613ed0565b604082019050919050565b6000613527601983613a9a565b915061353282613f1f565b602082019050919050565b600061354a602c83613a9a565b915061355582613f48565b604082019050919050565b600061356d603883613a9a565b915061357882613f97565b604082019050919050565b6000613590602a83613a9a565b915061359b82613fe6565b604082019050919050565b60006135b3602983613a9a565b91506135be82614035565b604082019050919050565b60006135d6602083613a9a565b91506135e182614084565b602082019050919050565b60006135f9602c83613a9a565b9150613604826140ad565b604082019050919050565b600061361c602c83613a9a565b9150613627826140fc565b604082019050919050565b600061363f602f83613a9a565b915061364a8261414b565b604082019050919050565b6000613662602183613a9a565b915061366d8261419a565b604082019050919050565b6000613685603183613a9a565b9150613690826141e9565b604082019050919050565b6136a481613bd0565b82525050565b60006136b6828461339d565b915081905092915050565b60006020820190506136d660008301846132d1565b92915050565b60006080820190506136f160008301876132d1565b6136fe60208301866132d1565b61370b604083018561369b565b818103606083015261371d8184613364565b905095945050505050565b6000602082019050818103600083015261374281846132e0565b905092915050565b600060208201905061375f6000830184613355565b92915050565b6000602082019050818103600083015261377f8184613455565b905092915050565b600060208201905081810360008301526137a08161348e565b9050919050565b600060208201905081810360008301526137c0816134b1565b9050919050565b600060208201905081810360008301526137e0816134d4565b9050919050565b60006020820190508181036000830152613800816134f7565b9050919050565b600060208201905081810360008301526138208161351a565b9050919050565b600060208201905081810360008301526138408161353d565b9050919050565b6000602082019050818103600083015261386081613560565b9050919050565b6000602082019050818103600083015261388081613583565b9050919050565b600060208201905081810360008301526138a0816135a6565b9050919050565b600060208201905081810360008301526138c0816135c9565b9050919050565b600060208201905081810360008301526138e0816135ec565b9050919050565b600060208201905081810360008301526139008161360f565b9050919050565b6000602082019050818103600083015261392081613632565b9050919050565b6000602082019050818103600083015261394081613655565b9050919050565b6000602082019050818103600083015261396081613678565b9050919050565b600060208201905061397c600083018461369b565b92915050565b600061398c61399d565b90506139988282613c4e565b919050565b6000604051905090565b600067ffffffffffffffff8211156139c2576139c1613db5565b5b6139cb82613df8565b9050602081019050919050565b600067ffffffffffffffff8211156139f3576139f2613db5565b5b6139fc82613df8565b9050602081019050919050565b6000819050602082019050919050565b60008190508160005260206000209050919050565b600081519050919050565b600081519050919050565b600081519050919050565b6000602082019050919050565b600082825260208201905092915050565b600082825260208201905092915050565b600081905092915050565b600082825260208201905092915050565b600082825260208201905092915050565b6000613ab682613bd0565b9150613ac183613bd0565b9250827fffffffffffffffffffffffffffffffffffffffffffffffffffffffffffffffff03821115613af657613af5613cf9565b5b828201905092915050565b6000613b0c82613bd0565b9150613b1783613bd0565b925082613b2757613b26613d28565b5b828204905092915050565b6000613b3d82613bd0565b9150613b4883613bd0565b925082821015613b5b57613b5a613cf9565b5b828203905092915050565b6000613b7182613bb0565b9050919050565b60008115159050919050565b60007fffffffff0000000000000000000000000000000000000000000000000000000082169050919050565b600073ffffffffffffffffffffffffffffffffffffffff82169050919050565b6000819050919050565b82818337600083830152505050565b60005b83811015613c07578082015181840152602081019050613bec565b83811115613c16576000848401525b50505050565b60006002820490506001821680613c3457607f821691505b60208210811415613c4857613c47613d57565b5b50919050565b613c5782613df8565b810181811067ffffffffffffffff82111715613c7657613c75613db5565b5b80604052505050565b6000613c8a82613bd0565b91507fffffffffffffffffffffffffffffffffffffffffffffffffffffffffffffffff821415613cbd57613cbc613cf9565b5b600182019050919050565b6000613cd382613bd0565b9150613cde83613bd0565b925082613cee57613ced613d28565b5b828206905092915050565b7f4e487b7100000000000000000000000000000000000000000000000000000000600052601160045260246000fd5b7f4e487b7100000000000000000000000000000000000000000000000000000000600052601260045260246000fd5b7f4e487b7100000000000000000000000000000000000000000000000000000000600052602260045260246000fd5b7f4e487b7100000000000000000000000000000000000000000000000000000000600052603260045260246000fd5b7f4e487b7100000000000000000000000000000000000000000000000000000000600052604160045260246000fd5b600080fd5b600080fd5b600080fd5b600080fd5b6000601f19601f8301169050919050565b7f4552433732313a207472616e7366657220746f206e6f6e20455243373231526560008201527f63656976657220696d706c656d656e7465720000000000000000000000000000602082015250565b7f4552433732313a207472616e736665722066726f6d20696e636f72726563742060008201527f6f776e6572000000000000000000000000000000000000000000000000000000602082015250565b7f4552433732313a20746f6b656e20616c7265616479206d696e74656400000000600082015250565b7f4552433732313a207472616e7366657220746f20746865207a65726f2061646460008201527f7265737300000000000000000000000000000000000000000000000000000000602082015250565b7f4552433732313a20617070726f766520746f2063616c6c657200000000000000600082015250565b7f4552433732313a206f70657261746f7220717565727920666f72206e6f6e657860008201527f697374656e7420746f6b656e0000000000000000000000000000000000000000602082015250565b7f4552433732313a20617070726f76652063616c6c6572206973206e6f74206f7760008201527f6e6572206e6f7220617070726f76656420666f7220616c6c0000000000000000602082015250565b7f4552433732313a2062616c616e636520717565727920666f7220746865207a6560008201527f726f206164647265737300000000000000000000000000000000000000000000602082015250565b7f4552433732313a206f776e657220717565727920666f72206e6f6e657869737460008201527f656e7420746f6b656e0000000000000000000000000000000000000000000000602082015250565b7f4552433732313a206d696e7420746f20746865207a65726f2061646472657373600082015250565b7f4552433732313a20617070726f76656420717565727920666f72206e6f6e657860008201527f697374656e7420746f6b656e0000000000000000000000000000000000000000602082015250565b7f4552433732314d657461646174613a2055524920736574206f66206e6f6e657860008201527f697374656e7420746f6b656e0000000000000000000000000000000000000000602082015250565b7f4552433732314d657461646174613a2055524920717565727920666f72206e6f60008201527f6e6578697374656e7420746f6b656e0000000000000000000000000000000000602082015250565b7f4552433732313a20617070726f76616c20746f2063757272656e74206f776e6560008201527f7200000000000000000000000000000000000000000000000000000000000000602082015250565b7f4552433732313a207472616e736665722063616c6c6572206973206e6f74206f60008201527f776e6572206e6f7220617070726f766564000000000000000000000000000000602082015250565b61424181613b66565b811461424c57600080fd5b50565b61425881613b78565b811461426357600080fd5b50565b61426f81613b84565b811461427a57600080fd5b50565b61428681613bd0565b811461429157600080fd5b5056fea264697066735822122015703c92b80b9f23c2428a642a5863bc60d6583c5fda2e6d4fc53ea26a2c574e64736f6c63430008060033",
  "linkReferences": {},
  "deployedLinkReferences": {}
}