{
  "_format": "hh-sol-artifact-1",
  "contractName": "CeloERC721",
  "sourceName": "contracts/CeloERC721.sol",
  "abi": [
    {
      "inputs": [
        {
          "internalType": "string",
          "name": "name",
          "type": "string"
        },
        {
          "internalType": "string",
          "name": "symbol",
          "type": "string"
        }
      ],
      "stateMutability": "nonpayable",
      "type": "constructor"
    },
    {
      "anonymous": false,
      "inputs": [
        {
          "indexed": true,
          "internalType": "address",
          "name": "owner",
          "type": "address"
        },
        {
          "indexed": true,
          "internalType": "address",
          "name": "approved",
          "type": "address"
        },
        {
          "indexed": true,
          "internalType": "uint256",
          "name": "tokenId",
          "type": "uint256"
        }
      ],
      "name": "Approval",
      "type": "event"
    },
    {
      "anonymous": false,
      "inputs": [
        {
          "indexed": true,
          "internalType": "address",
          "name": "owner",
          "type": "address"
        },
        {
          "indexed": true,
          "internalType": "address",
          "name": "operator",
          "type": "address"
        },
        {
          "indexed": false,
          "internalType": "bool",
          "name": "approved",
          "type": "bool"
        }
      ],
      "name": "ApprovalForAll",
      "type": "event"
    },
    {
      "anonymous": false,
      "inputs": [
        {
          "indexed": true,
          "internalType": "address",
          "name": "from",
          "type": "address"
        },
        {
          "indexed": true,
          "internalType": "address",
          "name": "to",
          "type": "address"
        },
        {
          "indexed": true,
          "internalType": "uint256",
          "name": "tokenId",
          "type": "uint256"
        }
      ],
      "name": "Transfer",
      "type": "event"
    },
    {
      "inputs": [
        {
          "internalType": "uint256",
          "name": "BidId",
          "type": "uint256"
        }
      ],
      "name": "BidURI",
      "outputs": [
        {
          "internalType": "string",
          "name": "",
          "type": "string"
        }
      ],
      "stateMutability": "view",
      "type": "function"
    },
    {
      "inputs": [
        {
          "internalType": "uint256",
          "name": "ProjectId",
          "type": "uint256"
        },
        {
          "internalType": "uint256",
          "name": "GranttId",
          "type": "uint256"
        }
      ],
      "name": "CreateGrantProject",
      "outputs": [
        {
          "internalType": "uint256",
          "name": "",
          "type": "uint256"
        }
      ],
      "stateMutability": "nonpayable",
      "type": "function"
    },
    {
      "inputs": [],
      "name": "_EventTokenSearchIds",
      "outputs": [
        {
          "internalType": "uint256",
          "name": "",
          "type": "uint256"
        }
      ],
      "stateMutability": "view",
      "type": "function"
    },
    {
      "inputs": [],
      "name": "_GrantEventIds",
      "outputs": [
        {
          "internalType": "uint256",
          "name": "",
          "type": "uint256"
        }
      ],
      "stateMutability": "view",
      "type": "function"
    },
    {
      "inputs": [
        {
          "internalType": "uint256",
          "name": "",
          "type": "uint256"
        }
      ],
      "name": "_GrantEventURIs",
      "outputs": [
        {
          "internalType": "string",
          "name": "",
          "type": "string"
        }
      ],
      "stateMutability": "view",
      "type": "function"
    },
    {
      "inputs": [],
      "name": "_GrantProjectIds",
      "outputs": [
        {
          "internalType": "uint256",
          "name": "",
          "type": "uint256"
        }
      ],
      "stateMutability": "view",
      "type": "function"
    },
    {
      "inputs": [],
      "name": "_GrantVoteIds",
      "outputs": [
        {
          "internalType": "uint256",
          "name": "",
          "type": "uint256"
        }
      ],
      "stateMutability": "view",
      "type": "function"
    },
    {
      "inputs": [
        {
          "internalType": "uint256",
          "name": "",
          "type": "uint256"
        }
      ],
      "name": "_JudgerURIs",
      "outputs": [
        {
          "internalType": "string",
          "name": "",
          "type": "string"
        }
      ],
      "stateMutability": "view",
      "type": "function"
    },
    {
      "inputs": [
        {
          "internalType": "uint256",
          "name": "",
          "type": "uint256"
        },
        {
          "internalType": "uint256",
          "name": "",
          "type": "uint256"
        }
      ],
      "name": "_SearchedStore",
      "outputs": [
        {
          "internalType": "string",
          "name": "",
          "type": "string"
        }
      ],
      "stateMutability": "view",
      "type": "function"
    },
    {
      "inputs": [
        {
          "internalType": "uint256",
          "name": "_tokenId",
          "type": "uint256"
        }
      ],
      "name": "_getSearchedTokenURI",
      "outputs": [
        {
          "internalType": "string",
          "name": "",
          "type": "string"
        }
      ],
      "stateMutability": "view",
      "type": "function"
    },
    {
      "inputs": [
        {
          "internalType": "uint256",
          "name": "bidId",
          "type": "uint256"
        },
        {
          "internalType": "string",
          "name": "_bidURI",
          "type": "string"
        }
      ],
      "name": "_setBidURI",
      "outputs": [],
      "stateMutability": "nonpayable",
      "type": "function"
    },
    {
      "inputs": [
        {
          "internalType": "uint256",
          "name": "_eventId",
          "type": "uint256"
        },
        {
          "internalType": "string",
          "name": "_raised",
          "type": "string"
        }
      ],
      "name": "_setEventRaised",
      "outputs": [],
      "stateMutability": "nonpayable",
      "type": "function"
    },
    {
      "inputs": [
        {
          "internalType": "uint256",
          "name": "eventId",
          "type": "uint256"
        },
        {
          "internalType": "string",
          "name": "_eventWallet",
          "type": "string"
        },
        {
          "internalType": "string",
          "name": "_eventURI",
          "type": "string"
        }
      ],
      "name": "_setEventURI",
      "outputs": [],
      "stateMutability": "nonpayable",
      "type": "function"
    },
    {
      "inputs": [
        {
          "internalType": "uint256",
          "name": "eventId",
          "type": "uint256"
        },
        {
          "internalType": "string",
          "name": "_eventURI",
          "type": "string"
        }
      ],
      "name": "_setGrantEventURI",
      "outputs": [],
      "stateMutability": "nonpayable",
      "type": "function"
    },
    {
      "inputs": [
        {
          "internalType": "uint256",
          "name": "TokenBidId",
          "type": "uint256"
        },
        {
          "internalType": "uint256",
          "name": "TokenId",
          "type": "uint256"
        },
        {
          "internalType": "string",
          "name": "_BidURI",
          "type": "string"
        }
      ],
      "name": "_setTokenBid",
      "outputs": [],
      "stateMutability": "nonpayable",
      "type": "function"
    },
    {
      "inputs": [
        {
          "internalType": "uint256",
          "name": "EventTokenId",
          "type": "uint256"
        },
        {
          "internalType": "uint256",
          "name": "EventId",
          "type": "uint256"
        },
        {
          "internalType": "string",
          "name": "_tokenURI",
          "type": "string"
        }
      ],
      "name": "_setTokenEvent",
      "outputs": [],
      "stateMutability": "nonpayable",
      "type": "function"
    },
    {
      "inputs": [
        {
          "internalType": "uint256",
          "name": "tokenId",
          "type": "uint256"
        },
        {
          "internalType": "string",
          "name": "_tokenURI",
          "type": "string"
        }
      ],
      "name": "_setTokenURI",
      "outputs": [],
      "stateMutability": "nonpayable",
      "type": "function"
    },
    {
      "inputs": [
        {
          "internalType": "address",
          "name": "to",
          "type": "address"
        },
        {
          "internalType": "uint256",
          "name": "tokenId",
          "type": "uint256"
        }
      ],
      "name": "approve",
      "outputs": [],
      "stateMutability": "nonpayable",
      "type": "function"
    },
    {
      "inputs": [
        {
          "internalType": "address",
          "name": "owner",
          "type": "address"
        }
      ],
      "name": "balanceOf",
      "outputs": [
        {
          "internalType": "uint256",
          "name": "",
          "type": "uint256"
        }
      ],
      "stateMutability": "view",
      "type": "function"
    },
    {
      "inputs": [
        {
          "internalType": "address",
          "name": "_claimer",
          "type": "address"
        },
        {
          "internalType": "string",
          "name": "_tokenURI",
          "type": "string"
        },
        {
          "internalType": "uint256",
          "name": "_eventid",
          "type": "uint256"
        }
      ],
      "name": "claimToken",
      "outputs": [
        {
          "internalType": "uint256",
          "name": "",
          "type": "uint256"
        }
      ],
      "stateMutability": "nonpayable",
      "type": "function"
    },
    {
      "inputs": [
        {
          "internalType": "uint256",
          "name": "_tokenId",
          "type": "uint256"
        },
        {
          "internalType": "string",
          "name": "_bidURI",
          "type": "string"
        },
        {
          "internalType": "string",
          "name": "_updatedURI",
          "type": "string"
        },
        {
          "internalType": "uint256",
          "name": "_eventid",
          "type": "uint256"
        }
      ],
      "name": "createBid",
      "outputs": [],
      "stateMutability": "nonpayable",
      "type": "function"
    },
    {
      "inputs": [
        {
          "internalType": "string",
          "name": "_eventWallet",
          "type": "string"
        },
        {
          "internalType": "string",
          "name": "_eventURI",
          "type": "string"
        }
      ],
      "name": "createEvent",
      "outputs": [
        {
          "internalType": "uint256",
          "name": "",
          "type": "uint256"
        }
      ],
      "stateMutability": "nonpayable",
      "type": "function"
    },
    {
      "inputs": [
        {
          "internalType": "string",
          "name": "_eventURI",
          "type": "string"
        }
      ],
      "name": "createGrantEvent",
      "outputs": [
        {
          "internalType": "uint256",
          "name": "",
          "type": "uint256"
        }
      ],
      "stateMutability": "nonpayable",
      "type": "function"
    },
    {
      "inputs": [
        {
          "internalType": "string",
          "name": "Wallet",
          "type": "string"
        },
        {
          "internalType": "uint256",
          "name": "ProjectId",
          "type": "uint256"
        },
        {
          "internalType": "uint256",
          "name": "GranttId",
          "type": "uint256"
        }
      ],
      "name": "createGrantVote",
      "outputs": [
        {
          "internalType": "uint256",
          "name": "",
          "type": "uint256"
        }
      ],
      "stateMutability": "nonpayable",
      "type": "function"
    },
    {
      "inputs": [
        {
          "internalType": "uint256",
          "name": "eventId",
          "type": "uint256"
        }
      ],
      "name": "eventURI",
      "outputs": [
        {
          "internalType": "string[2]",
          "name": "",
          "type": "string[2]"
        }
      ],
      "stateMutability": "view",
      "type": "function"
    },
    {
      "inputs": [
        {
          "internalType": "uint256",
          "name": "tokenId",
          "type": "uint256"
        }
      ],
      "name": "getApproved",
      "outputs": [
        {
          "internalType": "address",
          "name": "",
          "type": "address"
        }
      ],
      "stateMutability": "view",
      "type": "function"
    },
    {
      "inputs": [
        {
          "internalType": "string",
          "name": "_bidURI",
          "type": "string"
        }
      ],
      "name": "getBidIdByUri",
      "outputs": [
        {
          "internalType": "uint256",
          "name": "",
          "type": "uint256"
        }
      ],
      "stateMutability": "view",
      "type": "function"
    },
    {
      "inputs": [
        {
          "internalType": "uint256",
          "name": "TokenID",
          "type": "uint256"
        }
      ],
      "name": "getBidsSearchToken",
      "outputs": [
        {
          "internalType": "string[]",
          "name": "",
          "type": "string[]"
        }
      ],
      "stateMutability": "view",
      "type": "function"
    },
    {
      "inputs": [
        {
          "internalType": "uint256",
          "name": "_eventId",
          "type": "uint256"
        }
      ],
      "name": "getEventRaised",
      "outputs": [
        {
          "internalType": "string",
          "name": "",
          "type": "string"
        }
      ],
      "stateMutability": "view",
      "type": "function"
    },
    {
      "inputs": [
        {
          "internalType": "uint256",
          "name": "EventId",
          "type": "uint256"
        },
        {
          "internalType": "string",
          "name": "_tokenURI",
          "type": "string"
        }
      ],
      "name": "getGetEventsTokenID",
      "outputs": [
        {
          "internalType": "uint256",
          "name": "",
          "type": "uint256"
        }
      ],
      "stateMutability": "view",
      "type": "function"
    },
    {
      "inputs": [
        {
          "internalType": "string",
          "name": "Wallet",
          "type": "string"
        }
      ],
      "name": "getSearchEventbyWallet",
      "outputs": [
        {
          "internalType": "string[]",
          "name": "",
          "type": "string[]"
        }
      ],
      "stateMutability": "view",
      "type": "function"
    },
    {
      "inputs": [
        {
          "internalType": "uint256",
          "name": "Grantid",
          "type": "uint256"
        },
        {
          "internalType": "uint256",
          "name": "ProjectId",
          "type": "uint256"
        }
      ],
      "name": "getSearchedGrantVoteProject",
      "outputs": [
        {
          "internalType": "string[]",
          "name": "",
          "type": "string[]"
        }
      ],
      "stateMutability": "view",
      "type": "function"
    },
    {
      "inputs": [
        {
          "internalType": "uint256",
          "name": "Grantid",
          "type": "uint256"
        }
      ],
      "name": "getSearchedProjectByGrantID",
      "outputs": [
        {
          "internalType": "uint256[]",
          "name": "",
          "type": "uint256[]"
        }
      ],
      "stateMutability": "view",
      "type": "function"
    },
    {
      "inputs": [
        {
          "internalType": "uint256",
          "name": "TokenID",
          "type": "uint256"
        }
      ],
      "name": "getTotalBid",
      "outputs": [
        {
          "internalType": "string[]",
          "name": "",
          "type": "string[]"
        }
      ],
      "stateMutability": "view",
      "type": "function"
    },
    {
      "inputs": [
        {
          "internalType": "string",
          "name": "_tokenURI",
          "type": "string"
        }
      ],
      "name": "gettokenIdByUri",
      "outputs": [
        {
          "internalType": "uint256",
          "name": "",
          "type": "uint256"
        }
      ],
      "stateMutability": "view",
      "type": "function"
    },
    {
      "inputs": [
        {
          "internalType": "uint256",
          "name": "EventID",
          "type": "uint256"
        }
      ],
      "name": "gettokenSearchEventTotal",
      "outputs": [
        {
          "internalType": "string[]",
          "name": "",
          "type": "string[]"
        }
      ],
      "stateMutability": "view",
      "type": "function"
    },
    {
      "inputs": [
        {
          "internalType": "address",
          "name": "owner",
          "type": "address"
        },
        {
          "internalType": "address",
          "name": "operator",
          "type": "address"
        }
      ],
      "name": "isApprovedForAll",
      "outputs": [
        {
          "internalType": "bool",
          "name": "",
          "type": "bool"
        }
      ],
      "stateMutability": "view",
      "type": "function"
    },
    {
      "inputs": [],
      "name": "name",
      "outputs": [
        {
          "internalType": "string",
          "name": "",
          "type": "string"
        }
      ],
      "stateMutability": "view",
      "type": "function"
    },
    {
      "inputs": [
        {
          "internalType": "uint256",
          "name": "tokenId",
          "type": "uint256"
        }
      ],
      "name": "ownerOf",
      "outputs": [
        {
          "internalType": "address",
          "name": "",
          "type": "address"
        }
      ],
      "stateMutability": "view",
      "type": "function"
    },
    {
      "inputs": [
        {
          "internalType": "address",
          "name": "from",
          "type": "address"
        },
        {
          "internalType": "address",
          "name": "to",
          "type": "address"
        },
        {
          "internalType": "uint256",
          "name": "tokenId",
          "type": "uint256"
        }
      ],
      "name": "safeTransferFrom",
      "outputs": [],
      "stateMutability": "nonpayable",
      "type": "function"
    },
    {
      "inputs": [
        {
          "internalType": "address",
          "name": "from",
          "type": "address"
        },
        {
          "internalType": "address",
          "name": "to",
          "type": "address"
        },
        {
          "internalType": "uint256",
          "name": "tokenId",
          "type": "uint256"
        },
        {
          "internalType": "bytes",
          "name": "_data",
          "type": "bytes"
        }
      ],
      "name": "safeTransferFrom",
      "outputs": [],
      "stateMutability": "nonpayable",
      "type": "function"
    },
    {
      "inputs": [
        {
          "internalType": "address",
          "name": "operator",
          "type": "address"
        },
        {
          "internalType": "bool",
          "name": "approved",
          "type": "bool"
        }
      ],
      "name": "setApprovalForAll",
      "outputs": [],
      "stateMutability": "nonpayable",
      "type": "function"
    },
    {
      "inputs": [
        {
          "internalType": "uint256",
          "name": "GrantProjectId",
          "type": "uint256"
        },
        {
          "internalType": "uint256",
          "name": "ProjectId",
          "type": "uint256"
        },
        {
          "internalType": "uint256",
          "name": "GranttId",
          "type": "uint256"
        }
      ],
      "name": "setGrantProject",
      "outputs": [],
      "stateMutability": "nonpayable",
      "type": "function"
    },
    {
      "inputs": [
        {
          "internalType": "uint256",
          "name": "GrantVoteId",
          "type": "uint256"
        },
        {
          "internalType": "string",
          "name": "Wallet",
          "type": "string"
        },
        {
          "internalType": "string",
          "name": "ProjectId",
          "type": "string"
        },
        {
          "internalType": "string",
          "name": "GranttId",
          "type": "string"
        }
      ],
      "name": "setGrantVote",
      "outputs": [],
      "stateMutability": "nonpayable",
      "type": "function"
    },
    {
      "inputs": [
        {
          "internalType": "bytes4",
          "name": "interfaceId",
          "type": "bytes4"
        }
      ],
      "name": "supportsInterface",
      "outputs": [
        {
          "internalType": "bool",
          "name": "",
          "type": "bool"
        }
      ],
      "stateMutability": "view",
      "type": "function"
    },
    {
      "inputs": [],
      "name": "symbol",
      "outputs": [
        {
          "internalType": "string",
          "name": "",
          "type": "string"
        }
      ],
      "stateMutability": "view",
      "type": "function"
    },
    {
      "inputs": [
        {
          "internalType": "uint256",
          "name": "tokenId",
          "type": "uint256"
        }
      ],
      "name": "tokenURI",
      "outputs": [
        {
          "internalType": "string",
          "name": "",
          "type": "string"
        }
      ],
      "stateMutability": "view",
      "type": "function"
    },
    {
      "inputs": [],
      "name": "totalEvent",
      "outputs": [
        {
          "internalType": "uint256",
          "name": "",
          "type": "uint256"
        }
      ],
      "stateMutability": "view",
      "type": "function"
    },
    {
      "inputs": [],
      "name": "totalGrantEvent",
      "outputs": [
        {
          "internalType": "uint256",
          "name": "",
          "type": "uint256"
        }
      ],
      "stateMutability": "view",
      "type": "function"
    },
    {
      "inputs": [],
      "name": "totalSupply",
      "outputs": [
        {
          "internalType": "uint256",
          "name": "",
          "type": "uint256"
        }
      ],
      "stateMutability": "view",
      "type": "function"
    },
    {
      "inputs": [
        {
          "internalType": "address",
          "name": "from",
          "type": "address"
        },
        {
          "internalType": "address",
          "name": "to",
          "type": "address"
        },
        {
          "internalType": "uint256",
          "name": "tokenId",
          "type": "uint256"
        }
      ],
      "name": "transferFrom",
      "outputs": [],
      "stateMutability": "nonpayable",
      "type": "function"
    }
  ],
  "bytecode": "0x60806040523480156200001157600080fd5b5060405162005541380380620055418339818101604052810190620000379190620001a3565b818181600090805190602001906200005192919062000075565b5080600190805190602001906200006a92919062000075565b5050505050620003ac565b8280546200008390620002bd565b90600052602060002090601f016020900481019282620000a75760008555620000f3565b82601f10620000c257805160ff1916838001178555620000f3565b82800160010185558215620000f3579182015b82811115620000f2578251825591602001919060010190620000d5565b5b50905062000102919062000106565b5090565b5b808211156200012157600081600090555060010162000107565b5090565b60006200013c620001368462000251565b62000228565b9050828152602081018484840111156200015b576200015a6200038c565b5b6200016884828562000287565b509392505050565b600082601f83011262000188576200018762000387565b5b81516200019a84826020860162000125565b91505092915050565b60008060408385031215620001bd57620001bc62000396565b5b600083015167ffffffffffffffff811115620001de57620001dd62000391565b5b620001ec8582860162000170565b925050602083015167ffffffffffffffff81111562000210576200020f62000391565b5b6200021e8582860162000170565b9150509250929050565b60006200023462000247565b9050620002428282620002f3565b919050565b6000604051905090565b600067ffffffffffffffff8211156200026f576200026e62000358565b5b6200027a826200039b565b9050602081019050919050565b60005b83811015620002a75780820151818401526020810190506200028a565b83811115620002b7576000848401525b50505050565b60006002820490506001821680620002d657607f821691505b60208210811415620002ed57620002ec62000329565b5b50919050565b620002fe826200039b565b810181811067ffffffffffffffff8211171562000320576200031f62000358565b5b80604052505050565b7f4e487b7100000000000000000000000000000000000000000000000000000000600052602260045260246000fd5b7f4e487b7100000000000000000000000000000000000000000000000000000000600052604160045260246000fd5b600080fd5b600080fd5b600080fd5b600080fd5b6000601f19601f8301169050919050565b61518580620003bc6000396000f3fe608060405234801561001057600080fd5b50600436106102f15760003560e01c80637cedbc1e1161019d578063c08e953d116100e9578063dfc5e169116100a2578063e985e9c51161007c578063e985e9c514610a1e578063eb1d234d14610a4e578063f327579414610a7e578063f880eb1914610a9a576102f1565b8063dfc5e169146109a2578063e08033d3146109d2578063e257a94c146109ee576102f1565b8063c08e953d146108ba578063c87b56dd146108ea578063cef80b3a1461091a578063d45fc51614610938578063d654e99314610968578063dcbe2ed914610984576102f1565b806396d5a73911610156578063a99bee2e11610130578063a99bee2e14610820578063aed479611461083e578063b10a5dfa1461086e578063b88d4fde1461089e576102f1565b806396d5a739146107a4578063a0fd0c6a146107d4578063a22cb46514610804576102f1565b80637cedbc1e146106bc5780637eadfa6a146106ec57806384eb8f681461070a578063912101cf14610726578063932a196b1461075657806395d89b4114610786576102f1565b806328520ab71161025c5780634ef4e80f1161021557806353c227cc116101ef57806353c227cc1461061057806361958158146106405780636352211e1461065c57806370a082311461068c576102f1565b80634ef4e80f146105805780635154380a146105b057806352379627146105e0576102f1565b806328520ab71461048857806335011d90146104b85780633592dd80146104e857806342842e0e14610504578063446a92e3146105205780634eb083ec14610550576102f1565b80630da3c49c116102ae5780630da3c49c146103c8578063144cbca6146103e45780631677bf081461040257806318160ddd1461041e5780631e65e1171461043c57806323b872dd1461046c576102f1565b806301538868146102f657806301ffc9a71461031257806306fdde0314610342578063081812fc14610360578063095ea7b3146103905780630ae240cf146103ac575b600080fd5b610310600480360381019061030b9190613c91565b610ab8565b005b61032c60048036038101906103279190613ada565b610b2c565b604051610339919061459f565b60405180910390f35b61034a610c0e565b60405161035791906145ba565b60405180910390f35b61037a60048036038101906103759190613c64565b610ca0565b60405161038791906144d2565b60405180910390f35b6103aa60048036038101906103a59190613a9a565b610d25565b005b6103c660048036038101906103c19190613d78565b610e3d565b005b6103e260048036038101906103dd9190613e33565b610e80565b005b6103ec610fa0565b6040516103f991906147bc565b60405180910390f35b61041c60048036038101906104179190613c91565b610fa6565b005b610426610fd2565b60405161043391906147bc565b60405180910390f35b61045660048036038101906104519190613b34565b610fdc565b604051610463919061455b565b60405180910390f35b61048660048036038101906104819190613915565b611200565b005b6104a2600480360381019061049d9190613c91565b611260565b6040516104af91906147bc565b60405180910390f35b6104d260048036038101906104cd9190613a2b565b611339565b6040516104df91906147bc565b60405180910390f35b61050260048036038101906104fd9190613f12565b61139c565b005b61051e60048036038101906105199190613915565b6113e0565b005b61053a60048036038101906105359190613c64565b611400565b60405161054791906145ba565b60405180910390f35b61056a60048036038101906105659190613c64565b6114a5565b60405161057791906145ba565b60405180910390f35b61059a60048036038101906105959190613ed2565b61154a565b6040516105a791906147bc565b60405180910390f35b6105ca60048036038101906105c59190613c64565b61157c565b6040516105d7919061455b565b60405180910390f35b6105fa60048036038101906105f59190613b34565b61172c565b60405161060791906147bc565b60405180910390f35b61062a60048036038101906106259190613c64565b61175c565b60405161063791906145ba565b60405180910390f35b61065a60048036038101906106559190613ced565b6117fc565b005b61067660048036038101906106719190613c64565b611895565b60405161068391906144d2565b60405180910390f35b6106a660048036038101906106a191906138a8565b611947565b6040516106b391906147bc565b60405180910390f35b6106d660048036038101906106d19190613c64565b6119ff565b6040516106e391906145ba565b60405180910390f35b6106f4611ab8565b60405161070191906147bc565b60405180910390f35b610724600480360381019061071f9190613c91565b611ac2565b005b610740600480360381019061073b9190613ed2565b611aee565b60405161074d919061455b565b60405180910390f35b610770600480360381019061076b9190613b34565b611dcd565b60405161077d91906147bc565b60405180910390f35b61078e611e3c565b60405161079b91906145ba565b60405180910390f35b6107be60048036038101906107b99190613c64565b611ece565b6040516107cb919061457d565b60405180910390f35b6107ee60048036038101906107e99190613c64565b612030565b6040516107fb9190614539565b60405180910390f35b61081e600480360381019061081991906139eb565b612110565b005b610828612126565b60405161083591906147bc565b60405180910390f35b61085860048036038101906108539190613c64565b61212c565b604051610865919061455b565b60405180910390f35b61088860048036038101906108839190613ed2565b6122dc565b60405161089591906145ba565b60405180910390f35b6108b860048036038101906108b39190613968565b61238c565b005b6108d460048036038101906108cf9190613bf5565b6123ee565b6040516108e191906147bc565b60405180910390f35b61090460048036038101906108ff9190613c64565b612432565b60405161091191906145ba565b60405180910390f35b61092261251f565b60405161092f91906147bc565b60405180910390f35b610952600480360381019061094d9190613b34565b612525565b60405161095f91906147bc565b60405180910390f35b610982600480360381019061097d9190613f12565b612594565b005b61098c6125d8565b60405161099991906147bc565b60405180910390f35b6109bc60048036038101906109b79190613c64565b6125de565b6040516109c991906145ba565b60405180910390f35b6109ec60048036038101906109e79190613c91565b61267e565b005b610a086004803603810190610a039190613b7d565b6126aa565b604051610a1591906147bc565b60405180910390f35b610a386004803603810190610a3391906138d5565b61271d565b604051610a45919061459f565b60405180910390f35b610a686004803603810190610a639190613c64565b6127b1565b604051610a75919061455b565b60405180910390f35b610a986004803603810190610a939190613f81565b612961565b005b610aa261299d565b604051610aaf91906147bc565b60405180910390f35b610ac1826129a7565b610b00576040517f08c379a0000000000000000000000000000000000000000000000000000000008152600401610af79061473c565b60405180910390fd5b80601560008481526020019081526020016000209080519060200190610b2792919061354b565b505050565b60007f80ac58cd000000000000000000000000000000000000000000000000000000007bffffffffffffffffffffffffffffffffffffffffffffffffffffffff1916827bffffffffffffffffffffffffffffffffffffffffffffffffffffffff19161480610bf757507f5b5e139f000000000000000000000000000000000000000000000000000000007bffffffffffffffffffffffffffffffffffffffffffffffffffffffff1916827bffffffffffffffffffffffffffffffffffffffffffffffffffffffff1916145b80610c075750610c0682612a13565b5b9050919050565b606060008054610c1d90614ad7565b80601f0160208091040260200160405190810160405280929190818152602001828054610c4990614ad7565b8015610c965780601f10610c6b57610100808354040283529160200191610c96565b820191906000526020600020905b815481529060010190602001808311610c7957829003601f168201915b5050505050905090565b6000610cab826129a7565b610cea576040517f08c379a0000000000000000000000000000000000000000000000000000000008152600401610ce19061471c565b60405180910390fd5b6004600083815260200190815260200160002060009054906101000a900473ffffffffffffffffffffffffffffffffffffffff169050919050565b6000610d3082611895565b90508073ffffffffffffffffffffffffffffffffffffffff168373ffffffffffffffffffffffffffffffffffffffff161415610da1576040517f08c379a0000000000000000000000000000000000000000000000000000000008152600401610d989061477c565b60405180910390fd5b8073ffffffffffffffffffffffffffffffffffffffff16610dc0612a7d565b73ffffffffffffffffffffffffffffffffffffffff161480610def5750610dee81610de9612a7d565b61271d565b5b610e2e576040517f08c379a0000000000000000000000000000000000000000000000000000000008152600401610e259061469c565b60405180910390fd5b610e388383612a85565b505050565b60405180606001604052808281526020018381526020018481525060106000868152602001908152602001600020906003610e799291906135d1565b5050505050565b6000610f2782601560008881526020019081526020016000208054610ea490614ad7565b80601f0160208091040260200160405190810160405280929190818152602001828054610ed090614ad7565b8015610f1d5780601f10610ef257610100808354040283529160200191610f1d565b820191906000526020600020905b815481529060010190602001808311610f0057829003601f168201915b5050505050611260565b905082601560008781526020019081526020016000209080519060200190610f5092919061354b565b50610f5c81838561139c565b610f69600d548686612594565b600d6000815480929190610f7c90614b3a565b919050555060076000815480929190610f9490614b3a565b91905055505050505050565b600e5481565b80601960008481526020019081526020016000209080519060200190610fcd92919061354b565b505050565b6000600654905090565b606060008060005b60085481101561105a5784805190602001206016600083815260200190815260200160002060006002811061101c5761101b614c41565b5b0160405161102a91906144bb565b6040518091039020141561104757828061104390614b3a565b9350505b808061105290614b3a565b915050610fe4565b5060008267ffffffffffffffff81111561107757611076614c70565b5b6040519080825280602002602001820160405280156110aa57816020015b60608152602001906001900390816110955790505b50905060005b6008548110156111f4578580519060200120601660008381526020019081526020016000206000600281106110e8576110e7614c41565b5b016040516110f691906144bb565b604051809103902014156111e1576016600082815260200190815260200160002060016002811061112a57611129614c41565b5b01805461113690614ad7565b80601f016020809104026020016040519081016040528092919081815260200182805461116290614ad7565b80156111af5780601f10611184576101008083540402835291602001916111af565b820191906000526020600020905b81548152906001019060200180831161119257829003601f168201915b50505050508284815181106111c7576111c6614c41565b5b602002602001018190525082806111dd90614b3a565b9350505b80806111ec90614b3a565b9150506110b0565b50809350505050919050565b61121161120b612a7d565b82612b3e565b611250576040517f08c379a00000000000000000000000000000000000000000000000000000000081526004016112479061479c565b60405180910390fd5b61125b838383612c1c565b505050565b600080600090505b600c5481101561132d5761127b84612e83565b80519060200120600f60008381526020019081526020016000206000600281106112a8576112a7614c41565b5b016040516112b691906144bb565b604051809103902014801561130c57508280519060200120600f60008381526020019081526020016000206001600281106112f4576112f3614c41565b5b0160405161130291906144bb565b6040518091039020145b1561131a5780915050611333565b808061132590614b3a565b915050611268565b50600090505b92915050565b600061134784600654612fe4565b61135360065484610ab8565b611360600c54838561139c565b6006600081548092919061137390614b3a565b9190505550600c600081548092919061138b90614b3a565b919050555060065490509392505050565b60405180604001604052806113b084612e83565b815260200182815250600f60008581526020019081526020016000209060026113da929190613624565b50505050565b6113fb8383836040518060200160405280600081525061238c565b505050565b606060146000838152602001908152602001600020805461142090614ad7565b80601f016020809104026020016040519081016040528092919081815260200182805461144c90614ad7565b80156114995780601f1061146e57610100808354040283529160200191611499565b820191906000526020600020905b81548152906001019060200180831161147c57829003601f168201915b50505050509050919050565b60606019600083815260200190815260200160002080546114c590614ad7565b80601f01602080910402602001604051908101604052809291908181526020018280546114f190614ad7565b801561153e5780601f106115135761010080835404028352916020019161153e565b820191906000526020600020905b81548152906001019060200180831161152157829003601f168201915b50505050509050919050565b6000611559600a548484612961565b600a600081548092919061156c90614b3a565b9190505550600a54905092915050565b60606000600a67ffffffffffffffff81111561159b5761159a614c70565b5b6040519080825280602002602001820160405280156115ce57816020015b60608152602001906001900390816115b95790505b5090506000805b600d54811015611721576115e885612e83565b805190602001206012600083815260200190815260200160002060006002811061161557611614614c41565b5b0160405161162391906144bb565b6040518091039020141561170e576012600082815260200190815260200160002060016002811061165757611656614c41565b5b01805461166390614ad7565b80601f016020809104026020016040519081016040528092919081815260200182805461168f90614ad7565b80156116dc5780601f106116b1576101008083540402835291602001916116dc565b820191906000526020600020905b8154815290600101906020018083116116bf57829003601f168201915b50505050508383815181106116f4576116f3614c41565b5b6020026020010181905250818061170a90614b3a565b9250505b808061171990614b3a565b9150506115d5565b508192505050919050565b600061173a60095483611ac2565b6009600081548092919061174d90614b3a565b91905055506009549050919050565b6018602052806000526040600020600091509050805461177b90614ad7565b80601f01602080910402602001604051908101604052809291908181526020018280546117a790614ad7565b80156117f45780601f106117c9576101008083540402835291602001916117f4565b820191906000526020600020905b8154815290600101906020018083116117d757829003601f168201915b505050505081565b60405180604001604052808381526020018281525060166000858152602001908152602001600020906002611832929190613624565b506040518060400160405280600181526020017f300000000000000000000000000000000000000000000000000000000000000081525060196000858152602001908152602001600020908051906020019061188f92919061354b565b50505050565b6000806002600084815260200190815260200160002060009054906101000a900473ffffffffffffffffffffffffffffffffffffffff169050600073ffffffffffffffffffffffffffffffffffffffff168173ffffffffffffffffffffffffffffffffffffffff16141561193e576040517f08c379a0000000000000000000000000000000000000000000000000000000008152600401611935906146dc565b60405180910390fd5b80915050919050565b60008073ffffffffffffffffffffffffffffffffffffffff168273ffffffffffffffffffffffffffffffffffffffff1614156119b8576040517f08c379a00000000000000000000000000000000000000000000000000000000081526004016119af906146bc565b60405180910390fd5b600360008373ffffffffffffffffffffffffffffffffffffffff1673ffffffffffffffffffffffffffffffffffffffff168152602001908152602001600020549050919050565b606060136000838152602001908152602001600020600060028110611a2757611a26614c41565b5b018054611a3390614ad7565b80601f0160208091040260200160405190810160405280929190818152602001828054611a5f90614ad7565b8015611aac5780601f10611a8157610100808354040283529160200191611aac565b820191906000526020600020905b815481529060010190602001808311611a8f57829003601f168201915b50505050509050919050565b6000600854905090565b80601760008481526020019081526020016000209080519060200190611ae992919061354b565b505050565b606060008060005b600b54811015611bc957611b0986612e83565b8051906020012060106000838152602001908152602001600020600060038110611b3657611b35614c41565b5b01604051611b4491906144bb565b6040518091039020148015611ba25750611b5d85612e83565b8051906020012060106000838152602001908152602001600020600160038110611b8a57611b89614c41565b5b01604051611b9891906144bb565b6040518091039020145b15611bb6578280611bb290614b3a565b9350505b8080611bc190614b3a565b915050611af6565b5060008267ffffffffffffffff811115611be657611be5614c70565b5b604051908082528060200260200182016040528015611c1957816020015b6060815260200190600190039081611c045790505b50905060005b600b54811015611dc057611c3287612e83565b8051906020012060106000838152602001908152602001600020600060038110611c5f57611c5e614c41565b5b01604051611c6d91906144bb565b6040518091039020148015611ccb5750611c8686612e83565b8051906020012060106000838152602001908152602001600020600160038110611cb357611cb2614c41565b5b01604051611cc191906144bb565b6040518091039020145b15611dad5760106000828152602001908152602001600020600260038110611cf657611cf5614c41565b5b018054611d0290614ad7565b80601f0160208091040260200160405190810160405280929190818152602001828054611d2e90614ad7565b8015611d7b5780601f10611d5057610100808354040283529160200191611d7b565b820191906000526020600020905b815481529060010190602001808311611d5e57829003601f168201915b5050505050828481518110611d9357611d92614c41565b5b60200260200101819052508280611da990614b3a565b9350505b8080611db890614b3a565b915050611c1f565b5080935050505092915050565b600080600090505b600654811015611e3157828051906020012060156000838152602001908152602001600020604051611e0791906144bb565b60405180910390201415611e1e5780915050611e37565b8080611e2990614b3a565b915050611dd5565b50600090505b919050565b606060018054611e4b90614ad7565b80601f0160208091040260200160405190810160405280929190818152602001828054611e7790614ad7565b8015611ec45780601f10611e9957610100808354040283529160200191611ec4565b820191906000526020600020905b815481529060010190602001808311611ea757829003601f168201915b5050505050905090565b606060008060005b600a54811015611f31578460116000838152602001908152602001600020600060028110611f0757611f06614c41565b5b01541415611f1e578280611f1a90614b3a565b9350505b8080611f2990614b3a565b915050611ed6565b5060008267ffffffffffffffff811115611f4e57611f4d614c70565b5b604051908082528060200260200182016040528015611f7c5781602001602082028036833780820191505090505b50905060005b600a54811015612024578560116000838152602001908152602001600020600060028110611fb357611fb2614c41565b5b015414156120115760116000828152602001908152602001600020600160028110611fe157611fe0614c41565b5b0154828481518110611ff657611ff5614c41565b5b602002602001018181525050828061200d90614b3a565b9350505b808061201c90614b3a565b915050611f82565b50809350505050919050565b612038613677565b60166000838152602001908152602001600020600280602002604051908101604052809291906000905b8282101561210557838201805461207890614ad7565b80601f01602080910402602001604051908101604052809291908181526020018280546120a490614ad7565b80156120f15780601f106120c6576101008083540402835291602001916120f1565b820191906000526020600020905b8154815290600101906020018083116120d457829003601f168201915b505050505081526020019060010190612062565b505050509050919050565b61212261211b612a7d565b83836131be565b5050565b60095481565b60606000600a67ffffffffffffffff81111561214b5761214a614c70565b5b60405190808252806020026020018201604052801561217e57816020015b60608152602001906001900390816121695790505b5090506000805b600d548110156122d15761219885612e83565b80519060200120601260008381526020019081526020016000206000600281106121c5576121c4614c41565b5b016040516121d391906144bb565b604051809103902014156122be576012600082815260200190815260200160002060016002811061220757612206614c41565b5b01805461221390614ad7565b80601f016020809104026020016040519081016040528092919081815260200182805461223f90614ad7565b801561228c5780601f106122615761010080835404028352916020019161228c565b820191906000526020600020905b81548152906001019060200180831161226f57829003601f168201915b50505050508383815181106122a4576122a3614c41565b5b602002602001018190525081806122ba90614b3a565b9250505b80806122c990614b3a565b915050612185565b508192505050919050565b601360205281600052604060002081600281106122f857600080fd5b0160009150915050805461230b90614ad7565b80601f016020809104026020016040519081016040528092919081815260200182805461233790614ad7565b80156123845780601f1061235957610100808354040283529160200191612384565b820191906000526020600020905b81548152906001019060200180831161236757829003601f168201915b505050505081565b61239d612397612a7d565b83612b3e565b6123dc576040517f08c379a00000000000000000000000000000000000000000000000000000000081526004016123d39061479c565b60405180910390fd5b6123e88484848461332b565b50505050565b600061240e600b548561240086612e83565b61240986612e83565b610e3d565b600b600081548092919061242190614b3a565b9190505550600b5490509392505050565b606061243d826129a7565b61247c576040517f08c379a00000000000000000000000000000000000000000000000000000000081526004016124739061475c565b60405180910390fd5b60156000838152602001908152602001600020805461249a90614ad7565b80601f01602080910402602001604051908101604052809291908181526020018280546124c690614ad7565b80156125135780601f106124e857610100808354040283529160200191612513565b820191906000526020600020905b8154815290600101906020018083116124f657829003601f168201915b50505050509050919050565b600a5481565b600080600090505b6007548110156125895782805190602001206014600083815260200190815260200160002060405161255f91906144bb565b60405180910390201415612576578091505061258f565b808061258190614b3a565b91505061252d565b50600090505b919050565b60405180604001604052806125a884612e83565b815260200182815250601260008581526020019081526020016000209060026125d2929190613624565b50505050565b600b5481565b601760205280600052604060002060009150905080546125fd90614ad7565b80601f016020809104026020016040519081016040528092919081815260200182805461262990614ad7565b80156126765780601f1061264b57610100808354040283529160200191612676565b820191906000526020600020905b81548152906001019060200180831161265957829003601f168201915b505050505081565b806014600084815260200190815260200160002090805190602001906126a592919061354b565b505050565b60006126b960085484846117fc565b6126fa6008546040518060400160405280600181526020017f3000000000000000000000000000000000000000000000000000000000000000815250610fa6565b6008600081548092919061270d90614b3a565b9190505550600854905092915050565b6000600560008473ffffffffffffffffffffffffffffffffffffffff1673ffffffffffffffffffffffffffffffffffffffff16815260200190815260200160002060008373ffffffffffffffffffffffffffffffffffffffff1673ffffffffffffffffffffffffffffffffffffffff16815260200190815260200160002060009054906101000a900460ff16905092915050565b60606000600a67ffffffffffffffff8111156127d0576127cf614c70565b5b60405190808252806020026020018201604052801561280357816020015b60608152602001906001900390816127ee5790505b5090506000805b600c548110156129565761281d85612e83565b80519060200120600f600083815260200190815260200160002060006002811061284a57612849614c41565b5b0160405161285891906144bb565b6040518091039020141561294357600f600082815260200190815260200160002060016002811061288c5761288b614c41565b5b01805461289890614ad7565b80601f01602080910402602001604051908101604052809291908181526020018280546128c490614ad7565b80156129115780601f106128e657610100808354040283529160200191612911565b820191906000526020600020905b8154815290600101906020018083116128f457829003601f168201915b505050505083838151811061292957612928614c41565b5b6020026020010181905250818061293f90614b3a565b9250505b808061294e90614b3a565b91505061280a565b508192505050919050565b6040518060400160405280828152602001838152506011600085815260200190815260200160002090600261299792919061369e565b50505050565b6000600a54905090565b60008073ffffffffffffffffffffffffffffffffffffffff166002600084815260200190815260200160002060009054906101000a900473ffffffffffffffffffffffffffffffffffffffff1673ffffffffffffffffffffffffffffffffffffffff1614159050919050565b60007f01ffc9a7000000000000000000000000000000000000000000000000000000007bffffffffffffffffffffffffffffffffffffffffffffffffffffffff1916827bffffffffffffffffffffffffffffffffffffffffffffffffffffffff1916149050919050565b600033905090565b816004600083815260200190815260200160002060006101000a81548173ffffffffffffffffffffffffffffffffffffffff021916908373ffffffffffffffffffffffffffffffffffffffff160217905550808273ffffffffffffffffffffffffffffffffffffffff16612af883611895565b73ffffffffffffffffffffffffffffffffffffffff167f8c5be1e5ebec7d5bd14f71427d1e84f3dd0314c0f7b2291e5b200ac8c7c3b92560405160405180910390a45050565b6000612b49826129a7565b612b88576040517f08c379a0000000000000000000000000000000000000000000000000000000008152600401612b7f9061467c565b60405180910390fd5b6000612b9383611895565b90508073ffffffffffffffffffffffffffffffffffffffff168473ffffffffffffffffffffffffffffffffffffffff161480612bd55750612bd4818561271d565b5b80612c1357508373ffffffffffffffffffffffffffffffffffffffff16612bfb84610ca0565b73ffffffffffffffffffffffffffffffffffffffff16145b91505092915050565b8273ffffffffffffffffffffffffffffffffffffffff16612c3c82611895565b73ffffffffffffffffffffffffffffffffffffffff1614612c92576040517f08c379a0000000000000000000000000000000000000000000000000000000008152600401612c89906145fc565b60405180910390fd5b600073ffffffffffffffffffffffffffffffffffffffff168273ffffffffffffffffffffffffffffffffffffffff161415612d02576040517f08c379a0000000000000000000000000000000000000000000000000000000008152600401612cf99061463c565b60405180910390fd5b612d0d838383613387565b612d18600082612a85565b6001600360008573ffffffffffffffffffffffffffffffffffffffff1673ffffffffffffffffffffffffffffffffffffffff1681526020019081526020016000206000828254612d6891906149ed565b925050819055506001600360008473ffffffffffffffffffffffffffffffffffffffff1673ffffffffffffffffffffffffffffffffffffffff1681526020019081526020016000206000828254612dbf9190614966565b92505081905550816002600083815260200190815260200160002060006101000a81548173ffffffffffffffffffffffffffffffffffffffff021916908373ffffffffffffffffffffffffffffffffffffffff160217905550808273ffffffffffffffffffffffffffffffffffffffff168473ffffffffffffffffffffffffffffffffffffffff167fddf252ad1be2c89b69c2b068fc378daa952ba7f163c4a11628f55a4df523b3ef60405160405180910390a4612e7e83838361338c565b505050565b60606000821415612ecb576040518060400160405280600181526020017f30000000000000000000000000000000000000000000000000000000000000008152509050612fdf565b600082905060005b60008214612efd578080612ee690614b3a565b915050600a82612ef691906149bc565b9150612ed3565b60008167ffffffffffffffff811115612f1957612f18614c70565b5b6040519080825280601f01601f191660200182016040528015612f4b5781602001600182028036833780820191505090505b5090505b60008514612fd857600182612f6491906149ed565b9150600a85612f739190614b83565b6030612f7f9190614966565b60f81b818381518110612f9557612f94614c41565b5b60200101907effffffffffffffffffffffffffffffffffffffffffffffffffffffffffffff1916908160001a905350600a85612fd191906149bc565b9450612f4f565b8093505050505b919050565b600073ffffffffffffffffffffffffffffffffffffffff168273ffffffffffffffffffffffffffffffffffffffff161415613054576040517f08c379a000000000000000000000000000000000000000000000000000000000815260040161304b906146fc565b60405180910390fd5b61305d816129a7565b1561309d576040517f08c379a00000000000000000000000000000000000000000000000000000000081526004016130949061461c565b60405180910390fd5b6130a960008383613387565b6001600360008473ffffffffffffffffffffffffffffffffffffffff1673ffffffffffffffffffffffffffffffffffffffff16815260200190815260200160002060008282546130f99190614966565b92505081905550816002600083815260200190815260200160002060006101000a81548173ffffffffffffffffffffffffffffffffffffffff021916908373ffffffffffffffffffffffffffffffffffffffff160217905550808273ffffffffffffffffffffffffffffffffffffffff16600073ffffffffffffffffffffffffffffffffffffffff167fddf252ad1be2c89b69c2b068fc378daa952ba7f163c4a11628f55a4df523b3ef60405160405180910390a46131ba6000838361338c565b5050565b8173ffffffffffffffffffffffffffffffffffffffff168373ffffffffffffffffffffffffffffffffffffffff16141561322d576040517f08c379a00000000000000000000000000000000000000000000000000000000081526004016132249061465c565b60405180910390fd5b80600560008573ffffffffffffffffffffffffffffffffffffffff1673ffffffffffffffffffffffffffffffffffffffff16815260200190815260200160002060008473ffffffffffffffffffffffffffffffffffffffff1673ffffffffffffffffffffffffffffffffffffffff16815260200190815260200160002060006101000a81548160ff0219169083151502179055508173ffffffffffffffffffffffffffffffffffffffff168373ffffffffffffffffffffffffffffffffffffffff167f17307eab39ab6107e8899845ad3d59bd9653f200f220920489ca2b5937696c318360405161331e919061459f565b60405180910390a3505050565b613336848484612c1c565b61334284848484613391565b613381576040517f08c379a0000000000000000000000000000000000000000000000000000000008152600401613378906145dc565b60405180910390fd5b50505050565b505050565b505050565b60006133b28473ffffffffffffffffffffffffffffffffffffffff16613528565b1561351b578373ffffffffffffffffffffffffffffffffffffffff1663150b7a026133db612a7d565b8786866040518563ffffffff1660e01b81526004016133fd94939291906144ed565b602060405180830381600087803b15801561341757600080fd5b505af192505050801561344857506040513d601f19601f820116820180604052508101906134459190613b07565b60015b6134cb573d8060008114613478576040519150601f19603f3d011682016040523d82523d6000602084013e61347d565b606091505b506000815114156134c3576040517f08c379a00000000000000000000000000000000000000000000000000000000081526004016134ba906145dc565b60405180910390fd5b805181602001fd5b63150b7a0260e01b7bffffffffffffffffffffffffffffffffffffffffffffffffffffffff1916817bffffffffffffffffffffffffffffffffffffffffffffffffffffffff191614915050613520565b600190505b949350505050565b6000808273ffffffffffffffffffffffffffffffffffffffff163b119050919050565b82805461355790614ad7565b90600052602060002090601f01602090048101928261357957600085556135c0565b82601f1061359257805160ff19168380011785556135c0565b828001600101855582156135c0579182015b828111156135bf5782518255916020019190600101906135a4565b5b5090506135cd91906136de565b5090565b8260038101928215613613579160200282015b8281111561361257825182908051906020019061360292919061354b565b50916020019190600101906135e4565b5b50905061362091906136fb565b5090565b8260028101928215613666579160200282015b8281111561366557825182908051906020019061365592919061354b565b5091602001919060010190613637565b5b50905061367391906136fb565b5090565b60405180604001604052806002905b60608152602001906001900390816136865790505090565b82600281019282156136cd579160200282015b828111156136cc5782518255916020019190600101906136b1565b5b5090506136da91906136de565b5090565b5b808211156136f75760008160009055506001016136df565b5090565b5b8082111561371b5760008181613712919061371f565b506001016136fc565b5090565b50805461372b90614ad7565b6000825580601f1061373d575061375c565b601f01602090049060005260206000209081019061375b91906136de565b5b50565b600061377261376d846147fc565b6147d7565b90508281526020810184848401111561378e5761378d614ca4565b5b613799848285614a95565b509392505050565b60006137b46137af8461482d565b6147d7565b9050828152602081018484840111156137d0576137cf614ca4565b5b6137db848285614a95565b509392505050565b6000813590506137f2816150f3565b92915050565b6000813590506138078161510a565b92915050565b60008135905061381c81615121565b92915050565b60008151905061383181615121565b92915050565b600082601f83011261384c5761384b614c9f565b5b813561385c84826020860161375f565b91505092915050565b600082601f83011261387a57613879614c9f565b5b813561388a8482602086016137a1565b91505092915050565b6000813590506138a281615138565b92915050565b6000602082840312156138be576138bd614cae565b5b60006138cc848285016137e3565b91505092915050565b600080604083850312156138ec576138eb614cae565b5b60006138fa858286016137e3565b925050602061390b858286016137e3565b9150509250929050565b60008060006060848603121561392e5761392d614cae565b5b600061393c868287016137e3565b935050602061394d868287016137e3565b925050604061395e86828701613893565b9150509250925092565b6000806000806080858703121561398257613981614cae565b5b6000613990878288016137e3565b94505060206139a1878288016137e3565b93505060406139b287828801613893565b925050606085013567ffffffffffffffff8111156139d3576139d2614ca9565b5b6139df87828801613837565b91505092959194509250565b60008060408385031215613a0257613a01614cae565b5b6000613a10858286016137e3565b9250506020613a21858286016137f8565b9150509250929050565b600080600060608486031215613a4457613a43614cae565b5b6000613a52868287016137e3565b935050602084013567ffffffffffffffff811115613a7357613a72614ca9565b5b613a7f86828701613865565b9250506040613a9086828701613893565b9150509250925092565b60008060408385031215613ab157613ab0614cae565b5b6000613abf858286016137e3565b9250506020613ad085828601613893565b9150509250929050565b600060208284031215613af057613aef614cae565b5b6000613afe8482850161380d565b91505092915050565b600060208284031215613b1d57613b1c614cae565b5b6000613b2b84828501613822565b91505092915050565b600060208284031215613b4a57613b49614cae565b5b600082013567ffffffffffffffff811115613b6857613b67614ca9565b5b613b7484828501613865565b91505092915050565b60008060408385031215613b9457613b93614cae565b5b600083013567ffffffffffffffff811115613bb257613bb1614ca9565b5b613bbe85828601613865565b925050602083013567ffffffffffffffff811115613bdf57613bde614ca9565b5b613beb85828601613865565b9150509250929050565b600080600060608486031215613c0e57613c0d614cae565b5b600084013567ffffffffffffffff811115613c2c57613c2b614ca9565b5b613c3886828701613865565b9350506020613c4986828701613893565b9250506040613c5a86828701613893565b9150509250925092565b600060208284031215613c7a57613c79614cae565b5b6000613c8884828501613893565b91505092915050565b60008060408385031215613ca857613ca7614cae565b5b6000613cb685828601613893565b925050602083013567ffffffffffffffff811115613cd757613cd6614ca9565b5b613ce385828601613865565b9150509250929050565b600080600060608486031215613d0657613d05614cae565b5b6000613d1486828701613893565b935050602084013567ffffffffffffffff811115613d3557613d34614ca9565b5b613d4186828701613865565b925050604084013567ffffffffffffffff811115613d6257613d61614ca9565b5b613d6e86828701613865565b9150509250925092565b60008060008060808587031215613d9257613d91614cae565b5b6000613da087828801613893565b945050602085013567ffffffffffffffff811115613dc157613dc0614ca9565b5b613dcd87828801613865565b935050604085013567ffffffffffffffff811115613dee57613ded614ca9565b5b613dfa87828801613865565b925050606085013567ffffffffffffffff811115613e1b57613e1a614ca9565b5b613e2787828801613865565b91505092959194509250565b60008060008060808587031215613e4d57613e4c614cae565b5b6000613e5b87828801613893565b945050602085013567ffffffffffffffff811115613e7c57613e7b614ca9565b5b613e8887828801613865565b935050604085013567ffffffffffffffff811115613ea957613ea8614ca9565b5b613eb587828801613865565b9250506060613ec687828801613893565b91505092959194509250565b60008060408385031215613ee957613ee8614cae565b5b6000613ef785828601613893565b9250506020613f0885828601613893565b9150509250929050565b600080600060608486031215613f2b57613f2a614cae565b5b6000613f3986828701613893565b9350506020613f4a86828701613893565b925050604084013567ffffffffffffffff811115613f6b57613f6a614ca9565b5b613f7786828701613865565b9150509250925092565b600080600060608486031215613f9a57613f99614cae565b5b6000613fa886828701613893565b9350506020613fb986828701613893565b9250506040613fca86828701613893565b9150509250925092565b6000613fe0838361421e565b905092915050565b6000613ff4838361449d565b60208301905092915050565b61400981614a21565b82525050565b600061401a8261489d565b61402481856148fb565b9350836020820285016140368561485e565b8060005b8581101561407257848403895281516140538582613fd4565b945061405e836148d4565b925060208a0199505060018101905061403a565b50829750879550505050505092915050565b600061408f826148a8565b6140998185614906565b9350836020820285016140ab85614868565b8060005b858110156140e757848403895281516140c88582613fd4565b94506140d3836148e1565b925060208a019950506001810190506140af565b50829750879550505050505092915050565b6000614104826148b3565b61410e8185614917565b935061411983614878565b8060005b8381101561414a5781516141318882613fe8565b975061413c836148ee565b92505060018101905061411d565b5085935050505092915050565b61416081614a33565b82525050565b6000614171826148be565b61417b8185614928565b935061418b818560208601614aa4565b61419481614cb3565b840191505092915050565b600081546141ac81614ad7565b6141b68186614939565b945060018216600081146141d157600181146141e257614215565b60ff19831686528186019350614215565b6141eb85614888565b60005b8381101561420d578154818901526001820191506020810190506141ee565b838801955050505b50505092915050565b6000614229826148c9565b6142338185614944565b9350614243818560208601614aa4565b61424c81614cb3565b840191505092915050565b6000614262826148c9565b61426c8185614955565b935061427c818560208601614aa4565b61428581614cb3565b840191505092915050565b600061429d603283614955565b91506142a882614cc4565b604082019050919050565b60006142c0602583614955565b91506142cb82614d13565b604082019050919050565b60006142e3601c83614955565b91506142ee82614d62565b602082019050919050565b6000614306602483614955565b915061431182614d8b565b604082019050919050565b6000614329601983614955565b915061433482614dda565b602082019050919050565b600061434c602c83614955565b915061435782614e03565b604082019050919050565b600061436f603883614955565b915061437a82614e52565b604082019050919050565b6000614392602a83614955565b915061439d82614ea1565b604082019050919050565b60006143b5602983614955565b91506143c082614ef0565b604082019050919050565b60006143d8602083614955565b91506143e382614f3f565b602082019050919050565b60006143fb602c83614955565b915061440682614f68565b604082019050919050565b600061441e602c83614955565b915061442982614fb7565b604082019050919050565b6000614441602f83614955565b915061444c82615006565b604082019050919050565b6000614464602183614955565b915061446f82615055565b604082019050919050565b6000614487603183614955565b9150614492826150a4565b604082019050919050565b6144a681614a8b565b82525050565b6144b581614a8b565b82525050565b60006144c7828461419f565b915081905092915050565b60006020820190506144e76000830184614000565b92915050565b60006080820190506145026000830187614000565b61450f6020830186614000565b61451c60408301856144ac565b818103606083015261452e8184614166565b905095945050505050565b60006020820190508181036000830152614553818461400f565b905092915050565b600060208201905081810360008301526145758184614084565b905092915050565b6000602082019050818103600083015261459781846140f9565b905092915050565b60006020820190506145b46000830184614157565b92915050565b600060208201905081810360008301526145d48184614257565b905092915050565b600060208201905081810360008301526145f581614290565b9050919050565b60006020820190508181036000830152614615816142b3565b9050919050565b60006020820190508181036000830152614635816142d6565b9050919050565b60006020820190508181036000830152614655816142f9565b9050919050565b600060208201905081810360008301526146758161431c565b9050919050565b600060208201905081810360008301526146958161433f565b9050919050565b600060208201905081810360008301526146b581614362565b9050919050565b600060208201905081810360008301526146d581614385565b9050919050565b600060208201905081810360008301526146f5816143a8565b9050919050565b60006020820190508181036000830152614715816143cb565b9050919050565b60006020820190508181036000830152614735816143ee565b9050919050565b6000602082019050818103600083015261475581614411565b9050919050565b6000602082019050818103600083015261477581614434565b9050919050565b6000602082019050818103600083015261479581614457565b9050919050565b600060208201905081810360008301526147b58161447a565b9050919050565b60006020820190506147d160008301846144ac565b92915050565b60006147e16147f2565b90506147ed8282614b09565b919050565b6000604051905090565b600067ffffffffffffffff82111561481757614816614c70565b5b61482082614cb3565b9050602081019050919050565b600067ffffffffffffffff82111561484857614847614c70565b5b61485182614cb3565b9050602081019050919050565b6000819050919050565b6000819050602082019050919050565b6000819050602082019050919050565b60008190508160005260206000209050919050565b600060029050919050565b600081519050919050565b600081519050919050565b600081519050919050565b600081519050919050565b6000602082019050919050565b6000602082019050919050565b6000602082019050919050565b600081905092915050565b600082825260208201905092915050565b600082825260208201905092915050565b600082825260208201905092915050565b600081905092915050565b600082825260208201905092915050565b600082825260208201905092915050565b600061497182614a8b565b915061497c83614a8b565b9250827fffffffffffffffffffffffffffffffffffffffffffffffffffffffffffffffff038211156149b1576149b0614bb4565b5b828201905092915050565b60006149c782614a8b565b91506149d283614a8b565b9250826149e2576149e1614be3565b5b828204905092915050565b60006149f882614a8b565b9150614a0383614a8b565b925082821015614a1657614a15614bb4565b5b828203905092915050565b6000614a2c82614a6b565b9050919050565b60008115159050919050565b60007fffffffff0000000000000000000000000000000000000000000000000000000082169050919050565b600073ffffffffffffffffffffffffffffffffffffffff82169050919050565b6000819050919050565b82818337600083830152505050565b60005b83811015614ac2578082015181840152602081019050614aa7565b83811115614ad1576000848401525b50505050565b60006002820490506001821680614aef57607f821691505b60208210811415614b0357614b02614c12565b5b50919050565b614b1282614cb3565b810181811067ffffffffffffffff82111715614b3157614b30614c70565b5b80604052505050565b6000614b4582614a8b565b91507fffffffffffffffffffffffffffffffffffffffffffffffffffffffffffffffff821415614b7857614b77614bb4565b5b600182019050919050565b6000614b8e82614a8b565b9150614b9983614a8b565b925082614ba957614ba8614be3565b5b828206905092915050565b7f4e487b7100000000000000000000000000000000000000000000000000000000600052601160045260246000fd5b7f4e487b7100000000000000000000000000000000000000000000000000000000600052601260045260246000fd5b7f4e487b7100000000000000000000000000000000000000000000000000000000600052602260045260246000fd5b7f4e487b7100000000000000000000000000000000000000000000000000000000600052603260045260246000fd5b7f4e487b7100000000000000000000000000000000000000000000000000000000600052604160045260246000fd5b600080fd5b600080fd5b600080fd5b600080fd5b6000601f19601f8301169050919050565b7f4552433732313a207472616e7366657220746f206e6f6e20455243373231526560008201527f63656976657220696d706c656d656e7465720000000000000000000000000000602082015250565b7f4552433732313a207472616e736665722066726f6d20696e636f72726563742060008201527f6f776e6572000000000000000000000000000000000000000000000000000000602082015250565b7f4552433732313a20746f6b656e20616c7265616479206d696e74656400000000600082015250565b7f4552433732313a207472616e7366657220746f20746865207a65726f2061646460008201527f7265737300000000000000000000000000000000000000000000000000000000602082015250565b7f4552433732313a20617070726f766520746f2063616c6c657200000000000000600082015250565b7f4552433732313a206f70657261746f7220717565727920666f72206e6f6e657860008201527f697374656e7420746f6b656e0000000000000000000000000000000000000000602082015250565b7f4552433732313a20617070726f76652063616c6c6572206973206e6f74206f7760008201527f6e6572206e6f7220617070726f76656420666f7220616c6c0000000000000000602082015250565b7f4552433732313a2062616c616e636520717565727920666f7220746865207a6560008201527f726f206164647265737300000000000000000000000000000000000000000000602082015250565b7f4552433732313a206f776e657220717565727920666f72206e6f6e657869737460008201527f656e7420746f6b656e0000000000000000000000000000000000000000000000602082015250565b7f4552433732313a206d696e7420746f20746865207a65726f2061646472657373600082015250565b7f4552433732313a20617070726f76656420717565727920666f72206e6f6e657860008201527f697374656e7420746f6b656e0000000000000000000000000000000000000000602082015250565b7f4552433732314d657461646174613a2055524920736574206f66206e6f6e657860008201527f697374656e7420746f6b656e0000000000000000000000000000000000000000602082015250565b7f4552433732314d657461646174613a2055524920717565727920666f72206e6f60008201527f6e6578697374656e7420746f6b656e0000000000000000000000000000000000602082015250565b7f4552433732313a20617070726f76616c20746f2063757272656e74206f776e6560008201527f7200000000000000000000000000000000000000000000000000000000000000602082015250565b7f4552433732313a207472616e736665722063616c6c6572206973206e6f74206f60008201527f776e6572206e6f7220617070726f766564000000000000000000000000000000602082015250565b6150fc81614a21565b811461510757600080fd5b50565b61511381614a33565b811461511e57600080fd5b50565b61512a81614a3f565b811461513557600080fd5b50565b61514181614a8b565b811461514c57600080fd5b5056fea26469706673582212200aeedc5da68e1fac606ad560156afa6113218134c34ef91a319b2f75f7189bff64736f6c63430008060033",
  "linkReferences": {},
  "deployedLinkReferences": {}
}