{
  "_format": "hh-sol-artifact-1",
  "contractName": "CeloERC721",
  "sourceName": "contracts/CeloERC721.sol",
  "abi": [
    {
      "inputs": [
        {
          "internalType": "string",
          "name": "name",
          "type": "string"
        },
        {
          "internalType": "string",
          "name": "symbol",
          "type": "string"
        }
      ],
      "stateMutability": "nonpayable",
      "type": "constructor"
    },
    {
      "anonymous": false,
      "inputs": [
        {
          "indexed": true,
          "internalType": "address",
          "name": "owner",
          "type": "address"
        },
        {
          "indexed": true,
          "internalType": "address",
          "name": "approved",
          "type": "address"
        },
        {
          "indexed": true,
          "internalType": "uint256",
          "name": "tokenId",
          "type": "uint256"
        }
      ],
      "name": "Approval",
      "type": "event"
    },
    {
      "anonymous": false,
      "inputs": [
        {
          "indexed": true,
          "internalType": "address",
          "name": "owner",
          "type": "address"
        },
        {
          "indexed": true,
          "internalType": "address",
          "name": "operator",
          "type": "address"
        },
        {
          "indexed": false,
          "internalType": "bool",
          "name": "approved",
          "type": "bool"
        }
      ],
      "name": "ApprovalForAll",
      "type": "event"
    },
    {
      "anonymous": false,
      "inputs": [
        {
          "indexed": true,
          "internalType": "address",
          "name": "from",
          "type": "address"
        },
        {
          "indexed": true,
          "internalType": "address",
          "name": "to",
          "type": "address"
        },
        {
          "indexed": true,
          "internalType": "uint256",
          "name": "tokenId",
          "type": "uint256"
        }
      ],
      "name": "Transfer",
      "type": "event"
    },
    {
      "inputs": [
        {
          "internalType": "uint256",
          "name": "BidId",
          "type": "uint256"
        }
      ],
      "name": "BidURI",
      "outputs": [
        {
          "internalType": "string",
          "name": "",
          "type": "string"
        }
      ],
      "stateMutability": "view",
      "type": "function"
    },
    {
      "inputs": [
        {
          "internalType": "uint256",
          "name": "ProjectId",
          "type": "uint256"
        },
        {
          "internalType": "uint256",
          "name": "GranttId",
          "type": "uint256"
        }
      ],
      "name": "CreateGrantProject",
      "outputs": [
        {
          "internalType": "uint256",
          "name": "",
          "type": "uint256"
        }
      ],
      "stateMutability": "nonpayable",
      "type": "function"
    },
    {
      "inputs": [],
      "name": "_EventTokenSearchIds",
      "outputs": [
        {
          "internalType": "uint256",
          "name": "",
          "type": "uint256"
        }
      ],
      "stateMutability": "view",
      "type": "function"
    },
    {
      "inputs": [],
      "name": "_GrantEventIds",
      "outputs": [
        {
          "internalType": "uint256",
          "name": "",
          "type": "uint256"
        }
      ],
      "stateMutability": "view",
      "type": "function"
    },
    {
      "inputs": [
        {
          "internalType": "uint256",
          "name": "",
          "type": "uint256"
        }
      ],
      "name": "_GrantEventURIs",
      "outputs": [
        {
          "internalType": "string",
          "name": "",
          "type": "string"
        }
      ],
      "stateMutability": "view",
      "type": "function"
    },
    {
      "inputs": [],
      "name": "_GrantProjectIds",
      "outputs": [
        {
          "internalType": "uint256",
          "name": "",
          "type": "uint256"
        }
      ],
      "stateMutability": "view",
      "type": "function"
    },
    {
      "inputs": [
        {
          "internalType": "uint256",
          "name": "",
          "type": "uint256"
        }
      ],
      "name": "_JudgerURIs",
      "outputs": [
        {
          "internalType": "string",
          "name": "",
          "type": "string"
        }
      ],
      "stateMutability": "view",
      "type": "function"
    },
    {
      "inputs": [
        {
          "internalType": "uint256",
          "name": "",
          "type": "uint256"
        },
        {
          "internalType": "uint256",
          "name": "",
          "type": "uint256"
        }
      ],
      "name": "_SearchedStore",
      "outputs": [
        {
          "internalType": "string",
          "name": "",
          "type": "string"
        }
      ],
      "stateMutability": "view",
      "type": "function"
    },
    {
      "inputs": [
        {
          "internalType": "uint256",
          "name": "_tokenId",
          "type": "uint256"
        }
      ],
      "name": "_getSearchedTokenURI",
      "outputs": [
        {
          "internalType": "string",
          "name": "",
          "type": "string"
        }
      ],
      "stateMutability": "view",
      "type": "function"
    },
    {
      "inputs": [
        {
          "internalType": "uint256",
          "name": "bidId",
          "type": "uint256"
        },
        {
          "internalType": "string",
          "name": "_bidURI",
          "type": "string"
        }
      ],
      "name": "_setBidURI",
      "outputs": [],
      "stateMutability": "nonpayable",
      "type": "function"
    },
    {
      "inputs": [
        {
          "internalType": "uint256",
          "name": "_eventId",
          "type": "uint256"
        },
        {
          "internalType": "string",
          "name": "_raised",
          "type": "string"
        }
      ],
      "name": "_setEventRaised",
      "outputs": [],
      "stateMutability": "nonpayable",
      "type": "function"
    },
    {
      "inputs": [
        {
          "internalType": "uint256",
          "name": "eventId",
          "type": "uint256"
        },
        {
          "internalType": "string",
          "name": "_eventWallet",
          "type": "string"
        },
        {
          "internalType": "string",
          "name": "_eventURI",
          "type": "string"
        }
      ],
      "name": "_setEventURI",
      "outputs": [],
      "stateMutability": "nonpayable",
      "type": "function"
    },
    {
      "inputs": [
        {
          "internalType": "uint256",
          "name": "eventId",
          "type": "uint256"
        },
        {
          "internalType": "string",
          "name": "_eventURI",
          "type": "string"
        }
      ],
      "name": "_setGrantEventURI",
      "outputs": [],
      "stateMutability": "nonpayable",
      "type": "function"
    },
    {
      "inputs": [
        {
          "internalType": "uint256",
          "name": "TokenBidId",
          "type": "uint256"
        },
        {
          "internalType": "uint256",
          "name": "TokenId",
          "type": "uint256"
        },
        {
          "internalType": "string",
          "name": "_BidURI",
          "type": "string"
        }
      ],
      "name": "_setTokenBid",
      "outputs": [],
      "stateMutability": "nonpayable",
      "type": "function"
    },
    {
      "inputs": [
        {
          "internalType": "uint256",
          "name": "EventTokenId",
          "type": "uint256"
        },
        {
          "internalType": "uint256",
          "name": "EventId",
          "type": "uint256"
        },
        {
          "internalType": "string",
          "name": "_tokenURI",
          "type": "string"
        }
      ],
      "name": "_setTokenEvent",
      "outputs": [],
      "stateMutability": "nonpayable",
      "type": "function"
    },
    {
      "inputs": [
        {
          "internalType": "uint256",
          "name": "tokenId",
          "type": "uint256"
        },
        {
          "internalType": "string",
          "name": "_tokenURI",
          "type": "string"
        }
      ],
      "name": "_setTokenURI",
      "outputs": [],
      "stateMutability": "nonpayable",
      "type": "function"
    },
    {
      "inputs": [
        {
          "internalType": "address",
          "name": "to",
          "type": "address"
        },
        {
          "internalType": "uint256",
          "name": "tokenId",
          "type": "uint256"
        }
      ],
      "name": "approve",
      "outputs": [],
      "stateMutability": "nonpayable",
      "type": "function"
    },
    {
      "inputs": [
        {
          "internalType": "address",
          "name": "owner",
          "type": "address"
        }
      ],
      "name": "balanceOf",
      "outputs": [
        {
          "internalType": "uint256",
          "name": "",
          "type": "uint256"
        }
      ],
      "stateMutability": "view",
      "type": "function"
    },
    {
      "inputs": [
        {
          "internalType": "address",
          "name": "_claimer",
          "type": "address"
        },
        {
          "internalType": "string",
          "name": "_tokenURI",
          "type": "string"
        },
        {
          "internalType": "uint256",
          "name": "_eventid",
          "type": "uint256"
        }
      ],
      "name": "claimToken",
      "outputs": [
        {
          "internalType": "uint256",
          "name": "",
          "type": "uint256"
        }
      ],
      "stateMutability": "nonpayable",
      "type": "function"
    },
    {
      "inputs": [
        {
          "internalType": "uint256",
          "name": "_tokenId",
          "type": "uint256"
        },
        {
          "internalType": "string",
          "name": "_bidURI",
          "type": "string"
        },
        {
          "internalType": "string",
          "name": "_updatedURI",
          "type": "string"
        },
        {
          "internalType": "uint256",
          "name": "_eventid",
          "type": "uint256"
        }
      ],
      "name": "createBid",
      "outputs": [],
      "stateMutability": "nonpayable",
      "type": "function"
    },
    {
      "inputs": [
        {
          "internalType": "string",
          "name": "_eventWallet",
          "type": "string"
        },
        {
          "internalType": "string",
          "name": "_eventURI",
          "type": "string"
        }
      ],
      "name": "createEvent",
      "outputs": [
        {
          "internalType": "uint256",
          "name": "",
          "type": "uint256"
        }
      ],
      "stateMutability": "nonpayable",
      "type": "function"
    },
    {
      "inputs": [
        {
          "internalType": "string",
          "name": "_eventURI",
          "type": "string"
        }
      ],
      "name": "createGrantEvent",
      "outputs": [
        {
          "internalType": "uint256",
          "name": "",
          "type": "uint256"
        }
      ],
      "stateMutability": "nonpayable",
      "type": "function"
    },
    {
      "inputs": [
        {
          "internalType": "uint256",
          "name": "eventId",
          "type": "uint256"
        }
      ],
      "name": "eventURI",
      "outputs": [
        {
          "internalType": "string[2]",
          "name": "",
          "type": "string[2]"
        }
      ],
      "stateMutability": "view",
      "type": "function"
    },
    {
      "inputs": [
        {
          "internalType": "uint256",
          "name": "tokenId",
          "type": "uint256"
        }
      ],
      "name": "getApproved",
      "outputs": [
        {
          "internalType": "address",
          "name": "",
          "type": "address"
        }
      ],
      "stateMutability": "view",
      "type": "function"
    },
    {
      "inputs": [
        {
          "internalType": "string",
          "name": "_bidURI",
          "type": "string"
        }
      ],
      "name": "getBidIdByUri",
      "outputs": [
        {
          "internalType": "uint256",
          "name": "",
          "type": "uint256"
        }
      ],
      "stateMutability": "view",
      "type": "function"
    },
    {
      "inputs": [
        {
          "internalType": "uint256",
          "name": "TokenID",
          "type": "uint256"
        }
      ],
      "name": "getBidsSearchToken",
      "outputs": [
        {
          "internalType": "string[]",
          "name": "",
          "type": "string[]"
        }
      ],
      "stateMutability": "view",
      "type": "function"
    },
    {
      "inputs": [
        {
          "internalType": "uint256",
          "name": "_eventId",
          "type": "uint256"
        }
      ],
      "name": "getEventRaised",
      "outputs": [
        {
          "internalType": "string",
          "name": "",
          "type": "string"
        }
      ],
      "stateMutability": "view",
      "type": "function"
    },
    {
      "inputs": [
        {
          "internalType": "uint256",
          "name": "EventId",
          "type": "uint256"
        },
        {
          "internalType": "string",
          "name": "_tokenURI",
          "type": "string"
        }
      ],
      "name": "getGetEventsTokenID",
      "outputs": [
        {
          "internalType": "uint256",
          "name": "",
          "type": "uint256"
        }
      ],
      "stateMutability": "view",
      "type": "function"
    },
    {
      "inputs": [
        {
          "internalType": "string",
          "name": "Wallet",
          "type": "string"
        }
      ],
      "name": "getSearchEventbyWallet",
      "outputs": [
        {
          "internalType": "string[]",
          "name": "",
          "type": "string[]"
        }
      ],
      "stateMutability": "view",
      "type": "function"
    },
    {
      "inputs": [
        {
          "internalType": "uint256",
          "name": "Grantid",
          "type": "uint256"
        }
      ],
      "name": "getSearchedProjectByGrantID",
      "outputs": [
        {
          "internalType": "uint256[]",
          "name": "",
          "type": "uint256[]"
        }
      ],
      "stateMutability": "view",
      "type": "function"
    },
    {
      "inputs": [
        {
          "internalType": "uint256",
          "name": "TokenID",
          "type": "uint256"
        }
      ],
      "name": "getTotalBid",
      "outputs": [
        {
          "internalType": "string[]",
          "name": "",
          "type": "string[]"
        }
      ],
      "stateMutability": "view",
      "type": "function"
    },
    {
      "inputs": [
        {
          "internalType": "string",
          "name": "_tokenURI",
          "type": "string"
        }
      ],
      "name": "gettokenIdByUri",
      "outputs": [
        {
          "internalType": "uint256",
          "name": "",
          "type": "uint256"
        }
      ],
      "stateMutability": "view",
      "type": "function"
    },
    {
      "inputs": [
        {
          "internalType": "uint256",
          "name": "EventID",
          "type": "uint256"
        }
      ],
      "name": "gettokenSearchEventTotal",
      "outputs": [
        {
          "internalType": "string[]",
          "name": "",
          "type": "string[]"
        }
      ],
      "stateMutability": "view",
      "type": "function"
    },
    {
      "inputs": [
        {
          "internalType": "address",
          "name": "owner",
          "type": "address"
        },
        {
          "internalType": "address",
          "name": "operator",
          "type": "address"
        }
      ],
      "name": "isApprovedForAll",
      "outputs": [
        {
          "internalType": "bool",
          "name": "",
          "type": "bool"
        }
      ],
      "stateMutability": "view",
      "type": "function"
    },
    {
      "inputs": [],
      "name": "name",
      "outputs": [
        {
          "internalType": "string",
          "name": "",
          "type": "string"
        }
      ],
      "stateMutability": "view",
      "type": "function"
    },
    {
      "inputs": [
        {
          "internalType": "uint256",
          "name": "tokenId",
          "type": "uint256"
        }
      ],
      "name": "ownerOf",
      "outputs": [
        {
          "internalType": "address",
          "name": "",
          "type": "address"
        }
      ],
      "stateMutability": "view",
      "type": "function"
    },
    {
      "inputs": [
        {
          "internalType": "address",
          "name": "from",
          "type": "address"
        },
        {
          "internalType": "address",
          "name": "to",
          "type": "address"
        },
        {
          "internalType": "uint256",
          "name": "tokenId",
          "type": "uint256"
        }
      ],
      "name": "safeTransferFrom",
      "outputs": [],
      "stateMutability": "nonpayable",
      "type": "function"
    },
    {
      "inputs": [
        {
          "internalType": "address",
          "name": "from",
          "type": "address"
        },
        {
          "internalType": "address",
          "name": "to",
          "type": "address"
        },
        {
          "internalType": "uint256",
          "name": "tokenId",
          "type": "uint256"
        },
        {
          "internalType": "bytes",
          "name": "_data",
          "type": "bytes"
        }
      ],
      "name": "safeTransferFrom",
      "outputs": [],
      "stateMutability": "nonpayable",
      "type": "function"
    },
    {
      "inputs": [
        {
          "internalType": "address",
          "name": "operator",
          "type": "address"
        },
        {
          "internalType": "bool",
          "name": "approved",
          "type": "bool"
        }
      ],
      "name": "setApprovalForAll",
      "outputs": [],
      "stateMutability": "nonpayable",
      "type": "function"
    },
    {
      "inputs": [
        {
          "internalType": "uint256",
          "name": "GrantProjectId",
          "type": "uint256"
        },
        {
          "internalType": "uint256",
          "name": "ProjectId",
          "type": "uint256"
        },
        {
          "internalType": "uint256",
          "name": "GranttId",
          "type": "uint256"
        }
      ],
      "name": "setGrantProject",
      "outputs": [],
      "stateMutability": "nonpayable",
      "type": "function"
    },
    {
      "inputs": [
        {
          "internalType": "bytes4",
          "name": "interfaceId",
          "type": "bytes4"
        }
      ],
      "name": "supportsInterface",
      "outputs": [
        {
          "internalType": "bool",
          "name": "",
          "type": "bool"
        }
      ],
      "stateMutability": "view",
      "type": "function"
    },
    {
      "inputs": [],
      "name": "symbol",
      "outputs": [
        {
          "internalType": "string",
          "name": "",
          "type": "string"
        }
      ],
      "stateMutability": "view",
      "type": "function"
    },
    {
      "inputs": [
        {
          "internalType": "uint256",
          "name": "tokenId",
          "type": "uint256"
        }
      ],
      "name": "tokenURI",
      "outputs": [
        {
          "internalType": "string",
          "name": "",
          "type": "string"
        }
      ],
      "stateMutability": "view",
      "type": "function"
    },
    {
      "inputs": [],
      "name": "totalEvent",
      "outputs": [
        {
          "internalType": "uint256",
          "name": "",
          "type": "uint256"
        }
      ],
      "stateMutability": "view",
      "type": "function"
    },
    {
      "inputs": [],
      "name": "totalGrantEvent",
      "outputs": [
        {
          "internalType": "uint256",
          "name": "",
          "type": "uint256"
        }
      ],
      "stateMutability": "view",
      "type": "function"
    },
    {
      "inputs": [],
      "name": "totalSupply",
      "outputs": [
        {
          "internalType": "uint256",
          "name": "",
          "type": "uint256"
        }
      ],
      "stateMutability": "view",
      "type": "function"
    },
    {
      "inputs": [
        {
          "internalType": "address",
          "name": "from",
          "type": "address"
        },
        {
          "internalType": "address",
          "name": "to",
          "type": "address"
        },
        {
          "internalType": "uint256",
          "name": "tokenId",
          "type": "uint256"
        }
      ],
      "name": "transferFrom",
      "outputs": [],
      "stateMutability": "nonpayable",
      "type": "function"
    }
  ],
  "bytecode": "0x60806040523480156200001157600080fd5b5060405162004f6238038062004f628339818101604052810190620000379190620001a3565b818181600090805190602001906200005192919062000075565b5080600190805190602001906200006a92919062000075565b5050505050620003ac565b8280546200008390620002bd565b90600052602060002090601f016020900481019282620000a75760008555620000f3565b82601f10620000c257805160ff1916838001178555620000f3565b82800160010185558215620000f3579182015b82811115620000f2578251825591602001919060010190620000d5565b5b50905062000102919062000106565b5090565b5b808211156200012157600081600090555060010162000107565b5090565b60006200013c620001368462000251565b62000228565b9050828152602081018484840111156200015b576200015a6200038c565b5b6200016884828562000287565b509392505050565b600082601f83011262000188576200018762000387565b5b81516200019a84826020860162000125565b91505092915050565b60008060408385031215620001bd57620001bc62000396565b5b600083015167ffffffffffffffff811115620001de57620001dd62000391565b5b620001ec8582860162000170565b925050602083015167ffffffffffffffff81111562000210576200020f62000391565b5b6200021e8582860162000170565b9150509250929050565b60006200023462000247565b9050620002428282620002f3565b919050565b6000604051905090565b600067ffffffffffffffff8211156200026f576200026e62000358565b5b6200027a826200039b565b9050602081019050919050565b60005b83811015620002a75780820151818401526020810190506200028a565b83811115620002b7576000848401525b50505050565b60006002820490506001821680620002d657607f821691505b60208210811415620002ed57620002ec62000329565b5b50919050565b620002fe826200039b565b810181811067ffffffffffffffff8211171562000320576200031f62000358565b5b80604052505050565b7f4e487b7100000000000000000000000000000000000000000000000000000000600052602260045260246000fd5b7f4e487b7100000000000000000000000000000000000000000000000000000000600052604160045260246000fd5b600080fd5b600080fd5b600080fd5b600080fd5b6000601f19601f8301169050919050565b614ba680620003bc6000396000f3fe608060405234801561001057600080fd5b50600436106102955760003560e01c806370a0823111610167578063b88d4fde116100ce578063e08033d311610087578063e08033d3146108dc578063e257a94c146108f8578063e985e9c514610928578063eb1d234d14610958578063f327579414610988578063f880eb19146109a457610295565b8063b88d4fde146107f6578063c87b56dd14610812578063cef80b3a14610842578063d45fc51614610860578063d654e99314610890578063dfc5e169146108ac57610295565b806396d5a7391161012057806396d5a739146106fc578063a0fd0c6a1461072c578063a22cb4651461075c578063a99bee2e14610778578063aed4796114610796578063b10a5dfa146107c657610295565b806370a08231146106145780637cedbc1e146106445780637eadfa6a1461067457806384eb8f6814610692578063932a196b146106ae57806395d89b41146106de57610295565b806328520ab71161020b5780634ef4e80f116101c45780634ef4e80f146105085780635154380a14610538578063523796271461056857806353c227cc1461059857806361958158146105c85780636352211e146105e457610295565b806328520ab71461041057806335011d90146104405780633592dd801461047057806342842e0e1461048c578063446a92e3146104a85780634eb083ec146104d857610295565b80630da3c49c1161025d5780630da3c49c14610350578063144cbca61461036c5780631677bf081461038a57806318160ddd146103a65780631e65e117146103c457806323b872dd146103f457610295565b8063015388681461029a57806301ffc9a7146102b657806306fdde03146102e6578063081812fc14610304578063095ea7b314610334575b600080fd5b6102b460048036038101906102af919061376d565b6109c2565b005b6102d060048036038101906102cb9190613625565b610a36565b6040516102dd9190613fc0565b60405180910390f35b6102ee610b18565b6040516102fb9190613fdb565b60405180910390f35b61031e60048036038101906103199190613740565b610baa565b60405161032b9190613ef3565b60405180910390f35b61034e600480360381019061034991906135e5565b610c2f565b005b61036a60048036038101906103659190613854565b610d47565b005b610374610e67565b60405161038191906141dd565b60405180910390f35b6103a4600480360381019061039f919061376d565b610e6d565b005b6103ae610e99565b6040516103bb91906141dd565b60405180910390f35b6103de60048036038101906103d9919061367f565b610ea3565b6040516103eb9190613f7c565b60405180910390f35b61040e60048036038101906104099190613460565b6110c7565b005b61042a6004803603810190610425919061376d565b611127565b60405161043791906141dd565b60405180910390f35b61045a60048036038101906104559190613576565b611200565b60405161046791906141dd565b60405180910390f35b61048a60048036038101906104859190613933565b611263565b005b6104a660048036038101906104a19190613460565b6112a7565b005b6104c260048036038101906104bd9190613740565b6112c7565b6040516104cf9190613fdb565b60405180910390f35b6104f260048036038101906104ed9190613740565b61136c565b6040516104ff9190613fdb565b60405180910390f35b610522600480360381019061051d91906138f3565b611411565b60405161052f91906141dd565b60405180910390f35b610552600480360381019061054d9190613740565b611443565b60405161055f9190613f7c565b60405180910390f35b610582600480360381019061057d919061367f565b6115f3565b60405161058f91906141dd565b60405180910390f35b6105b260048036038101906105ad9190613740565b611623565b6040516105bf9190613fdb565b60405180910390f35b6105e260048036038101906105dd91906137c9565b6116c3565b005b6105fe60048036038101906105f99190613740565b61175c565b60405161060b9190613ef3565b60405180910390f35b61062e600480360381019061062991906133f3565b61180e565b60405161063b91906141dd565b60405180910390f35b61065e60048036038101906106599190613740565b6118c6565b60405161066b9190613fdb565b60405180910390f35b61067c61197f565b60405161068991906141dd565b60405180910390f35b6106ac60048036038101906106a7919061376d565b611989565b005b6106c860048036038101906106c3919061367f565b6119b5565b6040516106d591906141dd565b60405180910390f35b6106e6611a24565b6040516106f39190613fdb565b60405180910390f35b61071660048036038101906107119190613740565b611ab6565b6040516107239190613f9e565b60405180910390f35b61074660048036038101906107419190613740565b611c18565b6040516107539190613f5a565b60405180910390f35b61077660048036038101906107719190613536565b611cf8565b005b610780611d0e565b60405161078d91906141dd565b60405180910390f35b6107b060048036038101906107ab9190613740565b611d14565b6040516107bd9190613f7c565b60405180910390f35b6107e060048036038101906107db91906138f3565b611ec4565b6040516107ed9190613fdb565b60405180910390f35b610810600480360381019061080b91906134b3565b611f74565b005b61082c60048036038101906108279190613740565b611fd6565b6040516108399190613fdb565b60405180910390f35b61084a6120c3565b60405161085791906141dd565b60405180910390f35b61087a6004803603810190610875919061367f565b6120c9565b60405161088791906141dd565b60405180910390f35b6108aa60048036038101906108a59190613933565b612138565b005b6108c660048036038101906108c19190613740565b61217c565b6040516108d39190613fdb565b60405180910390f35b6108f660048036038101906108f1919061376d565b61221c565b005b610912600480360381019061090d91906136c8565b612248565b60405161091f91906141dd565b60405180910390f35b610942600480360381019061093d9190613420565b6122bb565b60405161094f9190613fc0565b60405180910390f35b610972600480360381019061096d9190613740565b61234f565b60405161097f9190613f7c565b60405180910390f35b6109a2600480360381019061099d91906139a2565b6124ff565b005b6109ac61253b565b6040516109b991906141dd565b60405180910390f35b6109cb82612545565b610a0a576040517f08c379a0000000000000000000000000000000000000000000000000000000008152600401610a019061415d565b60405180910390fd5b80601360008481526020019081526020016000209080519060200190610a319291906130e9565b505050565b60007f80ac58cd000000000000000000000000000000000000000000000000000000007bffffffffffffffffffffffffffffffffffffffffffffffffffffffff1916827bffffffffffffffffffffffffffffffffffffffffffffffffffffffff19161480610b0157507f5b5e139f000000000000000000000000000000000000000000000000000000007bffffffffffffffffffffffffffffffffffffffffffffffffffffffff1916827bffffffffffffffffffffffffffffffffffffffffffffffffffffffff1916145b80610b115750610b10826125b1565b5b9050919050565b606060008054610b27906144f8565b80601f0160208091040260200160405190810160405280929190818152602001828054610b53906144f8565b8015610ba05780601f10610b7557610100808354040283529160200191610ba0565b820191906000526020600020905b815481529060010190602001808311610b8357829003601f168201915b5050505050905090565b6000610bb582612545565b610bf4576040517f08c379a0000000000000000000000000000000000000000000000000000000008152600401610beb9061413d565b60405180910390fd5b6004600083815260200190815260200160002060009054906101000a900473ffffffffffffffffffffffffffffffffffffffff169050919050565b6000610c3a8261175c565b90508073ffffffffffffffffffffffffffffffffffffffff168373ffffffffffffffffffffffffffffffffffffffff161415610cab576040517f08c379a0000000000000000000000000000000000000000000000000000000008152600401610ca29061419d565b60405180910390fd5b8073ffffffffffffffffffffffffffffffffffffffff16610cca61261b565b73ffffffffffffffffffffffffffffffffffffffff161480610cf95750610cf881610cf361261b565b6122bb565b5b610d38576040517f08c379a0000000000000000000000000000000000000000000000000000000008152600401610d2f906140bd565b60405180910390fd5b610d428383612623565b505050565b6000610dee82601360008881526020019081526020016000208054610d6b906144f8565b80601f0160208091040260200160405190810160405280929190818152602001828054610d97906144f8565b8015610de45780601f10610db957610100808354040283529160200191610de4565b820191906000526020600020905b815481529060010190602001808311610dc757829003601f168201915b5050505050611127565b905082601360008781526020019081526020016000209080519060200190610e179291906130e9565b50610e23818385611263565b610e30600c548686612138565b600c6000815480929190610e439061455b565b919050555060076000815480929190610e5b9061455b565b91905055505050505050565b600d5481565b80601760008481526020019081526020016000209080519060200190610e949291906130e9565b505050565b6000600654905090565b606060008060005b600854811015610f2157848051906020012060146000838152602001908152602001600020600060028110610ee357610ee2614662565b5b01604051610ef19190613edc565b60405180910390201415610f0e578280610f0a9061455b565b9350505b8080610f199061455b565b915050610eab565b5060008267ffffffffffffffff811115610f3e57610f3d614691565b5b604051908082528060200260200182016040528015610f7157816020015b6060815260200190600190039081610f5c5790505b50905060005b6008548110156110bb57858051906020012060146000838152602001908152602001600020600060028110610faf57610fae614662565b5b01604051610fbd9190613edc565b604051809103902014156110a85760146000828152602001908152602001600020600160028110610ff157610ff0614662565b5b018054610ffd906144f8565b80601f0160208091040260200160405190810160405280929190818152602001828054611029906144f8565b80156110765780601f1061104b57610100808354040283529160200191611076565b820191906000526020600020905b81548152906001019060200180831161105957829003601f168201915b505050505082848151811061108e5761108d614662565b5b602002602001018190525082806110a49061455b565b9350505b80806110b39061455b565b915050610f77565b50809350505050919050565b6110d86110d261261b565b826126dc565b611117576040517f08c379a000000000000000000000000000000000000000000000000000000000815260040161110e906141bd565b60405180910390fd5b6111228383836127ba565b505050565b600080600090505b600b548110156111f45761114284612a21565b80519060200120600e600083815260200190815260200160002060006002811061116f5761116e614662565b5b0160405161117d9190613edc565b60405180910390201480156111d357508280519060200120600e60008381526020019081526020016000206001600281106111bb576111ba614662565b5b016040516111c99190613edc565b6040518091039020145b156111e157809150506111fa565b80806111ec9061455b565b91505061112f565b50600090505b92915050565b600061120e84600654612b82565b61121a600654846109c2565b611227600b548385611263565b6006600081548092919061123a9061455b565b9190505550600b60008154809291906112529061455b565b919050555060065490509392505050565b604051806040016040528061127784612a21565b815260200182815250600e60008581526020019081526020016000209060026112a192919061316f565b50505050565b6112c283838360405180602001604052806000815250611f74565b505050565b60606012600083815260200190815260200160002080546112e7906144f8565b80601f0160208091040260200160405190810160405280929190818152602001828054611313906144f8565b80156113605780601f1061133557610100808354040283529160200191611360565b820191906000526020600020905b81548152906001019060200180831161134357829003601f168201915b50505050509050919050565b606060176000838152602001908152602001600020805461138c906144f8565b80601f01602080910402602001604051908101604052809291908181526020018280546113b8906144f8565b80156114055780601f106113da57610100808354040283529160200191611405565b820191906000526020600020905b8154815290600101906020018083116113e857829003601f168201915b50505050509050919050565b6000611420600a5484846124ff565b600a60008154809291906114339061455b565b9190505550600a54905092915050565b60606000600a67ffffffffffffffff81111561146257611461614691565b5b60405190808252806020026020018201604052801561149557816020015b60608152602001906001900390816114805790505b5090506000805b600c548110156115e8576114af85612a21565b80519060200120601060008381526020019081526020016000206000600281106114dc576114db614662565b5b016040516114ea9190613edc565b604051809103902014156115d5576010600082815260200190815260200160002060016002811061151e5761151d614662565b5b01805461152a906144f8565b80601f0160208091040260200160405190810160405280929190818152602001828054611556906144f8565b80156115a35780601f10611578576101008083540402835291602001916115a3565b820191906000526020600020905b81548152906001019060200180831161158657829003601f168201915b50505050508383815181106115bb576115ba614662565b5b602002602001018190525081806115d19061455b565b9250505b80806115e09061455b565b91505061149c565b508192505050919050565b600061160160095483611989565b600960008154809291906116149061455b565b91905055506009549050919050565b60166020528060005260406000206000915090508054611642906144f8565b80601f016020809104026020016040519081016040528092919081815260200182805461166e906144f8565b80156116bb5780601f10611690576101008083540402835291602001916116bb565b820191906000526020600020905b81548152906001019060200180831161169e57829003601f168201915b505050505081565b604051806040016040528083815260200182815250601460008581526020019081526020016000209060026116f992919061316f565b506040518060400160405280600181526020017f30000000000000000000000000000000000000000000000000000000000000008152506017600085815260200190815260200160002090805190602001906117569291906130e9565b50505050565b6000806002600084815260200190815260200160002060009054906101000a900473ffffffffffffffffffffffffffffffffffffffff169050600073ffffffffffffffffffffffffffffffffffffffff168173ffffffffffffffffffffffffffffffffffffffff161415611805576040517f08c379a00000000000000000000000000000000000000000000000000000000081526004016117fc906140fd565b60405180910390fd5b80915050919050565b60008073ffffffffffffffffffffffffffffffffffffffff168273ffffffffffffffffffffffffffffffffffffffff16141561187f576040517f08c379a0000000000000000000000000000000000000000000000000000000008152600401611876906140dd565b60405180910390fd5b600360008373ffffffffffffffffffffffffffffffffffffffff1673ffffffffffffffffffffffffffffffffffffffff168152602001908152602001600020549050919050565b6060601160008381526020019081526020016000206000600281106118ee576118ed614662565b5b0180546118fa906144f8565b80601f0160208091040260200160405190810160405280929190818152602001828054611926906144f8565b80156119735780601f1061194857610100808354040283529160200191611973565b820191906000526020600020905b81548152906001019060200180831161195657829003601f168201915b50505050509050919050565b6000600854905090565b806015600084815260200190815260200160002090805190602001906119b09291906130e9565b505050565b600080600090505b600654811015611a19578280519060200120601360008381526020019081526020016000206040516119ef9190613edc565b60405180910390201415611a065780915050611a1f565b8080611a119061455b565b9150506119bd565b50600090505b919050565b606060018054611a33906144f8565b80601f0160208091040260200160405190810160405280929190818152602001828054611a5f906144f8565b8015611aac5780601f10611a8157610100808354040283529160200191611aac565b820191906000526020600020905b815481529060010190602001808311611a8f57829003601f168201915b5050505050905090565b606060008060005b600a54811015611b195784600f6000838152602001908152602001600020600060028110611aef57611aee614662565b5b01541415611b06578280611b029061455b565b9350505b8080611b119061455b565b915050611abe565b5060008267ffffffffffffffff811115611b3657611b35614691565b5b604051908082528060200260200182016040528015611b645781602001602082028036833780820191505090505b50905060005b600a54811015611c0c5785600f6000838152602001908152602001600020600060028110611b9b57611b9a614662565b5b01541415611bf957600f6000828152602001908152602001600020600160028110611bc957611bc8614662565b5b0154828481518110611bde57611bdd614662565b5b6020026020010181815250508280611bf59061455b565b9350505b8080611c049061455b565b915050611b6a565b50809350505050919050565b611c206131c2565b60146000838152602001908152602001600020600280602002604051908101604052809291906000905b82821015611ced578382018054611c60906144f8565b80601f0160208091040260200160405190810160405280929190818152602001828054611c8c906144f8565b8015611cd95780601f10611cae57610100808354040283529160200191611cd9565b820191906000526020600020905b815481529060010190602001808311611cbc57829003601f168201915b505050505081526020019060010190611c4a565b505050509050919050565b611d0a611d0361261b565b8383612d5c565b5050565b60095481565b60606000600a67ffffffffffffffff811115611d3357611d32614691565b5b604051908082528060200260200182016040528015611d6657816020015b6060815260200190600190039081611d515790505b5090506000805b600c54811015611eb957611d8085612a21565b8051906020012060106000838152602001908152602001600020600060028110611dad57611dac614662565b5b01604051611dbb9190613edc565b60405180910390201415611ea65760106000828152602001908152602001600020600160028110611def57611dee614662565b5b018054611dfb906144f8565b80601f0160208091040260200160405190810160405280929190818152602001828054611e27906144f8565b8015611e745780601f10611e4957610100808354040283529160200191611e74565b820191906000526020600020905b815481529060010190602001808311611e5757829003601f168201915b5050505050838381518110611e8c57611e8b614662565b5b60200260200101819052508180611ea29061455b565b9250505b8080611eb19061455b565b915050611d6d565b508192505050919050565b60116020528160005260406000208160028110611ee057600080fd5b01600091509150508054611ef3906144f8565b80601f0160208091040260200160405190810160405280929190818152602001828054611f1f906144f8565b8015611f6c5780601f10611f4157610100808354040283529160200191611f6c565b820191906000526020600020905b815481529060010190602001808311611f4f57829003601f168201915b505050505081565b611f85611f7f61261b565b836126dc565b611fc4576040517f08c379a0000000000000000000000000000000000000000000000000000000008152600401611fbb906141bd565b60405180910390fd5b611fd084848484612ec9565b50505050565b6060611fe182612545565b612020576040517f08c379a00000000000000000000000000000000000000000000000000000000081526004016120179061417d565b60405180910390fd5b60136000838152602001908152602001600020805461203e906144f8565b80601f016020809104026020016040519081016040528092919081815260200182805461206a906144f8565b80156120b75780601f1061208c576101008083540402835291602001916120b7565b820191906000526020600020905b81548152906001019060200180831161209a57829003601f168201915b50505050509050919050565b600a5481565b600080600090505b60075481101561212d578280519060200120601260008381526020019081526020016000206040516121039190613edc565b6040518091039020141561211a5780915050612133565b80806121259061455b565b9150506120d1565b50600090505b919050565b604051806040016040528061214c84612a21565b8152602001828152506010600085815260200190815260200160002090600261217692919061316f565b50505050565b6015602052806000526040600020600091509050805461219b906144f8565b80601f01602080910402602001604051908101604052809291908181526020018280546121c7906144f8565b80156122145780601f106121e957610100808354040283529160200191612214565b820191906000526020600020905b8154815290600101906020018083116121f757829003601f168201915b505050505081565b806012600084815260200190815260200160002090805190602001906122439291906130e9565b505050565b600061225760085484846116c3565b6122986008546040518060400160405280600181526020017f3000000000000000000000000000000000000000000000000000000000000000815250610e6d565b600860008154809291906122ab9061455b565b9190505550600854905092915050565b6000600560008473ffffffffffffffffffffffffffffffffffffffff1673ffffffffffffffffffffffffffffffffffffffff16815260200190815260200160002060008373ffffffffffffffffffffffffffffffffffffffff1673ffffffffffffffffffffffffffffffffffffffff16815260200190815260200160002060009054906101000a900460ff16905092915050565b60606000600a67ffffffffffffffff81111561236e5761236d614691565b5b6040519080825280602002602001820160405280156123a157816020015b606081526020019060019003908161238c5790505b5090506000805b600b548110156124f4576123bb85612a21565b80519060200120600e60008381526020019081526020016000206000600281106123e8576123e7614662565b5b016040516123f69190613edc565b604051809103902014156124e157600e600082815260200190815260200160002060016002811061242a57612429614662565b5b018054612436906144f8565b80601f0160208091040260200160405190810160405280929190818152602001828054612462906144f8565b80156124af5780601f10612484576101008083540402835291602001916124af565b820191906000526020600020905b81548152906001019060200180831161249257829003601f168201915b50505050508383815181106124c7576124c6614662565b5b602002602001018190525081806124dd9061455b565b9250505b80806124ec9061455b565b9150506123a8565b508192505050919050565b604051806040016040528082815260200183815250600f60008581526020019081526020016000209060026125359291906131e9565b50505050565b6000600a54905090565b60008073ffffffffffffffffffffffffffffffffffffffff166002600084815260200190815260200160002060009054906101000a900473ffffffffffffffffffffffffffffffffffffffff1673ffffffffffffffffffffffffffffffffffffffff1614159050919050565b60007f01ffc9a7000000000000000000000000000000000000000000000000000000007bffffffffffffffffffffffffffffffffffffffffffffffffffffffff1916827bffffffffffffffffffffffffffffffffffffffffffffffffffffffff1916149050919050565b600033905090565b816004600083815260200190815260200160002060006101000a81548173ffffffffffffffffffffffffffffffffffffffff021916908373ffffffffffffffffffffffffffffffffffffffff160217905550808273ffffffffffffffffffffffffffffffffffffffff166126968361175c565b73ffffffffffffffffffffffffffffffffffffffff167f8c5be1e5ebec7d5bd14f71427d1e84f3dd0314c0f7b2291e5b200ac8c7c3b92560405160405180910390a45050565b60006126e782612545565b612726576040517f08c379a000000000000000000000000000000000000000000000000000000000815260040161271d9061409d565b60405180910390fd5b60006127318361175c565b90508073ffffffffffffffffffffffffffffffffffffffff168473ffffffffffffffffffffffffffffffffffffffff161480612773575061277281856122bb565b5b806127b157508373ffffffffffffffffffffffffffffffffffffffff1661279984610baa565b73ffffffffffffffffffffffffffffffffffffffff16145b91505092915050565b8273ffffffffffffffffffffffffffffffffffffffff166127da8261175c565b73ffffffffffffffffffffffffffffffffffffffff1614612830576040517f08c379a00000000000000000000000000000000000000000000000000000000081526004016128279061401d565b60405180910390fd5b600073ffffffffffffffffffffffffffffffffffffffff168273ffffffffffffffffffffffffffffffffffffffff1614156128a0576040517f08c379a00000000000000000000000000000000000000000000000000000000081526004016128979061405d565b60405180910390fd5b6128ab838383612f25565b6128b6600082612623565b6001600360008573ffffffffffffffffffffffffffffffffffffffff1673ffffffffffffffffffffffffffffffffffffffff1681526020019081526020016000206000828254612906919061440e565b925050819055506001600360008473ffffffffffffffffffffffffffffffffffffffff1673ffffffffffffffffffffffffffffffffffffffff168152602001908152602001600020600082825461295d9190614387565b92505081905550816002600083815260200190815260200160002060006101000a81548173ffffffffffffffffffffffffffffffffffffffff021916908373ffffffffffffffffffffffffffffffffffffffff160217905550808273ffffffffffffffffffffffffffffffffffffffff168473ffffffffffffffffffffffffffffffffffffffff167fddf252ad1be2c89b69c2b068fc378daa952ba7f163c4a11628f55a4df523b3ef60405160405180910390a4612a1c838383612f2a565b505050565b60606000821415612a69576040518060400160405280600181526020017f30000000000000000000000000000000000000000000000000000000000000008152509050612b7d565b600082905060005b60008214612a9b578080612a849061455b565b915050600a82612a9491906143dd565b9150612a71565b60008167ffffffffffffffff811115612ab757612ab6614691565b5b6040519080825280601f01601f191660200182016040528015612ae95781602001600182028036833780820191505090505b5090505b60008514612b7657600182612b02919061440e565b9150600a85612b1191906145a4565b6030612b1d9190614387565b60f81b818381518110612b3357612b32614662565b5b60200101907effffffffffffffffffffffffffffffffffffffffffffffffffffffffffffff1916908160001a905350600a85612b6f91906143dd565b9450612aed565b8093505050505b919050565b600073ffffffffffffffffffffffffffffffffffffffff168273ffffffffffffffffffffffffffffffffffffffff161415612bf2576040517f08c379a0000000000000000000000000000000000000000000000000000000008152600401612be99061411d565b60405180910390fd5b612bfb81612545565b15612c3b576040517f08c379a0000000000000000000000000000000000000000000000000000000008152600401612c329061403d565b60405180910390fd5b612c4760008383612f25565b6001600360008473ffffffffffffffffffffffffffffffffffffffff1673ffffffffffffffffffffffffffffffffffffffff1681526020019081526020016000206000828254612c979190614387565b92505081905550816002600083815260200190815260200160002060006101000a81548173ffffffffffffffffffffffffffffffffffffffff021916908373ffffffffffffffffffffffffffffffffffffffff160217905550808273ffffffffffffffffffffffffffffffffffffffff16600073ffffffffffffffffffffffffffffffffffffffff167fddf252ad1be2c89b69c2b068fc378daa952ba7f163c4a11628f55a4df523b3ef60405160405180910390a4612d5860008383612f2a565b5050565b8173ffffffffffffffffffffffffffffffffffffffff168373ffffffffffffffffffffffffffffffffffffffff161415612dcb576040517f08c379a0000000000000000000000000000000000000000000000000000000008152600401612dc29061407d565b60405180910390fd5b80600560008573ffffffffffffffffffffffffffffffffffffffff1673ffffffffffffffffffffffffffffffffffffffff16815260200190815260200160002060008473ffffffffffffffffffffffffffffffffffffffff1673ffffffffffffffffffffffffffffffffffffffff16815260200190815260200160002060006101000a81548160ff0219169083151502179055508173ffffffffffffffffffffffffffffffffffffffff168373ffffffffffffffffffffffffffffffffffffffff167f17307eab39ab6107e8899845ad3d59bd9653f200f220920489ca2b5937696c3183604051612ebc9190613fc0565b60405180910390a3505050565b612ed48484846127ba565b612ee084848484612f2f565b612f1f576040517f08c379a0000000000000000000000000000000000000000000000000000000008152600401612f1690613ffd565b60405180910390fd5b50505050565b505050565b505050565b6000612f508473ffffffffffffffffffffffffffffffffffffffff166130c6565b156130b9578373ffffffffffffffffffffffffffffffffffffffff1663150b7a02612f7961261b565b8786866040518563ffffffff1660e01b8152600401612f9b9493929190613f0e565b602060405180830381600087803b158015612fb557600080fd5b505af1925050508015612fe657506040513d601f19601f82011682018060405250810190612fe39190613652565b60015b613069573d8060008114613016576040519150601f19603f3d011682016040523d82523d6000602084013e61301b565b606091505b50600081511415613061576040517f08c379a000000000000000000000000000000000000000000000000000000000815260040161305890613ffd565b60405180910390fd5b805181602001fd5b63150b7a0260e01b7bffffffffffffffffffffffffffffffffffffffffffffffffffffffff1916817bffffffffffffffffffffffffffffffffffffffffffffffffffffffff1916149150506130be565b600190505b949350505050565b6000808273ffffffffffffffffffffffffffffffffffffffff163b119050919050565b8280546130f5906144f8565b90600052602060002090601f016020900481019282613117576000855561315e565b82601f1061313057805160ff191683800117855561315e565b8280016001018555821561315e579182015b8281111561315d578251825591602001919060010190613142565b5b50905061316b9190613229565b5090565b82600281019282156131b1579160200282015b828111156131b05782518290805190602001906131a09291906130e9565b5091602001919060010190613182565b5b5090506131be9190613246565b5090565b60405180604001604052806002905b60608152602001906001900390816131d15790505090565b8260028101928215613218579160200282015b828111156132175782518255916020019190600101906131fc565b5b5090506132259190613229565b5090565b5b8082111561324257600081600090555060010161322a565b5090565b5b80821115613266576000818161325d919061326a565b50600101613247565b5090565b508054613276906144f8565b6000825580601f1061328857506132a7565b601f0160209004906000526020600020908101906132a69190613229565b5b50565b60006132bd6132b88461421d565b6141f8565b9050828152602081018484840111156132d9576132d86146c5565b5b6132e48482856144b6565b509392505050565b60006132ff6132fa8461424e565b6141f8565b90508281526020810184848401111561331b5761331a6146c5565b5b6133268482856144b6565b509392505050565b60008135905061333d81614b14565b92915050565b60008135905061335281614b2b565b92915050565b60008135905061336781614b42565b92915050565b60008151905061337c81614b42565b92915050565b600082601f830112613397576133966146c0565b5b81356133a78482602086016132aa565b91505092915050565b600082601f8301126133c5576133c46146c0565b5b81356133d58482602086016132ec565b91505092915050565b6000813590506133ed81614b59565b92915050565b600060208284031215613409576134086146cf565b5b60006134178482850161332e565b91505092915050565b60008060408385031215613437576134366146cf565b5b60006134458582860161332e565b92505060206134568582860161332e565b9150509250929050565b600080600060608486031215613479576134786146cf565b5b60006134878682870161332e565b93505060206134988682870161332e565b92505060406134a9868287016133de565b9150509250925092565b600080600080608085870312156134cd576134cc6146cf565b5b60006134db8782880161332e565b94505060206134ec8782880161332e565b93505060406134fd878288016133de565b925050606085013567ffffffffffffffff81111561351e5761351d6146ca565b5b61352a87828801613382565b91505092959194509250565b6000806040838503121561354d5761354c6146cf565b5b600061355b8582860161332e565b925050602061356c85828601613343565b9150509250929050565b60008060006060848603121561358f5761358e6146cf565b5b600061359d8682870161332e565b935050602084013567ffffffffffffffff8111156135be576135bd6146ca565b5b6135ca868287016133b0565b92505060406135db868287016133de565b9150509250925092565b600080604083850312156135fc576135fb6146cf565b5b600061360a8582860161332e565b925050602061361b858286016133de565b9150509250929050565b60006020828403121561363b5761363a6146cf565b5b600061364984828501613358565b91505092915050565b600060208284031215613668576136676146cf565b5b60006136768482850161336d565b91505092915050565b600060208284031215613695576136946146cf565b5b600082013567ffffffffffffffff8111156136b3576136b26146ca565b5b6136bf848285016133b0565b91505092915050565b600080604083850312156136df576136de6146cf565b5b600083013567ffffffffffffffff8111156136fd576136fc6146ca565b5b613709858286016133b0565b925050602083013567ffffffffffffffff81111561372a576137296146ca565b5b613736858286016133b0565b9150509250929050565b600060208284031215613756576137556146cf565b5b6000613764848285016133de565b91505092915050565b60008060408385031215613784576137836146cf565b5b6000613792858286016133de565b925050602083013567ffffffffffffffff8111156137b3576137b26146ca565b5b6137bf858286016133b0565b9150509250929050565b6000806000606084860312156137e2576137e16146cf565b5b60006137f0868287016133de565b935050602084013567ffffffffffffffff811115613811576138106146ca565b5b61381d868287016133b0565b925050604084013567ffffffffffffffff81111561383e5761383d6146ca565b5b61384a868287016133b0565b9150509250925092565b6000806000806080858703121561386e5761386d6146cf565b5b600061387c878288016133de565b945050602085013567ffffffffffffffff81111561389d5761389c6146ca565b5b6138a9878288016133b0565b935050604085013567ffffffffffffffff8111156138ca576138c96146ca565b5b6138d6878288016133b0565b92505060606138e7878288016133de565b91505092959194509250565b6000806040838503121561390a576139096146cf565b5b6000613918858286016133de565b9250506020613929858286016133de565b9150509250929050565b60008060006060848603121561394c5761394b6146cf565b5b600061395a868287016133de565b935050602061396b868287016133de565b925050604084013567ffffffffffffffff81111561398c5761398b6146ca565b5b613998868287016133b0565b9150509250925092565b6000806000606084860312156139bb576139ba6146cf565b5b60006139c9868287016133de565b93505060206139da868287016133de565b92505060406139eb868287016133de565b9150509250925092565b6000613a018383613c3f565b905092915050565b6000613a158383613ebe565b60208301905092915050565b613a2a81614442565b82525050565b6000613a3b826142be565b613a45818561431c565b935083602082028501613a578561427f565b8060005b85811015613a935784840389528151613a7485826139f5565b9450613a7f836142f5565b925060208a01995050600181019050613a5b565b50829750879550505050505092915050565b6000613ab0826142c9565b613aba8185614327565b935083602082028501613acc85614289565b8060005b85811015613b085784840389528151613ae985826139f5565b9450613af483614302565b925060208a01995050600181019050613ad0565b50829750879550505050505092915050565b6000613b25826142d4565b613b2f8185614338565b9350613b3a83614299565b8060005b83811015613b6b578151613b528882613a09565b9750613b5d8361430f565b925050600181019050613b3e565b5085935050505092915050565b613b8181614454565b82525050565b6000613b92826142df565b613b9c8185614349565b9350613bac8185602086016144c5565b613bb5816146d4565b840191505092915050565b60008154613bcd816144f8565b613bd7818661435a565b94506001821660008114613bf25760018114613c0357613c36565b60ff19831686528186019350613c36565b613c0c856142a9565b60005b83811015613c2e57815481890152600182019150602081019050613c0f565b838801955050505b50505092915050565b6000613c4a826142ea565b613c548185614365565b9350613c648185602086016144c5565b613c6d816146d4565b840191505092915050565b6000613c83826142ea565b613c8d8185614376565b9350613c9d8185602086016144c5565b613ca6816146d4565b840191505092915050565b6000613cbe603283614376565b9150613cc9826146e5565b604082019050919050565b6000613ce1602583614376565b9150613cec82614734565b604082019050919050565b6000613d04601c83614376565b9150613d0f82614783565b602082019050919050565b6000613d27602483614376565b9150613d32826147ac565b604082019050919050565b6000613d4a601983614376565b9150613d55826147fb565b602082019050919050565b6000613d6d602c83614376565b9150613d7882614824565b604082019050919050565b6000613d90603883614376565b9150613d9b82614873565b604082019050919050565b6000613db3602a83614376565b9150613dbe826148c2565b604082019050919050565b6000613dd6602983614376565b9150613de182614911565b604082019050919050565b6000613df9602083614376565b9150613e0482614960565b602082019050919050565b6000613e1c602c83614376565b9150613e2782614989565b604082019050919050565b6000613e3f602c83614376565b9150613e4a826149d8565b604082019050919050565b6000613e62602f83614376565b9150613e6d82614a27565b604082019050919050565b6000613e85602183614376565b9150613e9082614a76565b604082019050919050565b6000613ea8603183614376565b9150613eb382614ac5565b604082019050919050565b613ec7816144ac565b82525050565b613ed6816144ac565b82525050565b6000613ee88284613bc0565b915081905092915050565b6000602082019050613f086000830184613a21565b92915050565b6000608082019050613f236000830187613a21565b613f306020830186613a21565b613f3d6040830185613ecd565b8181036060830152613f4f8184613b87565b905095945050505050565b60006020820190508181036000830152613f748184613a30565b905092915050565b60006020820190508181036000830152613f968184613aa5565b905092915050565b60006020820190508181036000830152613fb88184613b1a565b905092915050565b6000602082019050613fd56000830184613b78565b92915050565b60006020820190508181036000830152613ff58184613c78565b905092915050565b6000602082019050818103600083015261401681613cb1565b9050919050565b6000602082019050818103600083015261403681613cd4565b9050919050565b6000602082019050818103600083015261405681613cf7565b9050919050565b6000602082019050818103600083015261407681613d1a565b9050919050565b6000602082019050818103600083015261409681613d3d565b9050919050565b600060208201905081810360008301526140b681613d60565b9050919050565b600060208201905081810360008301526140d681613d83565b9050919050565b600060208201905081810360008301526140f681613da6565b9050919050565b6000602082019050818103600083015261411681613dc9565b9050919050565b6000602082019050818103600083015261413681613dec565b9050919050565b6000602082019050818103600083015261415681613e0f565b9050919050565b6000602082019050818103600083015261417681613e32565b9050919050565b6000602082019050818103600083015261419681613e55565b9050919050565b600060208201905081810360008301526141b681613e78565b9050919050565b600060208201905081810360008301526141d681613e9b565b9050919050565b60006020820190506141f26000830184613ecd565b92915050565b6000614202614213565b905061420e828261452a565b919050565b6000604051905090565b600067ffffffffffffffff82111561423857614237614691565b5b614241826146d4565b9050602081019050919050565b600067ffffffffffffffff82111561426957614268614691565b5b614272826146d4565b9050602081019050919050565b6000819050919050565b6000819050602082019050919050565b6000819050602082019050919050565b60008190508160005260206000209050919050565b600060029050919050565b600081519050919050565b600081519050919050565b600081519050919050565b600081519050919050565b6000602082019050919050565b6000602082019050919050565b6000602082019050919050565b600081905092915050565b600082825260208201905092915050565b600082825260208201905092915050565b600082825260208201905092915050565b600081905092915050565b600082825260208201905092915050565b600082825260208201905092915050565b6000614392826144ac565b915061439d836144ac565b9250827fffffffffffffffffffffffffffffffffffffffffffffffffffffffffffffffff038211156143d2576143d16145d5565b5b828201905092915050565b60006143e8826144ac565b91506143f3836144ac565b92508261440357614402614604565b5b828204905092915050565b6000614419826144ac565b9150614424836144ac565b925082821015614437576144366145d5565b5b828203905092915050565b600061444d8261448c565b9050919050565b60008115159050919050565b60007fffffffff0000000000000000000000000000000000000000000000000000000082169050919050565b600073ffffffffffffffffffffffffffffffffffffffff82169050919050565b6000819050919050565b82818337600083830152505050565b60005b838110156144e35780820151818401526020810190506144c8565b838111156144f2576000848401525b50505050565b6000600282049050600182168061451057607f821691505b6020821081141561452457614523614633565b5b50919050565b614533826146d4565b810181811067ffffffffffffffff8211171561455257614551614691565b5b80604052505050565b6000614566826144ac565b91507fffffffffffffffffffffffffffffffffffffffffffffffffffffffffffffffff821415614599576145986145d5565b5b600182019050919050565b60006145af826144ac565b91506145ba836144ac565b9250826145ca576145c9614604565b5b828206905092915050565b7f4e487b7100000000000000000000000000000000000000000000000000000000600052601160045260246000fd5b7f4e487b7100000000000000000000000000000000000000000000000000000000600052601260045260246000fd5b7f4e487b7100000000000000000000000000000000000000000000000000000000600052602260045260246000fd5b7f4e487b7100000000000000000000000000000000000000000000000000000000600052603260045260246000fd5b7f4e487b7100000000000000000000000000000000000000000000000000000000600052604160045260246000fd5b600080fd5b600080fd5b600080fd5b600080fd5b6000601f19601f8301169050919050565b7f4552433732313a207472616e7366657220746f206e6f6e20455243373231526560008201527f63656976657220696d706c656d656e7465720000000000000000000000000000602082015250565b7f4552433732313a207472616e736665722066726f6d20696e636f72726563742060008201527f6f776e6572000000000000000000000000000000000000000000000000000000602082015250565b7f4552433732313a20746f6b656e20616c7265616479206d696e74656400000000600082015250565b7f4552433732313a207472616e7366657220746f20746865207a65726f2061646460008201527f7265737300000000000000000000000000000000000000000000000000000000602082015250565b7f4552433732313a20617070726f766520746f2063616c6c657200000000000000600082015250565b7f4552433732313a206f70657261746f7220717565727920666f72206e6f6e657860008201527f697374656e7420746f6b656e0000000000000000000000000000000000000000602082015250565b7f4552433732313a20617070726f76652063616c6c6572206973206e6f74206f7760008201527f6e6572206e6f7220617070726f76656420666f7220616c6c0000000000000000602082015250565b7f4552433732313a2062616c616e636520717565727920666f7220746865207a6560008201527f726f206164647265737300000000000000000000000000000000000000000000602082015250565b7f4552433732313a206f776e657220717565727920666f72206e6f6e657869737460008201527f656e7420746f6b656e0000000000000000000000000000000000000000000000602082015250565b7f4552433732313a206d696e7420746f20746865207a65726f2061646472657373600082015250565b7f4552433732313a20617070726f76656420717565727920666f72206e6f6e657860008201527f697374656e7420746f6b656e0000000000000000000000000000000000000000602082015250565b7f4552433732314d657461646174613a2055524920736574206f66206e6f6e657860008201527f697374656e7420746f6b656e0000000000000000000000000000000000000000602082015250565b7f4552433732314d657461646174613a2055524920717565727920666f72206e6f60008201527f6e6578697374656e7420746f6b656e0000000000000000000000000000000000602082015250565b7f4552433732313a20617070726f76616c20746f2063757272656e74206f776e6560008201527f7200000000000000000000000000000000000000000000000000000000000000602082015250565b7f4552433732313a207472616e736665722063616c6c6572206973206e6f74206f60008201527f776e6572206e6f7220617070726f766564000000000000000000000000000000602082015250565b614b1d81614442565b8114614b2857600080fd5b50565b614b3481614454565b8114614b3f57600080fd5b50565b614b4b81614460565b8114614b5657600080fd5b50565b614b62816144ac565b8114614b6d57600080fd5b5056fea2646970667358221220a25e24cd4c59f151f87921ffac1b0b9c2841a0ac016963d97fac8ec5677f29ad64736f6c63430008060033",
  "linkReferences": {},
  "deployedLinkReferences": {}
}