{
  "address": "0x45138bDaF59e4bAdd29d33519D31FAA49E9827e0",
  "abi": [
    {
      "inputs": [
        {
          "internalType": "string",
          "name": "name",
          "type": "string"
        },
        {
          "internalType": "string",
          "name": "symbol",
          "type": "string"
        }
      ],
      "stateMutability": "nonpayable",
      "type": "constructor"
    },
    {
      "anonymous": false,
      "inputs": [
        {
          "indexed": true,
          "internalType": "address",
          "name": "owner",
          "type": "address"
        },
        {
          "indexed": true,
          "internalType": "address",
          "name": "approved",
          "type": "address"
        },
        {
          "indexed": true,
          "internalType": "uint256",
          "name": "tokenId",
          "type": "uint256"
        }
      ],
      "name": "Approval",
      "type": "event"
    },
    {
      "anonymous": false,
      "inputs": [
        {
          "indexed": true,
          "internalType": "address",
          "name": "owner",
          "type": "address"
        },
        {
          "indexed": true,
          "internalType": "address",
          "name": "operator",
          "type": "address"
        },
        {
          "indexed": false,
          "internalType": "bool",
          "name": "approved",
          "type": "bool"
        }
      ],
      "name": "ApprovalForAll",
      "type": "event"
    },
    {
      "anonymous": false,
      "inputs": [
        {
          "indexed": true,
          "internalType": "address",
          "name": "from",
          "type": "address"
        },
        {
          "indexed": true,
          "internalType": "address",
          "name": "to",
          "type": "address"
        },
        {
          "indexed": true,
          "internalType": "uint256",
          "name": "tokenId",
          "type": "uint256"
        }
      ],
      "name": "Transfer",
      "type": "event"
    },
    {
      "inputs": [
        {
          "internalType": "uint256",
          "name": "BidId",
          "type": "uint256"
        }
      ],
      "name": "BidURI",
      "outputs": [
        {
          "internalType": "string",
          "name": "",
          "type": "string"
        }
      ],
      "stateMutability": "view",
      "type": "function"
    },
    {
      "inputs": [
        {
          "internalType": "uint256",
          "name": "ProjectId",
          "type": "uint256"
        },
        {
          "internalType": "uint256",
          "name": "GranttId",
          "type": "uint256"
        }
      ],
      "name": "CreateGrantProject",
      "outputs": [
        {
          "internalType": "uint256",
          "name": "",
          "type": "uint256"
        }
      ],
      "stateMutability": "nonpayable",
      "type": "function"
    },
    {
      "inputs": [],
      "name": "_EventTokenSearchIds",
      "outputs": [
        {
          "internalType": "uint256",
          "name": "",
          "type": "uint256"
        }
      ],
      "stateMutability": "view",
      "type": "function"
    },
    {
      "inputs": [],
      "name": "_GrantEventIds",
      "outputs": [
        {
          "internalType": "uint256",
          "name": "",
          "type": "uint256"
        }
      ],
      "stateMutability": "view",
      "type": "function"
    },
    {
      "inputs": [
        {
          "internalType": "uint256",
          "name": "",
          "type": "uint256"
        }
      ],
      "name": "_GrantEventURIs",
      "outputs": [
        {
          "internalType": "string",
          "name": "",
          "type": "string"
        }
      ],
      "stateMutability": "view",
      "type": "function"
    },
    {
      "inputs": [],
      "name": "_GrantProjectIds",
      "outputs": [
        {
          "internalType": "uint256",
          "name": "",
          "type": "uint256"
        }
      ],
      "stateMutability": "view",
      "type": "function"
    },
    {
      "inputs": [],
      "name": "_GrantVoteIds",
      "outputs": [
        {
          "internalType": "uint256",
          "name": "",
          "type": "uint256"
        }
      ],
      "stateMutability": "view",
      "type": "function"
    },
    {
      "inputs": [
        {
          "internalType": "uint256",
          "name": "",
          "type": "uint256"
        }
      ],
      "name": "_JudgerURIs",
      "outputs": [
        {
          "internalType": "string",
          "name": "",
          "type": "string"
        }
      ],
      "stateMutability": "view",
      "type": "function"
    },
    {
      "inputs": [
        {
          "internalType": "uint256",
          "name": "",
          "type": "uint256"
        },
        {
          "internalType": "uint256",
          "name": "",
          "type": "uint256"
        }
      ],
      "name": "_SearchedStore",
      "outputs": [
        {
          "internalType": "string",
          "name": "",
          "type": "string"
        }
      ],
      "stateMutability": "view",
      "type": "function"
    },
    {
      "inputs": [
        {
          "internalType": "uint256",
          "name": "_tokenId",
          "type": "uint256"
        }
      ],
      "name": "_getSearchedTokenURI",
      "outputs": [
        {
          "internalType": "string",
          "name": "",
          "type": "string"
        }
      ],
      "stateMutability": "view",
      "type": "function"
    },
    {
      "inputs": [
        {
          "internalType": "uint256",
          "name": "bidId",
          "type": "uint256"
        },
        {
          "internalType": "string",
          "name": "_bidURI",
          "type": "string"
        }
      ],
      "name": "_setBidURI",
      "outputs": [],
      "stateMutability": "nonpayable",
      "type": "function"
    },
    {
      "inputs": [
        {
          "internalType": "uint256",
          "name": "_eventId",
          "type": "uint256"
        },
        {
          "internalType": "string",
          "name": "_raised",
          "type": "string"
        }
      ],
      "name": "_setEventRaised",
      "outputs": [],
      "stateMutability": "nonpayable",
      "type": "function"
    },
    {
      "inputs": [
        {
          "internalType": "uint256",
          "name": "eventId",
          "type": "uint256"
        },
        {
          "internalType": "string",
          "name": "_eventWallet",
          "type": "string"
        },
        {
          "internalType": "string",
          "name": "_eventURI",
          "type": "string"
        }
      ],
      "name": "_setEventURI",
      "outputs": [],
      "stateMutability": "nonpayable",
      "type": "function"
    },
    {
      "inputs": [
        {
          "internalType": "uint256",
          "name": "eventId",
          "type": "uint256"
        },
        {
          "internalType": "string",
          "name": "_eventURI",
          "type": "string"
        }
      ],
      "name": "_setGrantEventURI",
      "outputs": [],
      "stateMutability": "nonpayable",
      "type": "function"
    },
    {
      "inputs": [
        {
          "internalType": "uint256",
          "name": "TokenBidId",
          "type": "uint256"
        },
        {
          "internalType": "uint256",
          "name": "TokenId",
          "type": "uint256"
        },
        {
          "internalType": "string",
          "name": "_BidURI",
          "type": "string"
        }
      ],
      "name": "_setTokenBid",
      "outputs": [],
      "stateMutability": "nonpayable",
      "type": "function"
    },
    {
      "inputs": [
        {
          "internalType": "uint256",
          "name": "EventTokenId",
          "type": "uint256"
        },
        {
          "internalType": "uint256",
          "name": "EventId",
          "type": "uint256"
        },
        {
          "internalType": "string",
          "name": "_tokenURI",
          "type": "string"
        }
      ],
      "name": "_setTokenEvent",
      "outputs": [],
      "stateMutability": "nonpayable",
      "type": "function"
    },
    {
      "inputs": [
        {
          "internalType": "uint256",
          "name": "tokenId",
          "type": "uint256"
        },
        {
          "internalType": "string",
          "name": "_tokenURI",
          "type": "string"
        }
      ],
      "name": "_setTokenURI",
      "outputs": [],
      "stateMutability": "nonpayable",
      "type": "function"
    },
    {
      "inputs": [
        {
          "internalType": "address",
          "name": "to",
          "type": "address"
        },
        {
          "internalType": "uint256",
          "name": "tokenId",
          "type": "uint256"
        }
      ],
      "name": "approve",
      "outputs": [],
      "stateMutability": "nonpayable",
      "type": "function"
    },
    {
      "inputs": [
        {
          "internalType": "address",
          "name": "owner",
          "type": "address"
        }
      ],
      "name": "balanceOf",
      "outputs": [
        {
          "internalType": "uint256",
          "name": "",
          "type": "uint256"
        }
      ],
      "stateMutability": "view",
      "type": "function"
    },
    {
      "inputs": [
        {
          "internalType": "address",
          "name": "_claimer",
          "type": "address"
        },
        {
          "internalType": "string",
          "name": "_tokenURI",
          "type": "string"
        },
        {
          "internalType": "uint256",
          "name": "_eventid",
          "type": "uint256"
        }
      ],
      "name": "claimToken",
      "outputs": [
        {
          "internalType": "uint256",
          "name": "",
          "type": "uint256"
        }
      ],
      "stateMutability": "nonpayable",
      "type": "function"
    },
    {
      "inputs": [
        {
          "internalType": "uint256",
          "name": "_tokenId",
          "type": "uint256"
        },
        {
          "internalType": "string",
          "name": "_bidURI",
          "type": "string"
        },
        {
          "internalType": "string",
          "name": "_updatedURI",
          "type": "string"
        },
        {
          "internalType": "uint256",
          "name": "_eventid",
          "type": "uint256"
        },
        {
          "internalType": "uint256",
          "name": "_raised",
          "type": "uint256"
        }
      ],
      "name": "createBid",
      "outputs": [],
      "stateMutability": "nonpayable",
      "type": "function"
    },
    {
      "inputs": [
        {
          "internalType": "string",
          "name": "_eventWallet",
          "type": "string"
        },
        {
          "internalType": "string",
          "name": "_eventURI",
          "type": "string"
        }
      ],
      "name": "createEvent",
      "outputs": [
        {
          "internalType": "uint256",
          "name": "",
          "type": "uint256"
        }
      ],
      "stateMutability": "nonpayable",
      "type": "function"
    },
    {
      "inputs": [
        {
          "internalType": "string",
          "name": "_eventURI",
          "type": "string"
        }
      ],
      "name": "createGrantEvent",
      "outputs": [
        {
          "internalType": "uint256",
          "name": "",
          "type": "uint256"
        }
      ],
      "stateMutability": "nonpayable",
      "type": "function"
    },
    {
      "inputs": [
        {
          "internalType": "string",
          "name": "Wallet",
          "type": "string"
        },
        {
          "internalType": "uint256",
          "name": "ProjectId",
          "type": "uint256"
        },
        {
          "internalType": "uint256",
          "name": "GranttId",
          "type": "uint256"
        }
      ],
      "name": "createGrantVote",
      "outputs": [
        {
          "internalType": "uint256",
          "name": "",
          "type": "uint256"
        }
      ],
      "stateMutability": "nonpayable",
      "type": "function"
    },
    {
      "inputs": [
        {
          "internalType": "uint256",
          "name": "eventId",
          "type": "uint256"
        }
      ],
      "name": "eventURI",
      "outputs": [
        {
          "internalType": "string[2]",
          "name": "",
          "type": "string[2]"
        }
      ],
      "stateMutability": "view",
      "type": "function"
    },
    {
      "inputs": [
        {
          "internalType": "uint256",
          "name": "tokenId",
          "type": "uint256"
        }
      ],
      "name": "getApproved",
      "outputs": [
        {
          "internalType": "address",
          "name": "",
          "type": "address"
        }
      ],
      "stateMutability": "view",
      "type": "function"
    },
    {
      "inputs": [
        {
          "internalType": "string",
          "name": "_bidURI",
          "type": "string"
        }
      ],
      "name": "getBidIdByUri",
      "outputs": [
        {
          "internalType": "uint256",
          "name": "",
          "type": "uint256"
        }
      ],
      "stateMutability": "view",
      "type": "function"
    },
    {
      "inputs": [
        {
          "internalType": "uint256",
          "name": "TokenID",
          "type": "uint256"
        }
      ],
      "name": "getBidsSearchToken",
      "outputs": [
        {
          "internalType": "string[]",
          "name": "",
          "type": "string[]"
        }
      ],
      "stateMutability": "view",
      "type": "function"
    },
    {
      "inputs": [
        {
          "internalType": "uint256",
          "name": "Grantid",
          "type": "uint256"
        },
        {
          "internalType": "uint256",
          "name": "ProjectId",
          "type": "uint256"
        }
      ],
      "name": "getCheckSubmittedProjectGrant",
      "outputs": [
        {
          "internalType": "bool",
          "name": "",
          "type": "bool"
        }
      ],
      "stateMutability": "view",
      "type": "function"
    },
    {
      "inputs": [
        {
          "internalType": "uint256",
          "name": "_eventId",
          "type": "uint256"
        }
      ],
      "name": "getEventRaised",
      "outputs": [
        {
          "internalType": "string",
          "name": "",
          "type": "string"
        }
      ],
      "stateMutability": "view",
      "type": "function"
    },
    {
      "inputs": [
        {
          "internalType": "uint256",
          "name": "EventId",
          "type": "uint256"
        },
        {
          "internalType": "string",
          "name": "_tokenURI",
          "type": "string"
        }
      ],
      "name": "getGetEventsTokenID",
      "outputs": [
        {
          "internalType": "uint256",
          "name": "",
          "type": "uint256"
        }
      ],
      "stateMutability": "view",
      "type": "function"
    },
    {
      "inputs": [
        {
          "internalType": "string",
          "name": "Wallet",
          "type": "string"
        }
      ],
      "name": "getSearchEventbyWallet",
      "outputs": [
        {
          "internalType": "string[]",
          "name": "",
          "type": "string[]"
        }
      ],
      "stateMutability": "view",
      "type": "function"
    },
    {
      "inputs": [
        {
          "internalType": "uint256",
          "name": "Grantid",
          "type": "uint256"
        },
        {
          "internalType": "uint256",
          "name": "ProjectId",
          "type": "uint256"
        }
      ],
      "name": "getSearchedGrantVoteProject",
      "outputs": [
        {
          "internalType": "string[]",
          "name": "",
          "type": "string[]"
        }
      ],
      "stateMutability": "view",
      "type": "function"
    },
    {
      "inputs": [
        {
          "internalType": "uint256",
          "name": "Grantid",
          "type": "uint256"
        }
      ],
      "name": "getSearchedProjectByGrantID",
      "outputs": [
        {
          "internalType": "uint256[]",
          "name": "",
          "type": "uint256[]"
        }
      ],
      "stateMutability": "view",
      "type": "function"
    },
    {
      "inputs": [
        {
          "internalType": "uint256",
          "name": "TokenID",
          "type": "uint256"
        }
      ],
      "name": "getTotalBid",
      "outputs": [
        {
          "internalType": "string[]",
          "name": "",
          "type": "string[]"
        }
      ],
      "stateMutability": "view",
      "type": "function"
    },
    {
      "inputs": [
        {
          "internalType": "string",
          "name": "_tokenURI",
          "type": "string"
        }
      ],
      "name": "gettokenIdByUri",
      "outputs": [
        {
          "internalType": "uint256",
          "name": "",
          "type": "uint256"
        }
      ],
      "stateMutability": "view",
      "type": "function"
    },
    {
      "inputs": [
        {
          "internalType": "uint256",
          "name": "EventID",
          "type": "uint256"
        }
      ],
      "name": "gettokenSearchEventTotal",
      "outputs": [
        {
          "internalType": "string[]",
          "name": "",
          "type": "string[]"
        }
      ],
      "stateMutability": "view",
      "type": "function"
    },
    {
      "inputs": [
        {
          "internalType": "address",
          "name": "owner",
          "type": "address"
        },
        {
          "internalType": "address",
          "name": "operator",
          "type": "address"
        }
      ],
      "name": "isApprovedForAll",
      "outputs": [
        {
          "internalType": "bool",
          "name": "",
          "type": "bool"
        }
      ],
      "stateMutability": "view",
      "type": "function"
    },
    {
      "inputs": [],
      "name": "name",
      "outputs": [
        {
          "internalType": "string",
          "name": "",
          "type": "string"
        }
      ],
      "stateMutability": "view",
      "type": "function"
    },
    {
      "inputs": [
        {
          "internalType": "uint256",
          "name": "tokenId",
          "type": "uint256"
        }
      ],
      "name": "ownerOf",
      "outputs": [
        {
          "internalType": "address",
          "name": "",
          "type": "address"
        }
      ],
      "stateMutability": "view",
      "type": "function"
    },
    {
      "inputs": [
        {
          "internalType": "address",
          "name": "from",
          "type": "address"
        },
        {
          "internalType": "address",
          "name": "to",
          "type": "address"
        },
        {
          "internalType": "uint256",
          "name": "tokenId",
          "type": "uint256"
        }
      ],
      "name": "safeTransferFrom",
      "outputs": [],
      "stateMutability": "nonpayable",
      "type": "function"
    },
    {
      "inputs": [
        {
          "internalType": "address",
          "name": "from",
          "type": "address"
        },
        {
          "internalType": "address",
          "name": "to",
          "type": "address"
        },
        {
          "internalType": "uint256",
          "name": "tokenId",
          "type": "uint256"
        },
        {
          "internalType": "bytes",
          "name": "_data",
          "type": "bytes"
        }
      ],
      "name": "safeTransferFrom",
      "outputs": [],
      "stateMutability": "nonpayable",
      "type": "function"
    },
    {
      "inputs": [
        {
          "internalType": "address",
          "name": "operator",
          "type": "address"
        },
        {
          "internalType": "bool",
          "name": "approved",
          "type": "bool"
        }
      ],
      "name": "setApprovalForAll",
      "outputs": [],
      "stateMutability": "nonpayable",
      "type": "function"
    },
    {
      "inputs": [
        {
          "internalType": "uint256",
          "name": "GrantProjectId",
          "type": "uint256"
        },
        {
          "internalType": "uint256",
          "name": "ProjectId",
          "type": "uint256"
        },
        {
          "internalType": "uint256",
          "name": "GranttId",
          "type": "uint256"
        }
      ],
      "name": "setGrantProject",
      "outputs": [],
      "stateMutability": "nonpayable",
      "type": "function"
    },
    {
      "inputs": [
        {
          "internalType": "uint256",
          "name": "GrantVoteId",
          "type": "uint256"
        },
        {
          "internalType": "string",
          "name": "Wallet",
          "type": "string"
        },
        {
          "internalType": "string",
          "name": "ProjectId",
          "type": "string"
        },
        {
          "internalType": "string",
          "name": "GranttId",
          "type": "string"
        }
      ],
      "name": "setGrantVote",
      "outputs": [],
      "stateMutability": "nonpayable",
      "type": "function"
    },
    {
      "inputs": [
        {
          "internalType": "bytes4",
          "name": "interfaceId",
          "type": "bytes4"
        }
      ],
      "name": "supportsInterface",
      "outputs": [
        {
          "internalType": "bool",
          "name": "",
          "type": "bool"
        }
      ],
      "stateMutability": "view",
      "type": "function"
    },
    {
      "inputs": [],
      "name": "symbol",
      "outputs": [
        {
          "internalType": "string",
          "name": "",
          "type": "string"
        }
      ],
      "stateMutability": "view",
      "type": "function"
    },
    {
      "inputs": [
        {
          "internalType": "uint256",
          "name": "tokenId",
          "type": "uint256"
        }
      ],
      "name": "tokenURI",
      "outputs": [
        {
          "internalType": "string",
          "name": "",
          "type": "string"
        }
      ],
      "stateMutability": "view",
      "type": "function"
    },
    {
      "inputs": [],
      "name": "totalEvent",
      "outputs": [
        {
          "internalType": "uint256",
          "name": "",
          "type": "uint256"
        }
      ],
      "stateMutability": "view",
      "type": "function"
    },
    {
      "inputs": [],
      "name": "totalGrantEvent",
      "outputs": [
        {
          "internalType": "uint256",
          "name": "",
          "type": "uint256"
        }
      ],
      "stateMutability": "view",
      "type": "function"
    },
    {
      "inputs": [],
      "name": "totalSupply",
      "outputs": [
        {
          "internalType": "uint256",
          "name": "",
          "type": "uint256"
        }
      ],
      "stateMutability": "view",
      "type": "function"
    },
    {
      "inputs": [
        {
          "internalType": "address",
          "name": "from",
          "type": "address"
        },
        {
          "internalType": "address",
          "name": "to",
          "type": "address"
        },
        {
          "internalType": "uint256",
          "name": "tokenId",
          "type": "uint256"
        }
      ],
      "name": "transferFrom",
      "outputs": [],
      "stateMutability": "nonpayable",
      "type": "function"
    }
  ],
  "transactionHash": "0xa2dbba4386dee83d43643c2a8a07d9acb3b5cc15f5cd1194ad69285b9288108a",
  "args": [
    "CUSD",
    "cUSD"
  ],
  "numDeployments": 18,
  "solcInputHash": "9a1400fe938f62bac0025c790c19b4c9",
  "bytecode": "0x60806040523480156200001157600080fd5b506040516200564f3803806200564f8339818101604052810190620000379190620001a3565b818181600090805190602001906200005192919062000075565b5080600190805190602001906200006a92919062000075565b5050505050620003ac565b8280546200008390620002bd565b90600052602060002090601f016020900481019282620000a75760008555620000f3565b82601f10620000c257805160ff1916838001178555620000f3565b82800160010185558215620000f3579182015b82811115620000f2578251825591602001919060010190620000d5565b5b50905062000102919062000106565b5090565b5b808211156200012157600081600090555060010162000107565b5090565b60006200013c620001368462000251565b62000228565b9050828152602081018484840111156200015b576200015a6200038c565b5b6200016884828562000287565b509392505050565b600082601f83011262000188576200018762000387565b5b81516200019a84826020860162000125565b91505092915050565b60008060408385031215620001bd57620001bc62000396565b5b600083015167ffffffffffffffff811115620001de57620001dd62000391565b5b620001ec8582860162000170565b925050602083015167ffffffffffffffff81111562000210576200020f62000391565b5b6200021e8582860162000170565b9150509250929050565b60006200023462000247565b9050620002428282620002f3565b919050565b6000604051905090565b600067ffffffffffffffff8211156200026f576200026e62000358565b5b6200027a826200039b565b9050602081019050919050565b60005b83811015620002a75780820151818401526020810190506200028a565b83811115620002b7576000848401525b50505050565b60006002820490506001821680620002d657607f821691505b60208210811415620002ed57620002ec62000329565b5b50919050565b620002fe826200039b565b810181811067ffffffffffffffff8211171562000320576200031f62000358565b5b80604052505050565b7f4e487b7100000000000000000000000000000000000000000000000000000000600052602260045260246000fd5b7f4e487b7100000000000000000000000000000000000000000000000000000000600052604160045260246000fd5b600080fd5b600080fd5b600080fd5b600080fd5b6000601f19601f8301169050919050565b61529380620003bc6000396000f3fe608060405234801561001057600080fd5b506004361061030c5760003560e01c80637cedbc1e1161019d578063c08e953d116100e9578063dfc5e169116100a2578063e985e9c51161007c578063e985e9c514610a69578063eb1d234d14610a99578063f327579414610ac9578063f880eb1914610ae55761030c565b8063dfc5e169146109ed578063e08033d314610a1d578063e257a94c14610a395761030c565b8063c08e953d14610905578063c87b56dd14610935578063cef80b3a14610965578063d45fc51614610983578063d654e993146109b3578063dcbe2ed9146109cf5761030c565b806396d5a73911610156578063a99bee2e11610130578063a99bee2e1461086b578063aed4796114610889578063b10a5dfa146108b9578063b88d4fde146108e95761030c565b806396d5a739146107ef578063a0fd0c6a1461081f578063a22cb4651461084f5761030c565b80637cedbc1e146107075780637eadfa6a1461073757806384eb8f6814610755578063912101cf14610771578063932a196b146107a157806395d89b41146107d15761030c565b80633592dd801161025c5780635154380a1161021557806361958158116101ef578063619581581461066f5780636352211e1461068b5780636a7ed008146106bb57806370a08231146106d75761030c565b80635154380a146105df578063523796271461060f57806353c227cc1461063f5761030c565b80633592dd80146104e7578063390532711461050357806342842e0e14610533578063446a92e31461054f5780634eb083ec1461057f5780634ef4e80f146105af5761030c565b8063144cbca6116102c95780631e65e117116102a35780631e65e1171461043b57806323b872dd1461046b57806328520ab71461048757806335011d90146104b75761030c565b8063144cbca6146103e35780631677bf081461040157806318160ddd1461041d5761030c565b8063015388681461031157806301ffc9a71461032d57806306fdde031461035d578063081812fc1461037b578063095ea7b3146103ab5780630ae240cf146103c7575b600080fd5b61032b60048036038101906103269190613d8b565b610b03565b005b61034760048036038101906103429190613bd4565b610b77565b60405161035491906146ad565b60405180910390f35b610365610c59565b60405161037291906146c8565b60405180910390f35b61039560048036038101906103909190613d5e565b610ceb565b6040516103a291906145e0565b60405180910390f35b6103c560048036038101906103c09190613b94565b610d70565b005b6103e160048036038101906103dc9190613e72565b610e88565b005b6103eb610ecb565b6040516103f891906148ca565b60405180910390f35b61041b60048036038101906104169190613d8b565b610ed1565b005b610425610efd565b60405161043291906148ca565b60405180910390f35b61045560048036038101906104509190613c2e565b610f07565b6040516104629190614669565b60405180910390f35b61048560048036038101906104809190613a0f565b61112b565b005b6104a1600480360381019061049c9190613d8b565b61118b565b6040516104ae91906148ca565b60405180910390f35b6104d160048036038101906104cc9190613b25565b611264565b6040516104de91906148ca565b60405180910390f35b61050160048036038101906104fc9190614020565b6112c7565b005b61051d60048036038101906105189190613fe0565b61130b565b60405161052a91906146ad565b60405180910390f35b61054d60048036038101906105489190613a0f565b6113a7565b005b61056960048036038101906105649190613d5e565b6113c7565b60405161057691906146c8565b60405180910390f35b61059960048036038101906105949190613d5e565b61146c565b6040516105a691906146c8565b60405180910390f35b6105c960048036038101906105c49190613fe0565b611511565b6040516105d691906148ca565b60405180910390f35b6105f960048036038101906105f49190613d5e565b611543565b6040516106069190614669565b60405180910390f35b61062960048036038101906106249190613c2e565b6116f3565b60405161063691906148ca565b60405180910390f35b61065960048036038101906106549190613d5e565b611723565b60405161066691906146c8565b60405180910390f35b61068960048036038101906106849190613de7565b6117c3565b005b6106a560048036038101906106a09190613d5e565b61185c565b6040516106b291906145e0565b60405180910390f35b6106d560048036038101906106d09190613f2d565b61190e565b005b6106f160048036038101906106ec91906139a2565b611a41565b6040516106fe91906148ca565b60405180910390f35b610721600480360381019061071c9190613d5e565b611af9565b60405161072e91906146c8565b60405180910390f35b61073f611bb2565b60405161074c91906148ca565b60405180910390f35b61076f600480360381019061076a9190613d8b565b611bbc565b005b61078b60048036038101906107869190613fe0565b611be8565b6040516107989190614669565b60405180910390f35b6107bb60048036038101906107b69190613c2e565b611ec7565b6040516107c891906148ca565b60405180910390f35b6107d9611f36565b6040516107e691906146c8565b60405180910390f35b61080960048036038101906108049190613d5e565b611fc8565b604051610816919061468b565b60405180910390f35b61083960048036038101906108349190613d5e565b61212a565b6040516108469190614647565b60405180910390f35b61086960048036038101906108649190613ae5565b61220a565b005b610873612220565b60405161088091906148ca565b60405180910390f35b6108a3600480360381019061089e9190613d5e565b612226565b6040516108b09190614669565b60405180910390f35b6108d360048036038101906108ce9190613fe0565b6123d6565b6040516108e091906146c8565b60405180910390f35b61090360048036038101906108fe9190613a62565b612486565b005b61091f600480360381019061091a9190613cef565b6124e8565b60405161092c91906148ca565b60405180910390f35b61094f600480360381019061094a9190613d5e565b61252c565b60405161095c91906146c8565b60405180910390f35b61096d612619565b60405161097a91906148ca565b60405180910390f35b61099d60048036038101906109989190613c2e565b61261f565b6040516109aa91906148ca565b60405180910390f35b6109cd60048036038101906109c89190614020565b61268e565b005b6109d76126d2565b6040516109e491906148ca565b60405180910390f35b610a076004803603810190610a029190613d5e565b6126d8565b604051610a1491906146c8565b60405180910390f35b610a376004803603810190610a329190613d8b565b612778565b005b610a536004803603810190610a4e9190613c77565b6127a4565b604051610a6091906148ca565b60405180910390f35b610a836004803603810190610a7e91906139cf565b612817565b604051610a9091906146ad565b60405180910390f35b610ab36004803603810190610aae9190613d5e565b6128ab565b604051610ac09190614669565b60405180910390f35b610ae36004803603810190610ade919061408f565b612a5b565b005b610aed612a97565b604051610afa91906148ca565b60405180910390f35b610b0c82612aa1565b610b4b576040517f08c379a0000000000000000000000000000000000000000000000000000000008152600401610b429061484a565b60405180910390fd5b80601560008481526020019081526020016000209080519060200190610b72929190613645565b505050565b60007f80ac58cd000000000000000000000000000000000000000000000000000000007bffffffffffffffffffffffffffffffffffffffffffffffffffffffff1916827bffffffffffffffffffffffffffffffffffffffffffffffffffffffff19161480610c4257507f5b5e139f000000000000000000000000000000000000000000000000000000007bffffffffffffffffffffffffffffffffffffffffffffffffffffffff1916827bffffffffffffffffffffffffffffffffffffffffffffffffffffffff1916145b80610c525750610c5182612b0d565b5b9050919050565b606060008054610c6890614be5565b80601f0160208091040260200160405190810160405280929190818152602001828054610c9490614be5565b8015610ce15780601f10610cb657610100808354040283529160200191610ce1565b820191906000526020600020905b815481529060010190602001808311610cc457829003601f168201915b5050505050905090565b6000610cf682612aa1565b610d35576040517f08c379a0000000000000000000000000000000000000000000000000000000008152600401610d2c9061482a565b60405180910390fd5b6004600083815260200190815260200160002060009054906101000a900473ffffffffffffffffffffffffffffffffffffffff169050919050565b6000610d7b8261185c565b90508073ffffffffffffffffffffffffffffffffffffffff168373ffffffffffffffffffffffffffffffffffffffff161415610dec576040517f08c379a0000000000000000000000000000000000000000000000000000000008152600401610de39061488a565b60405180910390fd5b8073ffffffffffffffffffffffffffffffffffffffff16610e0b612b77565b73ffffffffffffffffffffffffffffffffffffffff161480610e3a5750610e3981610e34612b77565b612817565b5b610e79576040517f08c379a0000000000000000000000000000000000000000000000000000000008152600401610e70906147aa565b60405180910390fd5b610e838383612b7f565b505050565b60405180606001604052808281526020018381526020018481525060106000868152602001908152602001600020906003610ec49291906136cb565b5050505050565b600e5481565b80601960008481526020019081526020016000209080519060200190610ef8929190613645565b505050565b6000600654905090565b606060008060005b600854811015610f8557848051906020012060166000838152602001908152602001600020600060028110610f4757610f46614d4f565b5b01604051610f5591906145c9565b60405180910390201415610f72578280610f6e90614c48565b9350505b8080610f7d90614c48565b915050610f0f565b5060008267ffffffffffffffff811115610fa257610fa1614d7e565b5b604051908082528060200260200182016040528015610fd557816020015b6060815260200190600190039081610fc05790505b50905060005b60085481101561111f5785805190602001206016600083815260200190815260200160002060006002811061101357611012614d4f565b5b0160405161102191906145c9565b6040518091039020141561110c576016600082815260200190815260200160002060016002811061105557611054614d4f565b5b01805461106190614be5565b80601f016020809104026020016040519081016040528092919081815260200182805461108d90614be5565b80156110da5780601f106110af576101008083540402835291602001916110da565b820191906000526020600020905b8154815290600101906020018083116110bd57829003601f168201915b50505050508284815181106110f2576110f1614d4f565b5b6020026020010181905250828061110890614c48565b9350505b808061111790614c48565b915050610fdb565b50809350505050919050565b61113c611136612b77565b82612c38565b61117b576040517f08c379a0000000000000000000000000000000000000000000000000000000008152600401611172906148aa565b60405180910390fd5b611186838383612d16565b505050565b600080600090505b600c54811015611258576111a684612f7d565b80519060200120600f60008381526020019081526020016000206000600281106111d3576111d2614d4f565b5b016040516111e191906145c9565b604051809103902014801561123757508280519060200120600f600083815260200190815260200160002060016002811061121f5761121e614d4f565b5b0160405161122d91906145c9565b6040518091039020145b15611245578091505061125e565b808061125090614c48565b915050611193565b50600090505b92915050565b6000611272846006546130de565b61127e60065484610b03565b61128b600c5483856112c7565b6006600081548092919061129e90614c48565b9190505550600c60008154809291906112b690614c48565b919050555060065490509392505050565b60405180604001604052806112db84612f7d565b815260200182815250600f600085815260200190815260200160002090600261130592919061371e565b50505050565b600080600090505b600a5481101561139b57836011600083815260200190815260200160002060006002811061134457611343614d4f565b5b01541480156113795750826011600083815260200190815260200160002060016002811061137557611374614d4f565b5b0154145b156113885760019150506113a1565b808061139390614c48565b915050611313565b50600090505b92915050565b6113c283838360405180602001604052806000815250612486565b505050565b60606014600083815260200190815260200160002080546113e790614be5565b80601f016020809104026020016040519081016040528092919081815260200182805461141390614be5565b80156114605780601f1061143557610100808354040283529160200191611460565b820191906000526020600020905b81548152906001019060200180831161144357829003601f168201915b50505050509050919050565b606060196000838152602001908152602001600020805461148c90614be5565b80601f01602080910402602001604051908101604052809291908181526020018280546114b890614be5565b80156115055780601f106114da57610100808354040283529160200191611505565b820191906000526020600020905b8154815290600101906020018083116114e857829003601f168201915b50505050509050919050565b6000611520600a548484612a5b565b600a600081548092919061153390614c48565b9190505550600a54905092915050565b60606000600a67ffffffffffffffff81111561156257611561614d7e565b5b60405190808252806020026020018201604052801561159557816020015b60608152602001906001900390816115805790505b5090506000805b600d548110156116e8576115af85612f7d565b80519060200120601260008381526020019081526020016000206000600281106115dc576115db614d4f565b5b016040516115ea91906145c9565b604051809103902014156116d5576012600082815260200190815260200160002060016002811061161e5761161d614d4f565b5b01805461162a90614be5565b80601f016020809104026020016040519081016040528092919081815260200182805461165690614be5565b80156116a35780601f10611678576101008083540402835291602001916116a3565b820191906000526020600020905b81548152906001019060200180831161168657829003601f168201915b50505050508383815181106116bb576116ba614d4f565b5b602002602001018190525081806116d190614c48565b9250505b80806116e090614c48565b91505061159c565b508192505050919050565b600061170160095483611bbc565b6009600081548092919061171490614c48565b91905055506009549050919050565b6018602052806000526040600020600091509050805461174290614be5565b80601f016020809104026020016040519081016040528092919081815260200182805461176e90614be5565b80156117bb5780601f10611790576101008083540402835291602001916117bb565b820191906000526020600020905b81548152906001019060200180831161179e57829003601f168201915b505050505081565b604051806040016040528083815260200182815250601660008581526020019081526020016000209060026117f992919061371e565b506040518060400160405280600181526020017f3000000000000000000000000000000000000000000000000000000000000000815250601960008581526020019081526020016000209080519060200190611856929190613645565b50505050565b6000806002600084815260200190815260200160002060009054906101000a900473ffffffffffffffffffffffffffffffffffffffff169050600073ffffffffffffffffffffffffffffffffffffffff168173ffffffffffffffffffffffffffffffffffffffff161415611905576040517f08c379a00000000000000000000000000000000000000000000000000000000081526004016118fc906147ea565b60405180910390fd5b80915050919050565b60006119b58360156000898152602001908152602001600020805461193290614be5565b80601f016020809104026020016040519081016040528092919081815260200182805461195e90614be5565b80156119ab5780601f10611980576101008083540402835291602001916119ab565b820191906000526020600020905b81548152906001019060200180831161198e57829003601f168201915b505050505061118b565b9050836015600088815260200190815260200160002090805190602001906119de929190613645565b506119ea8184866112c7565b6119fc836119f784612f7d565b610ed1565b611a09600d54878761268e565b600d6000815480929190611a1c90614c48565b919050555060076000815480929190611a3490614c48565b9190505550505050505050565b60008073ffffffffffffffffffffffffffffffffffffffff168273ffffffffffffffffffffffffffffffffffffffff161415611ab2576040517f08c379a0000000000000000000000000000000000000000000000000000000008152600401611aa9906147ca565b60405180910390fd5b600360008373ffffffffffffffffffffffffffffffffffffffff1673ffffffffffffffffffffffffffffffffffffffff168152602001908152602001600020549050919050565b606060136000838152602001908152602001600020600060028110611b2157611b20614d4f565b5b018054611b2d90614be5565b80601f0160208091040260200160405190810160405280929190818152602001828054611b5990614be5565b8015611ba65780601f10611b7b57610100808354040283529160200191611ba6565b820191906000526020600020905b815481529060010190602001808311611b8957829003601f168201915b50505050509050919050565b6000600854905090565b80601760008481526020019081526020016000209080519060200190611be3929190613645565b505050565b606060008060005b600b54811015611cc357611c0386612f7d565b8051906020012060106000838152602001908152602001600020600060038110611c3057611c2f614d4f565b5b01604051611c3e91906145c9565b6040518091039020148015611c9c5750611c5785612f7d565b8051906020012060106000838152602001908152602001600020600160038110611c8457611c83614d4f565b5b01604051611c9291906145c9565b6040518091039020145b15611cb0578280611cac90614c48565b9350505b8080611cbb90614c48565b915050611bf0565b5060008267ffffffffffffffff811115611ce057611cdf614d7e565b5b604051908082528060200260200182016040528015611d1357816020015b6060815260200190600190039081611cfe5790505b50905060005b600b54811015611eba57611d2c87612f7d565b8051906020012060106000838152602001908152602001600020600060038110611d5957611d58614d4f565b5b01604051611d6791906145c9565b6040518091039020148015611dc55750611d8086612f7d565b8051906020012060106000838152602001908152602001600020600160038110611dad57611dac614d4f565b5b01604051611dbb91906145c9565b6040518091039020145b15611ea75760106000828152602001908152602001600020600260038110611df057611def614d4f565b5b018054611dfc90614be5565b80601f0160208091040260200160405190810160405280929190818152602001828054611e2890614be5565b8015611e755780601f10611e4a57610100808354040283529160200191611e75565b820191906000526020600020905b815481529060010190602001808311611e5857829003601f168201915b5050505050828481518110611e8d57611e8c614d4f565b5b60200260200101819052508280611ea390614c48565b9350505b8080611eb290614c48565b915050611d19565b5080935050505092915050565b600080600090505b600654811015611f2b57828051906020012060156000838152602001908152602001600020604051611f0191906145c9565b60405180910390201415611f185780915050611f31565b8080611f2390614c48565b915050611ecf565b50600090505b919050565b606060018054611f4590614be5565b80601f0160208091040260200160405190810160405280929190818152602001828054611f7190614be5565b8015611fbe5780601f10611f9357610100808354040283529160200191611fbe565b820191906000526020600020905b815481529060010190602001808311611fa157829003601f168201915b5050505050905090565b606060008060005b600a5481101561202b57846011600083815260200190815260200160002060006002811061200157612000614d4f565b5b0154141561201857828061201490614c48565b9350505b808061202390614c48565b915050611fd0565b5060008267ffffffffffffffff81111561204857612047614d7e565b5b6040519080825280602002602001820160405280156120765781602001602082028036833780820191505090505b50905060005b600a5481101561211e5785601160008381526020019081526020016000206000600281106120ad576120ac614d4f565b5b0154141561210b57601160008281526020019081526020016000206001600281106120db576120da614d4f565b5b01548284815181106120f0576120ef614d4f565b5b602002602001018181525050828061210790614c48565b9350505b808061211690614c48565b91505061207c565b50809350505050919050565b612132613771565b60166000838152602001908152602001600020600280602002604051908101604052809291906000905b828210156121ff57838201805461217290614be5565b80601f016020809104026020016040519081016040528092919081815260200182805461219e90614be5565b80156121eb5780601f106121c0576101008083540402835291602001916121eb565b820191906000526020600020905b8154815290600101906020018083116121ce57829003601f168201915b50505050508152602001906001019061215c565b505050509050919050565b61221c612215612b77565b83836132b8565b5050565b60095481565b60606000600a67ffffffffffffffff81111561224557612244614d7e565b5b60405190808252806020026020018201604052801561227857816020015b60608152602001906001900390816122635790505b5090506000805b600d548110156123cb5761229285612f7d565b80519060200120601260008381526020019081526020016000206000600281106122bf576122be614d4f565b5b016040516122cd91906145c9565b604051809103902014156123b8576012600082815260200190815260200160002060016002811061230157612300614d4f565b5b01805461230d90614be5565b80601f016020809104026020016040519081016040528092919081815260200182805461233990614be5565b80156123865780601f1061235b57610100808354040283529160200191612386565b820191906000526020600020905b81548152906001019060200180831161236957829003601f168201915b505050505083838151811061239e5761239d614d4f565b5b602002602001018190525081806123b490614c48565b9250505b80806123c390614c48565b91505061227f565b508192505050919050565b601360205281600052604060002081600281106123f257600080fd5b0160009150915050805461240590614be5565b80601f016020809104026020016040519081016040528092919081815260200182805461243190614be5565b801561247e5780601f106124535761010080835404028352916020019161247e565b820191906000526020600020905b81548152906001019060200180831161246157829003601f168201915b505050505081565b612497612491612b77565b83612c38565b6124d6576040517f08c379a00000000000000000000000000000000000000000000000000000000081526004016124cd906148aa565b60405180910390fd5b6124e284848484613425565b50505050565b6000612508600b54856124fa86612f7d565b61250386612f7d565b610e88565b600b600081548092919061251b90614c48565b9190505550600b5490509392505050565b606061253782612aa1565b612576576040517f08c379a000000000000000000000000000000000000000000000000000000000815260040161256d9061486a565b60405180910390fd5b60156000838152602001908152602001600020805461259490614be5565b80601f01602080910402602001604051908101604052809291908181526020018280546125c090614be5565b801561260d5780601f106125e25761010080835404028352916020019161260d565b820191906000526020600020905b8154815290600101906020018083116125f057829003601f168201915b50505050509050919050565b600a5481565b600080600090505b6007548110156126835782805190602001206014600083815260200190815260200160002060405161265991906145c9565b604051809103902014156126705780915050612689565b808061267b90614c48565b915050612627565b50600090505b919050565b60405180604001604052806126a284612f7d565b815260200182815250601260008581526020019081526020016000209060026126cc92919061371e565b50505050565b600b5481565b601760205280600052604060002060009150905080546126f790614be5565b80601f016020809104026020016040519081016040528092919081815260200182805461272390614be5565b80156127705780601f1061274557610100808354040283529160200191612770565b820191906000526020600020905b81548152906001019060200180831161275357829003601f168201915b505050505081565b8060146000848152602001908152602001600020908051906020019061279f929190613645565b505050565b60006127b360085484846117c3565b6127f46008546040518060400160405280600181526020017f3000000000000000000000000000000000000000000000000000000000000000815250610ed1565b6008600081548092919061280790614c48565b9190505550600854905092915050565b6000600560008473ffffffffffffffffffffffffffffffffffffffff1673ffffffffffffffffffffffffffffffffffffffff16815260200190815260200160002060008373ffffffffffffffffffffffffffffffffffffffff1673ffffffffffffffffffffffffffffffffffffffff16815260200190815260200160002060009054906101000a900460ff16905092915050565b60606000600a67ffffffffffffffff8111156128ca576128c9614d7e565b5b6040519080825280602002602001820160405280156128fd57816020015b60608152602001906001900390816128e85790505b5090506000805b600c54811015612a505761291785612f7d565b80519060200120600f600083815260200190815260200160002060006002811061294457612943614d4f565b5b0160405161295291906145c9565b60405180910390201415612a3d57600f600082815260200190815260200160002060016002811061298657612985614d4f565b5b01805461299290614be5565b80601f01602080910402602001604051908101604052809291908181526020018280546129be90614be5565b8015612a0b5780601f106129e057610100808354040283529160200191612a0b565b820191906000526020600020905b8154815290600101906020018083116129ee57829003601f168201915b5050505050838381518110612a2357612a22614d4f565b5b60200260200101819052508180612a3990614c48565b9250505b8080612a4890614c48565b915050612904565b508192505050919050565b60405180604001604052808281526020018381525060116000858152602001908152602001600020906002612a91929190613798565b50505050565b6000600a54905090565b60008073ffffffffffffffffffffffffffffffffffffffff166002600084815260200190815260200160002060009054906101000a900473ffffffffffffffffffffffffffffffffffffffff1673ffffffffffffffffffffffffffffffffffffffff1614159050919050565b60007f01ffc9a7000000000000000000000000000000000000000000000000000000007bffffffffffffffffffffffffffffffffffffffffffffffffffffffff1916827bffffffffffffffffffffffffffffffffffffffffffffffffffffffff1916149050919050565b600033905090565b816004600083815260200190815260200160002060006101000a81548173ffffffffffffffffffffffffffffffffffffffff021916908373ffffffffffffffffffffffffffffffffffffffff160217905550808273ffffffffffffffffffffffffffffffffffffffff16612bf28361185c565b73ffffffffffffffffffffffffffffffffffffffff167f8c5be1e5ebec7d5bd14f71427d1e84f3dd0314c0f7b2291e5b200ac8c7c3b92560405160405180910390a45050565b6000612c4382612aa1565b612c82576040517f08c379a0000000000000000000000000000000000000000000000000000000008152600401612c799061478a565b60405180910390fd5b6000612c8d8361185c565b90508073ffffffffffffffffffffffffffffffffffffffff168473ffffffffffffffffffffffffffffffffffffffff161480612ccf5750612cce8185612817565b5b80612d0d57508373ffffffffffffffffffffffffffffffffffffffff16612cf584610ceb565b73ffffffffffffffffffffffffffffffffffffffff16145b91505092915050565b8273ffffffffffffffffffffffffffffffffffffffff16612d368261185c565b73ffffffffffffffffffffffffffffffffffffffff1614612d8c576040517f08c379a0000000000000000000000000000000000000000000000000000000008152600401612d839061470a565b60405180910390fd5b600073ffffffffffffffffffffffffffffffffffffffff168273ffffffffffffffffffffffffffffffffffffffff161415612dfc576040517f08c379a0000000000000000000000000000000000000000000000000000000008152600401612df39061474a565b60405180910390fd5b612e07838383613481565b612e12600082612b7f565b6001600360008573ffffffffffffffffffffffffffffffffffffffff1673ffffffffffffffffffffffffffffffffffffffff1681526020019081526020016000206000828254612e629190614afb565b925050819055506001600360008473ffffffffffffffffffffffffffffffffffffffff1673ffffffffffffffffffffffffffffffffffffffff1681526020019081526020016000206000828254612eb99190614a74565b92505081905550816002600083815260200190815260200160002060006101000a81548173ffffffffffffffffffffffffffffffffffffffff021916908373ffffffffffffffffffffffffffffffffffffffff160217905550808273ffffffffffffffffffffffffffffffffffffffff168473ffffffffffffffffffffffffffffffffffffffff167fddf252ad1be2c89b69c2b068fc378daa952ba7f163c4a11628f55a4df523b3ef60405160405180910390a4612f78838383613486565b505050565b60606000821415612fc5576040518060400160405280600181526020017f300000000000000000000000000000000000000000000000000000000000000081525090506130d9565b600082905060005b60008214612ff7578080612fe090614c48565b915050600a82612ff09190614aca565b9150612fcd565b60008167ffffffffffffffff81111561301357613012614d7e565b5b6040519080825280601f01601f1916602001820160405280156130455781602001600182028036833780820191505090505b5090505b600085146130d25760018261305e9190614afb565b9150600a8561306d9190614c91565b60306130799190614a74565b60f81b81838151811061308f5761308e614d4f565b5b60200101907effffffffffffffffffffffffffffffffffffffffffffffffffffffffffffff1916908160001a905350600a856130cb9190614aca565b9450613049565b8093505050505b919050565b600073ffffffffffffffffffffffffffffffffffffffff168273ffffffffffffffffffffffffffffffffffffffff16141561314e576040517f08c379a00000000000000000000000000000000000000000000000000000000081526004016131459061480a565b60405180910390fd5b61315781612aa1565b15613197576040517f08c379a000000000000000000000000000000000000000000000000000000000815260040161318e9061472a565b60405180910390fd5b6131a360008383613481565b6001600360008473ffffffffffffffffffffffffffffffffffffffff1673ffffffffffffffffffffffffffffffffffffffff16815260200190815260200160002060008282546131f39190614a74565b92505081905550816002600083815260200190815260200160002060006101000a81548173ffffffffffffffffffffffffffffffffffffffff021916908373ffffffffffffffffffffffffffffffffffffffff160217905550808273ffffffffffffffffffffffffffffffffffffffff16600073ffffffffffffffffffffffffffffffffffffffff167fddf252ad1be2c89b69c2b068fc378daa952ba7f163c4a11628f55a4df523b3ef60405160405180910390a46132b460008383613486565b5050565b8173ffffffffffffffffffffffffffffffffffffffff168373ffffffffffffffffffffffffffffffffffffffff161415613327576040517f08c379a000000000000000000000000000000000000000000000000000000000815260040161331e9061476a565b60405180910390fd5b80600560008573ffffffffffffffffffffffffffffffffffffffff1673ffffffffffffffffffffffffffffffffffffffff16815260200190815260200160002060008473ffffffffffffffffffffffffffffffffffffffff1673ffffffffffffffffffffffffffffffffffffffff16815260200190815260200160002060006101000a81548160ff0219169083151502179055508173ffffffffffffffffffffffffffffffffffffffff168373ffffffffffffffffffffffffffffffffffffffff167f17307eab39ab6107e8899845ad3d59bd9653f200f220920489ca2b5937696c318360405161341891906146ad565b60405180910390a3505050565b613430848484612d16565b61343c8484848461348b565b61347b576040517f08c379a0000000000000000000000000000000000000000000000000000000008152600401613472906146ea565b60405180910390fd5b50505050565b505050565b505050565b60006134ac8473ffffffffffffffffffffffffffffffffffffffff16613622565b15613615578373ffffffffffffffffffffffffffffffffffffffff1663150b7a026134d5612b77565b8786866040518563ffffffff1660e01b81526004016134f794939291906145fb565b602060405180830381600087803b15801561351157600080fd5b505af192505050801561354257506040513d601f19601f8201168201806040525081019061353f9190613c01565b60015b6135c5573d8060008114613572576040519150601f19603f3d011682016040523d82523d6000602084013e613577565b606091505b506000815114156135bd576040517f08c379a00000000000000000000000000000000000000000000000000000000081526004016135b4906146ea565b60405180910390fd5b805181602001fd5b63150b7a0260e01b7bffffffffffffffffffffffffffffffffffffffffffffffffffffffff1916817bffffffffffffffffffffffffffffffffffffffffffffffffffffffff19161491505061361a565b600190505b949350505050565b6000808273ffffffffffffffffffffffffffffffffffffffff163b119050919050565b82805461365190614be5565b90600052602060002090601f01602090048101928261367357600085556136ba565b82601f1061368c57805160ff19168380011785556136ba565b828001600101855582156136ba579182015b828111156136b957825182559160200191906001019061369e565b5b5090506136c791906137d8565b5090565b826003810192821561370d579160200282015b8281111561370c5782518290805190602001906136fc929190613645565b50916020019190600101906136de565b5b50905061371a91906137f5565b5090565b8260028101928215613760579160200282015b8281111561375f57825182908051906020019061374f929190613645565b5091602001919060010190613731565b5b50905061376d91906137f5565b5090565b60405180604001604052806002905b60608152602001906001900390816137805790505090565b82600281019282156137c7579160200282015b828111156137c65782518255916020019190600101906137ab565b5b5090506137d491906137d8565b5090565b5b808211156137f15760008160009055506001016137d9565b5090565b5b80821115613815576000818161380c9190613819565b506001016137f6565b5090565b50805461382590614be5565b6000825580601f106138375750613856565b601f01602090049060005260206000209081019061385591906137d8565b5b50565b600061386c6138678461490a565b6148e5565b90508281526020810184848401111561388857613887614db2565b5b613893848285614ba3565b509392505050565b60006138ae6138a98461493b565b6148e5565b9050828152602081018484840111156138ca576138c9614db2565b5b6138d5848285614ba3565b509392505050565b6000813590506138ec81615201565b92915050565b60008135905061390181615218565b92915050565b6000813590506139168161522f565b92915050565b60008151905061392b8161522f565b92915050565b600082601f83011261394657613945614dad565b5b8135613956848260208601613859565b91505092915050565b600082601f83011261397457613973614dad565b5b813561398484826020860161389b565b91505092915050565b60008135905061399c81615246565b92915050565b6000602082840312156139b8576139b7614dbc565b5b60006139c6848285016138dd565b91505092915050565b600080604083850312156139e6576139e5614dbc565b5b60006139f4858286016138dd565b9250506020613a05858286016138dd565b9150509250929050565b600080600060608486031215613a2857613a27614dbc565b5b6000613a36868287016138dd565b9350506020613a47868287016138dd565b9250506040613a588682870161398d565b9150509250925092565b60008060008060808587031215613a7c57613a7b614dbc565b5b6000613a8a878288016138dd565b9450506020613a9b878288016138dd565b9350506040613aac8782880161398d565b925050606085013567ffffffffffffffff811115613acd57613acc614db7565b5b613ad987828801613931565b91505092959194509250565b60008060408385031215613afc57613afb614dbc565b5b6000613b0a858286016138dd565b9250506020613b1b858286016138f2565b9150509250929050565b600080600060608486031215613b3e57613b3d614dbc565b5b6000613b4c868287016138dd565b935050602084013567ffffffffffffffff811115613b6d57613b6c614db7565b5b613b798682870161395f565b9250506040613b8a8682870161398d565b9150509250925092565b60008060408385031215613bab57613baa614dbc565b5b6000613bb9858286016138dd565b9250506020613bca8582860161398d565b9150509250929050565b600060208284031215613bea57613be9614dbc565b5b6000613bf884828501613907565b91505092915050565b600060208284031215613c1757613c16614dbc565b5b6000613c258482850161391c565b91505092915050565b600060208284031215613c4457613c43614dbc565b5b600082013567ffffffffffffffff811115613c6257613c61614db7565b5b613c6e8482850161395f565b91505092915050565b60008060408385031215613c8e57613c8d614dbc565b5b600083013567ffffffffffffffff811115613cac57613cab614db7565b5b613cb88582860161395f565b925050602083013567ffffffffffffffff811115613cd957613cd8614db7565b5b613ce58582860161395f565b9150509250929050565b600080600060608486031215613d0857613d07614dbc565b5b600084013567ffffffffffffffff811115613d2657613d25614db7565b5b613d328682870161395f565b9350506020613d438682870161398d565b9250506040613d548682870161398d565b9150509250925092565b600060208284031215613d7457613d73614dbc565b5b6000613d828482850161398d565b91505092915050565b60008060408385031215613da257613da1614dbc565b5b6000613db08582860161398d565b925050602083013567ffffffffffffffff811115613dd157613dd0614db7565b5b613ddd8582860161395f565b9150509250929050565b600080600060608486031215613e0057613dff614dbc565b5b6000613e0e8682870161398d565b935050602084013567ffffffffffffffff811115613e2f57613e2e614db7565b5b613e3b8682870161395f565b925050604084013567ffffffffffffffff811115613e5c57613e5b614db7565b5b613e688682870161395f565b9150509250925092565b60008060008060808587031215613e8c57613e8b614dbc565b5b6000613e9a8782880161398d565b945050602085013567ffffffffffffffff811115613ebb57613eba614db7565b5b613ec78782880161395f565b935050604085013567ffffffffffffffff811115613ee857613ee7614db7565b5b613ef48782880161395f565b925050606085013567ffffffffffffffff811115613f1557613f14614db7565b5b613f218782880161395f565b91505092959194509250565b600080600080600060a08688031215613f4957613f48614dbc565b5b6000613f578882890161398d565b955050602086013567ffffffffffffffff811115613f7857613f77614db7565b5b613f848882890161395f565b945050604086013567ffffffffffffffff811115613fa557613fa4614db7565b5b613fb18882890161395f565b9350506060613fc28882890161398d565b9250506080613fd38882890161398d565b9150509295509295909350565b60008060408385031215613ff757613ff6614dbc565b5b60006140058582860161398d565b92505060206140168582860161398d565b9150509250929050565b60008060006060848603121561403957614038614dbc565b5b60006140478682870161398d565b93505060206140588682870161398d565b925050604084013567ffffffffffffffff81111561407957614078614db7565b5b6140858682870161395f565b9150509250925092565b6000806000606084860312156140a8576140a7614dbc565b5b60006140b68682870161398d565b93505060206140c78682870161398d565b92505060406140d88682870161398d565b9150509250925092565b60006140ee838361432c565b905092915050565b600061410283836145ab565b60208301905092915050565b61411781614b2f565b82525050565b6000614128826149ab565b6141328185614a09565b9350836020820285016141448561496c565b8060005b85811015614180578484038952815161416185826140e2565b945061416c836149e2565b925060208a01995050600181019050614148565b50829750879550505050505092915050565b600061419d826149b6565b6141a78185614a14565b9350836020820285016141b985614976565b8060005b858110156141f557848403895281516141d685826140e2565b94506141e1836149ef565b925060208a019950506001810190506141bd565b50829750879550505050505092915050565b6000614212826149c1565b61421c8185614a25565b935061422783614986565b8060005b8381101561425857815161423f88826140f6565b975061424a836149fc565b92505060018101905061422b565b5085935050505092915050565b61426e81614b41565b82525050565b600061427f826149cc565b6142898185614a36565b9350614299818560208601614bb2565b6142a281614dc1565b840191505092915050565b600081546142ba81614be5565b6142c48186614a47565b945060018216600081146142df57600181146142f057614323565b60ff19831686528186019350614323565b6142f985614996565b60005b8381101561431b578154818901526001820191506020810190506142fc565b838801955050505b50505092915050565b6000614337826149d7565b6143418185614a52565b9350614351818560208601614bb2565b61435a81614dc1565b840191505092915050565b6000614370826149d7565b61437a8185614a63565b935061438a818560208601614bb2565b61439381614dc1565b840191505092915050565b60006143ab603283614a63565b91506143b682614dd2565b604082019050919050565b60006143ce602583614a63565b91506143d982614e21565b604082019050919050565b60006143f1601c83614a63565b91506143fc82614e70565b602082019050919050565b6000614414602483614a63565b915061441f82614e99565b604082019050919050565b6000614437601983614a63565b915061444282614ee8565b602082019050919050565b600061445a602c83614a63565b915061446582614f11565b604082019050919050565b600061447d603883614a63565b915061448882614f60565b604082019050919050565b60006144a0602a83614a63565b91506144ab82614faf565b604082019050919050565b60006144c3602983614a63565b91506144ce82614ffe565b604082019050919050565b60006144e6602083614a63565b91506144f18261504d565b602082019050919050565b6000614509602c83614a63565b915061451482615076565b604082019050919050565b600061452c602c83614a63565b9150614537826150c5565b604082019050919050565b600061454f602f83614a63565b915061455a82615114565b604082019050919050565b6000614572602183614a63565b915061457d82615163565b604082019050919050565b6000614595603183614a63565b91506145a0826151b2565b604082019050919050565b6145b481614b99565b82525050565b6145c381614b99565b82525050565b60006145d582846142ad565b915081905092915050565b60006020820190506145f5600083018461410e565b92915050565b6000608082019050614610600083018761410e565b61461d602083018661410e565b61462a60408301856145ba565b818103606083015261463c8184614274565b905095945050505050565b60006020820190508181036000830152614661818461411d565b905092915050565b600060208201905081810360008301526146838184614192565b905092915050565b600060208201905081810360008301526146a58184614207565b905092915050565b60006020820190506146c26000830184614265565b92915050565b600060208201905081810360008301526146e28184614365565b905092915050565b600060208201905081810360008301526147038161439e565b9050919050565b60006020820190508181036000830152614723816143c1565b9050919050565b60006020820190508181036000830152614743816143e4565b9050919050565b6000602082019050818103600083015261476381614407565b9050919050565b600060208201905081810360008301526147838161442a565b9050919050565b600060208201905081810360008301526147a38161444d565b9050919050565b600060208201905081810360008301526147c381614470565b9050919050565b600060208201905081810360008301526147e381614493565b9050919050565b60006020820190508181036000830152614803816144b6565b9050919050565b60006020820190508181036000830152614823816144d9565b9050919050565b60006020820190508181036000830152614843816144fc565b9050919050565b600060208201905081810360008301526148638161451f565b9050919050565b6000602082019050818103600083015261488381614542565b9050919050565b600060208201905081810360008301526148a381614565565b9050919050565b600060208201905081810360008301526148c381614588565b9050919050565b60006020820190506148df60008301846145ba565b92915050565b60006148ef614900565b90506148fb8282614c17565b919050565b6000604051905090565b600067ffffffffffffffff82111561492557614924614d7e565b5b61492e82614dc1565b9050602081019050919050565b600067ffffffffffffffff82111561495657614955614d7e565b5b61495f82614dc1565b9050602081019050919050565b6000819050919050565b6000819050602082019050919050565b6000819050602082019050919050565b60008190508160005260206000209050919050565b600060029050919050565b600081519050919050565b600081519050919050565b600081519050919050565b600081519050919050565b6000602082019050919050565b6000602082019050919050565b6000602082019050919050565b600081905092915050565b600082825260208201905092915050565b600082825260208201905092915050565b600082825260208201905092915050565b600081905092915050565b600082825260208201905092915050565b600082825260208201905092915050565b6000614a7f82614b99565b9150614a8a83614b99565b9250827fffffffffffffffffffffffffffffffffffffffffffffffffffffffffffffffff03821115614abf57614abe614cc2565b5b828201905092915050565b6000614ad582614b99565b9150614ae083614b99565b925082614af057614aef614cf1565b5b828204905092915050565b6000614b0682614b99565b9150614b1183614b99565b925082821015614b2457614b23614cc2565b5b828203905092915050565b6000614b3a82614b79565b9050919050565b60008115159050919050565b60007fffffffff0000000000000000000000000000000000000000000000000000000082169050919050565b600073ffffffffffffffffffffffffffffffffffffffff82169050919050565b6000819050919050565b82818337600083830152505050565b60005b83811015614bd0578082015181840152602081019050614bb5565b83811115614bdf576000848401525b50505050565b60006002820490506001821680614bfd57607f821691505b60208210811415614c1157614c10614d20565b5b50919050565b614c2082614dc1565b810181811067ffffffffffffffff82111715614c3f57614c3e614d7e565b5b80604052505050565b6000614c5382614b99565b91507fffffffffffffffffffffffffffffffffffffffffffffffffffffffffffffffff821415614c8657614c85614cc2565b5b600182019050919050565b6000614c9c82614b99565b9150614ca783614b99565b925082614cb757614cb6614cf1565b5b828206905092915050565b7f4e487b7100000000000000000000000000000000000000000000000000000000600052601160045260246000fd5b7f4e487b7100000000000000000000000000000000000000000000000000000000600052601260045260246000fd5b7f4e487b7100000000000000000000000000000000000000000000000000000000600052602260045260246000fd5b7f4e487b7100000000000000000000000000000000000000000000000000000000600052603260045260246000fd5b7f4e487b7100000000000000000000000000000000000000000000000000000000600052604160045260246000fd5b600080fd5b600080fd5b600080fd5b600080fd5b6000601f19601f8301169050919050565b7f4552433732313a207472616e7366657220746f206e6f6e20455243373231526560008201527f63656976657220696d706c656d656e7465720000000000000000000000000000602082015250565b7f4552433732313a207472616e736665722066726f6d20696e636f72726563742060008201527f6f776e6572000000000000000000000000000000000000000000000000000000602082015250565b7f4552433732313a20746f6b656e20616c7265616479206d696e74656400000000600082015250565b7f4552433732313a207472616e7366657220746f20746865207a65726f2061646460008201527f7265737300000000000000000000000000000000000000000000000000000000602082015250565b7f4552433732313a20617070726f766520746f2063616c6c657200000000000000600082015250565b7f4552433732313a206f70657261746f7220717565727920666f72206e6f6e657860008201527f697374656e7420746f6b656e0000000000000000000000000000000000000000602082015250565b7f4552433732313a20617070726f76652063616c6c6572206973206e6f74206f7760008201527f6e6572206e6f7220617070726f76656420666f7220616c6c0000000000000000602082015250565b7f4552433732313a2062616c616e636520717565727920666f7220746865207a6560008201527f726f206164647265737300000000000000000000000000000000000000000000602082015250565b7f4552433732313a206f776e657220717565727920666f72206e6f6e657869737460008201527f656e7420746f6b656e0000000000000000000000000000000000000000000000602082015250565b7f4552433732313a206d696e7420746f20746865207a65726f2061646472657373600082015250565b7f4552433732313a20617070726f76656420717565727920666f72206e6f6e657860008201527f697374656e7420746f6b656e0000000000000000000000000000000000000000602082015250565b7f4552433732314d657461646174613a2055524920736574206f66206e6f6e657860008201527f697374656e7420746f6b656e0000000000000000000000000000000000000000602082015250565b7f4552433732314d657461646174613a2055524920717565727920666f72206e6f60008201527f6e6578697374656e7420746f6b656e0000000000000000000000000000000000602082015250565b7f4552433732313a20617070726f76616c20746f2063757272656e74206f776e6560008201527f7200000000000000000000000000000000000000000000000000000000000000602082015250565b7f4552433732313a207472616e736665722063616c6c6572206973206e6f74206f60008201527f776e6572206e6f7220617070726f766564000000000000000000000000000000602082015250565b61520a81614b2f565b811461521557600080fd5b50565b61522181614b41565b811461522c57600080fd5b50565b61523881614b4d565b811461524357600080fd5b50565b61524f81614b99565b811461525a57600080fd5b5056fea26469706673582212200d1542500af62bdb1e3cb19f93217c7ac5e5b041b9bb0ff8a00b11d9462d387664736f6c63430008060033",
  "devdoc": {
    "kind": "dev",
    "methods": {
      "approve(address,uint256)": {
        "details": "See {IERC721-approve}."
      },
      "balanceOf(address)": {
        "details": "See {IERC721-balanceOf}."
      },
      "getApproved(uint256)": {
        "details": "See {IERC721-getApproved}."
      },
      "isApprovedForAll(address,address)": {
        "details": "See {IERC721-isApprovedForAll}."
      },
      "name()": {
        "details": "See {IERC721Metadata-name}."
      },
      "ownerOf(uint256)": {
        "details": "See {IERC721-ownerOf}."
      },
      "safeTransferFrom(address,address,uint256)": {
        "details": "See {IERC721-safeTransferFrom}."
      },
      "safeTransferFrom(address,address,uint256,bytes)": {
        "details": "See {IERC721-safeTransferFrom}."
      },
      "setApprovalForAll(address,bool)": {
        "details": "See {IERC721-setApprovalForAll}."
      },
      "supportsInterface(bytes4)": {
        "details": "See {IERC165-supportsInterface}."
      },
      "symbol()": {
        "details": "See {IERC721Metadata-symbol}."
      },
      "tokenURI(uint256)": {
        "details": "See {IERC721Metadata-tokenURI}."
      },
      "transferFrom(address,address,uint256)": {
        "details": "See {IERC721-transferFrom}."
      }
    },
    "version": 1
  },
  "userdoc": {
    "kind": "user",
    "methods": {},
    "version": 1
  },
  "storageLayout": {
    "storage": [
      {
        "astId": 25,
        "contract": "contracts/CeloERC721.sol:CeloERC721",
        "label": "_name",
        "offset": 0,
        "slot": "0",
        "type": "t_string_storage"
      },
      {
        "astId": 27,
        "contract": "contracts/CeloERC721.sol:CeloERC721",
        "label": "_symbol",
        "offset": 0,
        "slot": "1",
        "type": "t_string_storage"
      },
      {
        "astId": 31,
        "contract": "contracts/CeloERC721.sol:CeloERC721",
        "label": "_owners",
        "offset": 0,
        "slot": "2",
        "type": "t_mapping(t_uint256,t_address)"
      },
      {
        "astId": 35,
        "contract": "contracts/CeloERC721.sol:CeloERC721",
        "label": "_balances",
        "offset": 0,
        "slot": "3",
        "type": "t_mapping(t_address,t_uint256)"
      },
      {
        "astId": 39,
        "contract": "contracts/CeloERC721.sol:CeloERC721",
        "label": "_tokenApprovals",
        "offset": 0,
        "slot": "4",
        "type": "t_mapping(t_uint256,t_address)"
      },
      {
        "astId": 45,
        "contract": "contracts/CeloERC721.sol:CeloERC721",
        "label": "_operatorApprovals",
        "offset": 0,
        "slot": "5",
        "type": "t_mapping(t_address,t_mapping(t_address,t_bool))"
      },
      {
        "astId": 1590,
        "contract": "contracts/CeloERC721.sol:CeloERC721",
        "label": "_tokenIds",
        "offset": 0,
        "slot": "6",
        "type": "t_uint256"
      },
      {
        "astId": 1592,
        "contract": "contracts/CeloERC721.sol:CeloERC721",
        "label": "_bidIds",
        "offset": 0,
        "slot": "7",
        "type": "t_uint256"
      },
      {
        "astId": 1594,
        "contract": "contracts/CeloERC721.sol:CeloERC721",
        "label": "_eventIds",
        "offset": 0,
        "slot": "8",
        "type": "t_uint256"
      },
      {
        "astId": 1596,
        "contract": "contracts/CeloERC721.sol:CeloERC721",
        "label": "_GrantEventIds",
        "offset": 0,
        "slot": "9",
        "type": "t_uint256"
      },
      {
        "astId": 1598,
        "contract": "contracts/CeloERC721.sol:CeloERC721",
        "label": "_GrantProjectIds",
        "offset": 0,
        "slot": "10",
        "type": "t_uint256"
      },
      {
        "astId": 1600,
        "contract": "contracts/CeloERC721.sol:CeloERC721",
        "label": "_GrantVoteIds",
        "offset": 0,
        "slot": "11",
        "type": "t_uint256"
      },
      {
        "astId": 1602,
        "contract": "contracts/CeloERC721.sol:CeloERC721",
        "label": "_EventTokenIds",
        "offset": 0,
        "slot": "12",
        "type": "t_uint256"
      },
      {
        "astId": 1604,
        "contract": "contracts/CeloERC721.sol:CeloERC721",
        "label": "_TokenBidIds",
        "offset": 0,
        "slot": "13",
        "type": "t_uint256"
      },
      {
        "astId": 1606,
        "contract": "contracts/CeloERC721.sol:CeloERC721",
        "label": "_EventTokenSearchIds",
        "offset": 0,
        "slot": "14",
        "type": "t_uint256"
      },
      {
        "astId": 1612,
        "contract": "contracts/CeloERC721.sol:CeloERC721",
        "label": "AllEventTokens",
        "offset": 0,
        "slot": "15",
        "type": "t_mapping(t_uint256,t_array(t_string_storage)2_storage)"
      },
      {
        "astId": 1618,
        "contract": "contracts/CeloERC721.sol:CeloERC721",
        "label": "AllGrantVotes",
        "offset": 0,
        "slot": "16",
        "type": "t_mapping(t_uint256,t_array(t_string_storage)3_storage)"
      },
      {
        "astId": 1624,
        "contract": "contracts/CeloERC721.sol:CeloERC721",
        "label": "AllGrantProject",
        "offset": 0,
        "slot": "17",
        "type": "t_mapping(t_uint256,t_array(t_uint256)2_storage)"
      },
      {
        "astId": 1630,
        "contract": "contracts/CeloERC721.sol:CeloERC721",
        "label": "AllTokensBids",
        "offset": 0,
        "slot": "18",
        "type": "t_mapping(t_uint256,t_array(t_string_storage)2_storage)"
      },
      {
        "astId": 1636,
        "contract": "contracts/CeloERC721.sol:CeloERC721",
        "label": "_SearchedStore",
        "offset": 0,
        "slot": "19",
        "type": "t_mapping(t_uint256,t_array(t_string_storage)2_storage)"
      },
      {
        "astId": 1640,
        "contract": "contracts/CeloERC721.sol:CeloERC721",
        "label": "_bidURIs",
        "offset": 0,
        "slot": "20",
        "type": "t_mapping(t_uint256,t_string_storage)"
      },
      {
        "astId": 1644,
        "contract": "contracts/CeloERC721.sol:CeloERC721",
        "label": "_tokenURIs",
        "offset": 0,
        "slot": "21",
        "type": "t_mapping(t_uint256,t_string_storage)"
      },
      {
        "astId": 1650,
        "contract": "contracts/CeloERC721.sol:CeloERC721",
        "label": "_eventURIs",
        "offset": 0,
        "slot": "22",
        "type": "t_mapping(t_uint256,t_array(t_string_storage)2_storage)"
      },
      {
        "astId": 1654,
        "contract": "contracts/CeloERC721.sol:CeloERC721",
        "label": "_GrantEventURIs",
        "offset": 0,
        "slot": "23",
        "type": "t_mapping(t_uint256,t_string_storage)"
      },
      {
        "astId": 1658,
        "contract": "contracts/CeloERC721.sol:CeloERC721",
        "label": "_JudgerURIs",
        "offset": 0,
        "slot": "24",
        "type": "t_mapping(t_uint256,t_string_storage)"
      },
      {
        "astId": 1662,
        "contract": "contracts/CeloERC721.sol:CeloERC721",
        "label": "_eventRaised",
        "offset": 0,
        "slot": "25",
        "type": "t_mapping(t_uint256,t_string_storage)"
      },
      {
        "astId": 1666,
        "contract": "contracts/CeloERC721.sol:CeloERC721",
        "label": "_eventTokens",
        "offset": 0,
        "slot": "26",
        "type": "t_mapping(t_string_memory_ptr,t_string_storage)"
      }
    ],
    "types": {
      "t_address": {
        "encoding": "inplace",
        "label": "address",
        "numberOfBytes": "20"
      },
      "t_array(t_string_storage)2_storage": {
        "base": "t_string_storage",
        "encoding": "inplace",
        "label": "string[2]",
        "numberOfBytes": "64"
      },
      "t_array(t_string_storage)3_storage": {
        "base": "t_string_storage",
        "encoding": "inplace",
        "label": "string[3]",
        "numberOfBytes": "96"
      },
      "t_array(t_uint256)2_storage": {
        "base": "t_uint256",
        "encoding": "inplace",
        "label": "uint256[2]",
        "numberOfBytes": "64"
      },
      "t_bool": {
        "encoding": "inplace",
        "label": "bool",
        "numberOfBytes": "1"
      },
      "t_mapping(t_address,t_bool)": {
        "encoding": "mapping",
        "key": "t_address",
        "label": "mapping(address => bool)",
        "numberOfBytes": "32",
        "value": "t_bool"
      },
      "t_mapping(t_address,t_mapping(t_address,t_bool))": {
        "encoding": "mapping",
        "key": "t_address",
        "label": "mapping(address => mapping(address => bool))",
        "numberOfBytes": "32",
        "value": "t_mapping(t_address,t_bool)"
      },
      "t_mapping(t_address,t_uint256)": {
        "encoding": "mapping",
        "key": "t_address",
        "label": "mapping(address => uint256)",
        "numberOfBytes": "32",
        "value": "t_uint256"
      },
      "t_mapping(t_string_memory_ptr,t_string_storage)": {
        "encoding": "mapping",
        "key": "t_string_memory_ptr",
        "label": "mapping(string => string)",
        "numberOfBytes": "32",
        "value": "t_string_storage"
      },
      "t_mapping(t_uint256,t_address)": {
        "encoding": "mapping",
        "key": "t_uint256",
        "label": "mapping(uint256 => address)",
        "numberOfBytes": "32",
        "value": "t_address"
      },
      "t_mapping(t_uint256,t_array(t_string_storage)2_storage)": {
        "encoding": "mapping",
        "key": "t_uint256",
        "label": "mapping(uint256 => string[2])",
        "numberOfBytes": "32",
        "value": "t_array(t_string_storage)2_storage"
      },
      "t_mapping(t_uint256,t_array(t_string_storage)3_storage)": {
        "encoding": "mapping",
        "key": "t_uint256",
        "label": "mapping(uint256 => string[3])",
        "numberOfBytes": "32",
        "value": "t_array(t_string_storage)3_storage"
      },
      "t_mapping(t_uint256,t_array(t_uint256)2_storage)": {
        "encoding": "mapping",
        "key": "t_uint256",
        "label": "mapping(uint256 => uint256[2])",
        "numberOfBytes": "32",
        "value": "t_array(t_uint256)2_storage"
      },
      "t_mapping(t_uint256,t_string_storage)": {
        "encoding": "mapping",
        "key": "t_uint256",
        "label": "mapping(uint256 => string)",
        "numberOfBytes": "32",
        "value": "t_string_storage"
      },
      "t_string_memory_ptr": {
        "encoding": "bytes",
        "label": "string",
        "numberOfBytes": "32"
      },
      "t_string_storage": {
        "encoding": "bytes",
        "label": "string",
        "numberOfBytes": "32"
      },
      "t_uint256": {
        "encoding": "inplace",
        "label": "uint256",
        "numberOfBytes": "32"
      }
    }
  }
}