{
  "address": "0xb6de30dAafd5695Bef81BAa677D410a015B6853A",
  "abi": [
    {
      "inputs": [
        {
          "internalType": "string",
          "name": "name",
          "type": "string"
        },
        {
          "internalType": "string",
          "name": "symbol",
          "type": "string"
        }
      ],
      "stateMutability": "nonpayable",
      "type": "constructor"
    },
    {
      "anonymous": false,
      "inputs": [
        {
          "indexed": true,
          "internalType": "address",
          "name": "owner",
          "type": "address"
        },
        {
          "indexed": true,
          "internalType": "address",
          "name": "approved",
          "type": "address"
        },
        {
          "indexed": true,
          "internalType": "uint256",
          "name": "tokenId",
          "type": "uint256"
        }
      ],
      "name": "Approval",
      "type": "event"
    },
    {
      "anonymous": false,
      "inputs": [
        {
          "indexed": true,
          "internalType": "address",
          "name": "owner",
          "type": "address"
        },
        {
          "indexed": true,
          "internalType": "address",
          "name": "operator",
          "type": "address"
        },
        {
          "indexed": false,
          "internalType": "bool",
          "name": "approved",
          "type": "bool"
        }
      ],
      "name": "ApprovalForAll",
      "type": "event"
    },
    {
      "anonymous": false,
      "inputs": [
        {
          "indexed": true,
          "internalType": "address",
          "name": "from",
          "type": "address"
        },
        {
          "indexed": true,
          "internalType": "address",
          "name": "to",
          "type": "address"
        },
        {
          "indexed": true,
          "internalType": "uint256",
          "name": "tokenId",
          "type": "uint256"
        }
      ],
      "name": "Transfer",
      "type": "event"
    },
    {
      "inputs": [
        {
          "internalType": "uint256",
          "name": "BidId",
          "type": "uint256"
        }
      ],
      "name": "BidURI",
      "outputs": [
        {
          "internalType": "string",
          "name": "",
          "type": "string"
        }
      ],
      "stateMutability": "view",
      "type": "function"
    },
    {
      "inputs": [
        {
          "internalType": "uint256",
          "name": "ProjectId",
          "type": "uint256"
        },
        {
          "internalType": "uint256",
          "name": "GranttId",
          "type": "uint256"
        }
      ],
      "name": "CreateGrantProject",
      "outputs": [
        {
          "internalType": "uint256",
          "name": "",
          "type": "uint256"
        }
      ],
      "stateMutability": "nonpayable",
      "type": "function"
    },
    {
      "inputs": [],
      "name": "_EventTokenSearchIds",
      "outputs": [
        {
          "internalType": "uint256",
          "name": "",
          "type": "uint256"
        }
      ],
      "stateMutability": "view",
      "type": "function"
    },
    {
      "inputs": [],
      "name": "_GrantEventIds",
      "outputs": [
        {
          "internalType": "uint256",
          "name": "",
          "type": "uint256"
        }
      ],
      "stateMutability": "view",
      "type": "function"
    },
    {
      "inputs": [
        {
          "internalType": "uint256",
          "name": "",
          "type": "uint256"
        }
      ],
      "name": "_GrantEventURIs",
      "outputs": [
        {
          "internalType": "string",
          "name": "",
          "type": "string"
        }
      ],
      "stateMutability": "view",
      "type": "function"
    },
    {
      "inputs": [],
      "name": "_GrantProjectIds",
      "outputs": [
        {
          "internalType": "uint256",
          "name": "",
          "type": "uint256"
        }
      ],
      "stateMutability": "view",
      "type": "function"
    },
    {
      "inputs": [],
      "name": "_GrantVoteIds",
      "outputs": [
        {
          "internalType": "uint256",
          "name": "",
          "type": "uint256"
        }
      ],
      "stateMutability": "view",
      "type": "function"
    },
    {
      "inputs": [
        {
          "internalType": "uint256",
          "name": "",
          "type": "uint256"
        }
      ],
      "name": "_JudgerURIs",
      "outputs": [
        {
          "internalType": "string",
          "name": "",
          "type": "string"
        }
      ],
      "stateMutability": "view",
      "type": "function"
    },
    {
      "inputs": [
        {
          "internalType": "uint256",
          "name": "",
          "type": "uint256"
        },
        {
          "internalType": "uint256",
          "name": "",
          "type": "uint256"
        }
      ],
      "name": "_SearchedStore",
      "outputs": [
        {
          "internalType": "string",
          "name": "",
          "type": "string"
        }
      ],
      "stateMutability": "view",
      "type": "function"
    },
    {
      "inputs": [
        {
          "internalType": "uint256",
          "name": "_tokenId",
          "type": "uint256"
        }
      ],
      "name": "_getSearchedTokenURI",
      "outputs": [
        {
          "internalType": "string",
          "name": "",
          "type": "string"
        }
      ],
      "stateMutability": "view",
      "type": "function"
    },
    {
      "inputs": [
        {
          "internalType": "uint256",
          "name": "bidId",
          "type": "uint256"
        },
        {
          "internalType": "string",
          "name": "_bidURI",
          "type": "string"
        }
      ],
      "name": "_setBidURI",
      "outputs": [],
      "stateMutability": "nonpayable",
      "type": "function"
    },
    {
      "inputs": [
        {
          "internalType": "uint256",
          "name": "_eventId",
          "type": "uint256"
        },
        {
          "internalType": "string",
          "name": "_raised",
          "type": "string"
        }
      ],
      "name": "_setEventRaised",
      "outputs": [],
      "stateMutability": "nonpayable",
      "type": "function"
    },
    {
      "inputs": [
        {
          "internalType": "uint256",
          "name": "eventId",
          "type": "uint256"
        },
        {
          "internalType": "string",
          "name": "_eventWallet",
          "type": "string"
        },
        {
          "internalType": "string",
          "name": "_eventURI",
          "type": "string"
        }
      ],
      "name": "_setEventURI",
      "outputs": [],
      "stateMutability": "nonpayable",
      "type": "function"
    },
    {
      "inputs": [
        {
          "internalType": "uint256",
          "name": "eventId",
          "type": "uint256"
        },
        {
          "internalType": "string",
          "name": "_eventURI",
          "type": "string"
        }
      ],
      "name": "_setGrantEventURI",
      "outputs": [],
      "stateMutability": "nonpayable",
      "type": "function"
    },
    {
      "inputs": [
        {
          "internalType": "uint256",
          "name": "TokenBidId",
          "type": "uint256"
        },
        {
          "internalType": "uint256",
          "name": "TokenId",
          "type": "uint256"
        },
        {
          "internalType": "string",
          "name": "_BidURI",
          "type": "string"
        }
      ],
      "name": "_setTokenBid",
      "outputs": [],
      "stateMutability": "nonpayable",
      "type": "function"
    },
    {
      "inputs": [
        {
          "internalType": "uint256",
          "name": "EventTokenId",
          "type": "uint256"
        },
        {
          "internalType": "uint256",
          "name": "EventId",
          "type": "uint256"
        },
        {
          "internalType": "string",
          "name": "_tokenURI",
          "type": "string"
        }
      ],
      "name": "_setTokenEvent",
      "outputs": [],
      "stateMutability": "nonpayable",
      "type": "function"
    },
    {
      "inputs": [
        {
          "internalType": "uint256",
          "name": "tokenId",
          "type": "uint256"
        },
        {
          "internalType": "string",
          "name": "_tokenURI",
          "type": "string"
        }
      ],
      "name": "_setTokenURI",
      "outputs": [],
      "stateMutability": "nonpayable",
      "type": "function"
    },
    {
      "inputs": [
        {
          "internalType": "address",
          "name": "to",
          "type": "address"
        },
        {
          "internalType": "uint256",
          "name": "tokenId",
          "type": "uint256"
        }
      ],
      "name": "approve",
      "outputs": [],
      "stateMutability": "nonpayable",
      "type": "function"
    },
    {
      "inputs": [
        {
          "internalType": "address",
          "name": "owner",
          "type": "address"
        }
      ],
      "name": "balanceOf",
      "outputs": [
        {
          "internalType": "uint256",
          "name": "",
          "type": "uint256"
        }
      ],
      "stateMutability": "view",
      "type": "function"
    },
    {
      "inputs": [
        {
          "internalType": "address",
          "name": "_claimer",
          "type": "address"
        },
        {
          "internalType": "string",
          "name": "_tokenURI",
          "type": "string"
        },
        {
          "internalType": "uint256",
          "name": "_eventid",
          "type": "uint256"
        }
      ],
      "name": "claimToken",
      "outputs": [
        {
          "internalType": "uint256",
          "name": "",
          "type": "uint256"
        }
      ],
      "stateMutability": "nonpayable",
      "type": "function"
    },
    {
      "inputs": [
        {
          "internalType": "uint256",
          "name": "_tokenId",
          "type": "uint256"
        },
        {
          "internalType": "string",
          "name": "_bidURI",
          "type": "string"
        },
        {
          "internalType": "string",
          "name": "_updatedURI",
          "type": "string"
        },
        {
          "internalType": "uint256",
          "name": "_eventid",
          "type": "uint256"
        }
      ],
      "name": "createBid",
      "outputs": [],
      "stateMutability": "nonpayable",
      "type": "function"
    },
    {
      "inputs": [
        {
          "internalType": "string",
          "name": "_eventWallet",
          "type": "string"
        },
        {
          "internalType": "string",
          "name": "_eventURI",
          "type": "string"
        }
      ],
      "name": "createEvent",
      "outputs": [
        {
          "internalType": "uint256",
          "name": "",
          "type": "uint256"
        }
      ],
      "stateMutability": "nonpayable",
      "type": "function"
    },
    {
      "inputs": [
        {
          "internalType": "string",
          "name": "_eventURI",
          "type": "string"
        }
      ],
      "name": "createGrantEvent",
      "outputs": [
        {
          "internalType": "uint256",
          "name": "",
          "type": "uint256"
        }
      ],
      "stateMutability": "nonpayable",
      "type": "function"
    },
    {
      "inputs": [
        {
          "internalType": "string",
          "name": "Wallet",
          "type": "string"
        },
        {
          "internalType": "uint256",
          "name": "ProjectId",
          "type": "uint256"
        },
        {
          "internalType": "uint256",
          "name": "GranttId",
          "type": "uint256"
        }
      ],
      "name": "createGrantVote",
      "outputs": [
        {
          "internalType": "uint256",
          "name": "",
          "type": "uint256"
        }
      ],
      "stateMutability": "nonpayable",
      "type": "function"
    },
    {
      "inputs": [
        {
          "internalType": "uint256",
          "name": "eventId",
          "type": "uint256"
        }
      ],
      "name": "eventURI",
      "outputs": [
        {
          "internalType": "string[2]",
          "name": "",
          "type": "string[2]"
        }
      ],
      "stateMutability": "view",
      "type": "function"
    },
    {
      "inputs": [
        {
          "internalType": "uint256",
          "name": "tokenId",
          "type": "uint256"
        }
      ],
      "name": "getApproved",
      "outputs": [
        {
          "internalType": "address",
          "name": "",
          "type": "address"
        }
      ],
      "stateMutability": "view",
      "type": "function"
    },
    {
      "inputs": [
        {
          "internalType": "string",
          "name": "_bidURI",
          "type": "string"
        }
      ],
      "name": "getBidIdByUri",
      "outputs": [
        {
          "internalType": "uint256",
          "name": "",
          "type": "uint256"
        }
      ],
      "stateMutability": "view",
      "type": "function"
    },
    {
      "inputs": [
        {
          "internalType": "uint256",
          "name": "TokenID",
          "type": "uint256"
        }
      ],
      "name": "getBidsSearchToken",
      "outputs": [
        {
          "internalType": "string[]",
          "name": "",
          "type": "string[]"
        }
      ],
      "stateMutability": "view",
      "type": "function"
    },
    {
      "inputs": [
        {
          "internalType": "uint256",
          "name": "Grantid",
          "type": "uint256"
        },
        {
          "internalType": "uint256",
          "name": "ProjectId",
          "type": "uint256"
        }
      ],
      "name": "getCheckSubmittedProjectGrant",
      "outputs": [
        {
          "internalType": "bool",
          "name": "",
          "type": "bool"
        }
      ],
      "stateMutability": "view",
      "type": "function"
    },
    {
      "inputs": [
        {
          "internalType": "uint256",
          "name": "_eventId",
          "type": "uint256"
        }
      ],
      "name": "getEventRaised",
      "outputs": [
        {
          "internalType": "string",
          "name": "",
          "type": "string"
        }
      ],
      "stateMutability": "view",
      "type": "function"
    },
    {
      "inputs": [
        {
          "internalType": "uint256",
          "name": "EventId",
          "type": "uint256"
        },
        {
          "internalType": "string",
          "name": "_tokenURI",
          "type": "string"
        }
      ],
      "name": "getGetEventsTokenID",
      "outputs": [
        {
          "internalType": "uint256",
          "name": "",
          "type": "uint256"
        }
      ],
      "stateMutability": "view",
      "type": "function"
    },
    {
      "inputs": [
        {
          "internalType": "string",
          "name": "Wallet",
          "type": "string"
        }
      ],
      "name": "getSearchEventbyWallet",
      "outputs": [
        {
          "internalType": "string[]",
          "name": "",
          "type": "string[]"
        }
      ],
      "stateMutability": "view",
      "type": "function"
    },
    {
      "inputs": [
        {
          "internalType": "uint256",
          "name": "Grantid",
          "type": "uint256"
        },
        {
          "internalType": "uint256",
          "name": "ProjectId",
          "type": "uint256"
        }
      ],
      "name": "getSearchedGrantVoteProject",
      "outputs": [
        {
          "internalType": "string[]",
          "name": "",
          "type": "string[]"
        }
      ],
      "stateMutability": "view",
      "type": "function"
    },
    {
      "inputs": [
        {
          "internalType": "uint256",
          "name": "Grantid",
          "type": "uint256"
        }
      ],
      "name": "getSearchedProjectByGrantID",
      "outputs": [
        {
          "internalType": "uint256[]",
          "name": "",
          "type": "uint256[]"
        }
      ],
      "stateMutability": "view",
      "type": "function"
    },
    {
      "inputs": [
        {
          "internalType": "uint256",
          "name": "TokenID",
          "type": "uint256"
        }
      ],
      "name": "getTotalBid",
      "outputs": [
        {
          "internalType": "string[]",
          "name": "",
          "type": "string[]"
        }
      ],
      "stateMutability": "view",
      "type": "function"
    },
    {
      "inputs": [
        {
          "internalType": "string",
          "name": "_tokenURI",
          "type": "string"
        }
      ],
      "name": "gettokenIdByUri",
      "outputs": [
        {
          "internalType": "uint256",
          "name": "",
          "type": "uint256"
        }
      ],
      "stateMutability": "view",
      "type": "function"
    },
    {
      "inputs": [
        {
          "internalType": "uint256",
          "name": "EventID",
          "type": "uint256"
        }
      ],
      "name": "gettokenSearchEventTotal",
      "outputs": [
        {
          "internalType": "string[]",
          "name": "",
          "type": "string[]"
        }
      ],
      "stateMutability": "view",
      "type": "function"
    },
    {
      "inputs": [
        {
          "internalType": "address",
          "name": "owner",
          "type": "address"
        },
        {
          "internalType": "address",
          "name": "operator",
          "type": "address"
        }
      ],
      "name": "isApprovedForAll",
      "outputs": [
        {
          "internalType": "bool",
          "name": "",
          "type": "bool"
        }
      ],
      "stateMutability": "view",
      "type": "function"
    },
    {
      "inputs": [],
      "name": "name",
      "outputs": [
        {
          "internalType": "string",
          "name": "",
          "type": "string"
        }
      ],
      "stateMutability": "view",
      "type": "function"
    },
    {
      "inputs": [
        {
          "internalType": "uint256",
          "name": "tokenId",
          "type": "uint256"
        }
      ],
      "name": "ownerOf",
      "outputs": [
        {
          "internalType": "address",
          "name": "",
          "type": "address"
        }
      ],
      "stateMutability": "view",
      "type": "function"
    },
    {
      "inputs": [
        {
          "internalType": "address",
          "name": "from",
          "type": "address"
        },
        {
          "internalType": "address",
          "name": "to",
          "type": "address"
        },
        {
          "internalType": "uint256",
          "name": "tokenId",
          "type": "uint256"
        }
      ],
      "name": "safeTransferFrom",
      "outputs": [],
      "stateMutability": "nonpayable",
      "type": "function"
    },
    {
      "inputs": [
        {
          "internalType": "address",
          "name": "from",
          "type": "address"
        },
        {
          "internalType": "address",
          "name": "to",
          "type": "address"
        },
        {
          "internalType": "uint256",
          "name": "tokenId",
          "type": "uint256"
        },
        {
          "internalType": "bytes",
          "name": "_data",
          "type": "bytes"
        }
      ],
      "name": "safeTransferFrom",
      "outputs": [],
      "stateMutability": "nonpayable",
      "type": "function"
    },
    {
      "inputs": [
        {
          "internalType": "address",
          "name": "operator",
          "type": "address"
        },
        {
          "internalType": "bool",
          "name": "approved",
          "type": "bool"
        }
      ],
      "name": "setApprovalForAll",
      "outputs": [],
      "stateMutability": "nonpayable",
      "type": "function"
    },
    {
      "inputs": [
        {
          "internalType": "uint256",
          "name": "GrantProjectId",
          "type": "uint256"
        },
        {
          "internalType": "uint256",
          "name": "ProjectId",
          "type": "uint256"
        },
        {
          "internalType": "uint256",
          "name": "GranttId",
          "type": "uint256"
        }
      ],
      "name": "setGrantProject",
      "outputs": [],
      "stateMutability": "nonpayable",
      "type": "function"
    },
    {
      "inputs": [
        {
          "internalType": "uint256",
          "name": "GrantVoteId",
          "type": "uint256"
        },
        {
          "internalType": "string",
          "name": "Wallet",
          "type": "string"
        },
        {
          "internalType": "string",
          "name": "ProjectId",
          "type": "string"
        },
        {
          "internalType": "string",
          "name": "GranttId",
          "type": "string"
        }
      ],
      "name": "setGrantVote",
      "outputs": [],
      "stateMutability": "nonpayable",
      "type": "function"
    },
    {
      "inputs": [
        {
          "internalType": "bytes4",
          "name": "interfaceId",
          "type": "bytes4"
        }
      ],
      "name": "supportsInterface",
      "outputs": [
        {
          "internalType": "bool",
          "name": "",
          "type": "bool"
        }
      ],
      "stateMutability": "view",
      "type": "function"
    },
    {
      "inputs": [],
      "name": "symbol",
      "outputs": [
        {
          "internalType": "string",
          "name": "",
          "type": "string"
        }
      ],
      "stateMutability": "view",
      "type": "function"
    },
    {
      "inputs": [
        {
          "internalType": "uint256",
          "name": "tokenId",
          "type": "uint256"
        }
      ],
      "name": "tokenURI",
      "outputs": [
        {
          "internalType": "string",
          "name": "",
          "type": "string"
        }
      ],
      "stateMutability": "view",
      "type": "function"
    },
    {
      "inputs": [],
      "name": "totalEvent",
      "outputs": [
        {
          "internalType": "uint256",
          "name": "",
          "type": "uint256"
        }
      ],
      "stateMutability": "view",
      "type": "function"
    },
    {
      "inputs": [],
      "name": "totalGrantEvent",
      "outputs": [
        {
          "internalType": "uint256",
          "name": "",
          "type": "uint256"
        }
      ],
      "stateMutability": "view",
      "type": "function"
    },
    {
      "inputs": [],
      "name": "totalSupply",
      "outputs": [
        {
          "internalType": "uint256",
          "name": "",
          "type": "uint256"
        }
      ],
      "stateMutability": "view",
      "type": "function"
    },
    {
      "inputs": [
        {
          "internalType": "address",
          "name": "from",
          "type": "address"
        },
        {
          "internalType": "address",
          "name": "to",
          "type": "address"
        },
        {
          "internalType": "uint256",
          "name": "tokenId",
          "type": "uint256"
        }
      ],
      "name": "transferFrom",
      "outputs": [],
      "stateMutability": "nonpayable",
      "type": "function"
    }
  ],
  "transactionHash": "0x2258d1ad7b728b95ff1424ebf5a73644cba24fe52b3bdb1d9595aba3a47ed7bf",
  "args": [
    "CUSD",
    "cUSD"
  ],
  "numDeployments": 16,
  "solcInputHash": "8a3ee4202ea78f90134399fcec0c547d",
  "bytecode": "0x60806040523480156200001157600080fd5b5060405162005628380380620056288339818101604052810190620000379190620001a3565b818181600090805190602001906200005192919062000075565b5080600190805190602001906200006a92919062000075565b5050505050620003ac565b8280546200008390620002bd565b90600052602060002090601f016020900481019282620000a75760008555620000f3565b82601f10620000c257805160ff1916838001178555620000f3565b82800160010185558215620000f3579182015b82811115620000f2578251825591602001919060010190620000d5565b5b50905062000102919062000106565b5090565b5b808211156200012157600081600090555060010162000107565b5090565b60006200013c620001368462000251565b62000228565b9050828152602081018484840111156200015b576200015a6200038c565b5b6200016884828562000287565b509392505050565b600082601f83011262000188576200018762000387565b5b81516200019a84826020860162000125565b91505092915050565b60008060408385031215620001bd57620001bc62000396565b5b600083015167ffffffffffffffff811115620001de57620001dd62000391565b5b620001ec8582860162000170565b925050602083015167ffffffffffffffff81111562000210576200020f62000391565b5b6200021e8582860162000170565b9150509250929050565b60006200023462000247565b9050620002428282620002f3565b919050565b6000604051905090565b600067ffffffffffffffff8211156200026f576200026e62000358565b5b6200027a826200039b565b9050602081019050919050565b60005b83811015620002a75780820151818401526020810190506200028a565b83811115620002b7576000848401525b50505050565b60006002820490506001821680620002d657607f821691505b60208210811415620002ed57620002ec62000329565b5b50919050565b620002fe826200039b565b810181811067ffffffffffffffff8211171562000320576200031f62000358565b5b80604052505050565b7f4e487b7100000000000000000000000000000000000000000000000000000000600052602260045260246000fd5b7f4e487b7100000000000000000000000000000000000000000000000000000000600052604160045260246000fd5b600080fd5b600080fd5b600080fd5b600080fd5b6000601f19601f8301169050919050565b61526c80620003bc6000396000f3fe608060405234801561001057600080fd5b506004361061030c5760003560e01c80637cedbc1e1161019d578063c08e953d116100e9578063dfc5e169116100a2578063e985e9c51161007c578063e985e9c514610a69578063eb1d234d14610a99578063f327579414610ac9578063f880eb1914610ae55761030c565b8063dfc5e169146109ed578063e08033d314610a1d578063e257a94c14610a395761030c565b8063c08e953d14610905578063c87b56dd14610935578063cef80b3a14610965578063d45fc51614610983578063d654e993146109b3578063dcbe2ed9146109cf5761030c565b806396d5a73911610156578063a99bee2e11610130578063a99bee2e1461086b578063aed4796114610889578063b10a5dfa146108b9578063b88d4fde146108e95761030c565b806396d5a739146107ef578063a0fd0c6a1461081f578063a22cb4651461084f5761030c565b80637cedbc1e146107075780637eadfa6a1461073757806384eb8f6814610755578063912101cf14610771578063932a196b146107a157806395d89b41146107d15761030c565b806335011d901161025c5780634ef4e80f1161021557806353c227cc116101ef57806353c227cc1461065b578063619581581461068b5780636352211e146106a757806370a08231146106d75761030c565b80634ef4e80f146105cb5780635154380a146105fb578063523796271461062b5761030c565b806335011d90146104d35780633592dd8014610503578063390532711461051f57806342842e0e1461054f578063446a92e31461056b5780634eb083ec1461059b5761030c565b80630da3c49c116102c957806318160ddd116102a357806318160ddd146104395780631e65e1171461045757806323b872dd1461048757806328520ab7146104a35761030c565b80630da3c49c146103e3578063144cbca6146103ff5780631677bf081461041d5761030c565b8063015388681461031157806301ffc9a71461032d57806306fdde031461035d578063081812fc1461037b578063095ea7b3146103ab5780630ae240cf146103c7575b600080fd5b61032b60048036038101906103269190613d78565b610b03565b005b61034760048036038101906103429190613bc1565b610b77565b6040516103549190614686565b60405180910390f35b610365610c59565b60405161037291906146a1565b60405180910390f35b61039560048036038101906103909190613d4b565b610ceb565b6040516103a291906145b9565b60405180910390f35b6103c560048036038101906103c09190613b81565b610d70565b005b6103e160048036038101906103dc9190613e5f565b610e88565b005b6103fd60048036038101906103f89190613f1a565b610ecb565b005b610407610feb565b60405161041491906148a3565b60405180910390f35b61043760048036038101906104329190613d78565b610ff1565b005b61044161101d565b60405161044e91906148a3565b60405180910390f35b610471600480360381019061046c9190613c1b565b611027565b60405161047e9190614642565b60405180910390f35b6104a1600480360381019061049c91906139fc565b61124b565b005b6104bd60048036038101906104b89190613d78565b6112ab565b6040516104ca91906148a3565b60405180910390f35b6104ed60048036038101906104e89190613b12565b611384565b6040516104fa91906148a3565b60405180910390f35b61051d60048036038101906105189190613ff9565b6113e7565b005b61053960048036038101906105349190613fb9565b61142b565b6040516105469190614686565b60405180910390f35b610569600480360381019061056491906139fc565b6114c7565b005b61058560048036038101906105809190613d4b565b6114e7565b60405161059291906146a1565b60405180910390f35b6105b560048036038101906105b09190613d4b565b61158c565b6040516105c291906146a1565b60405180910390f35b6105e560048036038101906105e09190613fb9565b611631565b6040516105f291906148a3565b60405180910390f35b61061560048036038101906106109190613d4b565b611663565b6040516106229190614642565b60405180910390f35b61064560048036038101906106409190613c1b565b611813565b60405161065291906148a3565b60405180910390f35b61067560048036038101906106709190613d4b565b611843565b60405161068291906146a1565b60405180910390f35b6106a560048036038101906106a09190613dd4565b6118e3565b005b6106c160048036038101906106bc9190613d4b565b61197c565b6040516106ce91906145b9565b60405180910390f35b6106f160048036038101906106ec919061398f565b611a2e565b6040516106fe91906148a3565b60405180910390f35b610721600480360381019061071c9190613d4b565b611ae6565b60405161072e91906146a1565b60405180910390f35b61073f611b9f565b60405161074c91906148a3565b60405180910390f35b61076f600480360381019061076a9190613d78565b611ba9565b005b61078b60048036038101906107869190613fb9565b611bd5565b6040516107989190614642565b60405180910390f35b6107bb60048036038101906107b69190613c1b565b611eb4565b6040516107c891906148a3565b60405180910390f35b6107d9611f23565b6040516107e691906146a1565b60405180910390f35b61080960048036038101906108049190613d4b565b611fb5565b6040516108169190614664565b60405180910390f35b61083960048036038101906108349190613d4b565b612117565b6040516108469190614620565b60405180910390f35b61086960048036038101906108649190613ad2565b6121f7565b005b61087361220d565b60405161088091906148a3565b60405180910390f35b6108a3600480360381019061089e9190613d4b565b612213565b6040516108b09190614642565b60405180910390f35b6108d360048036038101906108ce9190613fb9565b6123c3565b6040516108e091906146a1565b60405180910390f35b61090360048036038101906108fe9190613a4f565b612473565b005b61091f600480360381019061091a9190613cdc565b6124d5565b60405161092c91906148a3565b60405180910390f35b61094f600480360381019061094a9190613d4b565b612519565b60405161095c91906146a1565b60405180910390f35b61096d612606565b60405161097a91906148a3565b60405180910390f35b61099d60048036038101906109989190613c1b565b61260c565b6040516109aa91906148a3565b60405180910390f35b6109cd60048036038101906109c89190613ff9565b61267b565b005b6109d76126bf565b6040516109e491906148a3565b60405180910390f35b610a076004803603810190610a029190613d4b565b6126c5565b604051610a1491906146a1565b60405180910390f35b610a376004803603810190610a329190613d78565b612765565b005b610a536004803603810190610a4e9190613c64565b612791565b604051610a6091906148a3565b60405180910390f35b610a836004803603810190610a7e91906139bc565b612804565b604051610a909190614686565b60405180910390f35b610ab36004803603810190610aae9190613d4b565b612898565b604051610ac09190614642565b60405180910390f35b610ae36004803603810190610ade9190614068565b612a48565b005b610aed612a84565b604051610afa91906148a3565b60405180910390f35b610b0c82612a8e565b610b4b576040517f08c379a0000000000000000000000000000000000000000000000000000000008152600401610b4290614823565b60405180910390fd5b80601560008481526020019081526020016000209080519060200190610b72929190613632565b505050565b60007f80ac58cd000000000000000000000000000000000000000000000000000000007bffffffffffffffffffffffffffffffffffffffffffffffffffffffff1916827bffffffffffffffffffffffffffffffffffffffffffffffffffffffff19161480610c4257507f5b5e139f000000000000000000000000000000000000000000000000000000007bffffffffffffffffffffffffffffffffffffffffffffffffffffffff1916827bffffffffffffffffffffffffffffffffffffffffffffffffffffffff1916145b80610c525750610c5182612afa565b5b9050919050565b606060008054610c6890614bbe565b80601f0160208091040260200160405190810160405280929190818152602001828054610c9490614bbe565b8015610ce15780601f10610cb657610100808354040283529160200191610ce1565b820191906000526020600020905b815481529060010190602001808311610cc457829003601f168201915b5050505050905090565b6000610cf682612a8e565b610d35576040517f08c379a0000000000000000000000000000000000000000000000000000000008152600401610d2c90614803565b60405180910390fd5b6004600083815260200190815260200160002060009054906101000a900473ffffffffffffffffffffffffffffffffffffffff169050919050565b6000610d7b8261197c565b90508073ffffffffffffffffffffffffffffffffffffffff168373ffffffffffffffffffffffffffffffffffffffff161415610dec576040517f08c379a0000000000000000000000000000000000000000000000000000000008152600401610de390614863565b60405180910390fd5b8073ffffffffffffffffffffffffffffffffffffffff16610e0b612b64565b73ffffffffffffffffffffffffffffffffffffffff161480610e3a5750610e3981610e34612b64565b612804565b5b610e79576040517f08c379a0000000000000000000000000000000000000000000000000000000008152600401610e7090614783565b60405180910390fd5b610e838383612b6c565b505050565b60405180606001604052808281526020018381526020018481525060106000868152602001908152602001600020906003610ec49291906136b8565b5050505050565b6000610f7282601560008881526020019081526020016000208054610eef90614bbe565b80601f0160208091040260200160405190810160405280929190818152602001828054610f1b90614bbe565b8015610f685780601f10610f3d57610100808354040283529160200191610f68565b820191906000526020600020905b815481529060010190602001808311610f4b57829003601f168201915b50505050506112ab565b905082601560008781526020019081526020016000209080519060200190610f9b929190613632565b50610fa78183856113e7565b610fb4600d54868661267b565b600d6000815480929190610fc790614c21565b919050555060076000815480929190610fdf90614c21565b91905055505050505050565b600e5481565b80601960008481526020019081526020016000209080519060200190611018929190613632565b505050565b6000600654905090565b606060008060005b6008548110156110a55784805190602001206016600083815260200190815260200160002060006002811061106757611066614d28565b5b0160405161107591906145a2565b6040518091039020141561109257828061108e90614c21565b9350505b808061109d90614c21565b91505061102f565b5060008267ffffffffffffffff8111156110c2576110c1614d57565b5b6040519080825280602002602001820160405280156110f557816020015b60608152602001906001900390816110e05790505b50905060005b60085481101561123f5785805190602001206016600083815260200190815260200160002060006002811061113357611132614d28565b5b0160405161114191906145a2565b6040518091039020141561122c576016600082815260200190815260200160002060016002811061117557611174614d28565b5b01805461118190614bbe565b80601f01602080910402602001604051908101604052809291908181526020018280546111ad90614bbe565b80156111fa5780601f106111cf576101008083540402835291602001916111fa565b820191906000526020600020905b8154815290600101906020018083116111dd57829003601f168201915b505050505082848151811061121257611211614d28565b5b6020026020010181905250828061122890614c21565b9350505b808061123790614c21565b9150506110fb565b50809350505050919050565b61125c611256612b64565b82612c25565b61129b576040517f08c379a000000000000000000000000000000000000000000000000000000000815260040161129290614883565b60405180910390fd5b6112a6838383612d03565b505050565b600080600090505b600c54811015611378576112c684612f6a565b80519060200120600f60008381526020019081526020016000206000600281106112f3576112f2614d28565b5b0160405161130191906145a2565b604051809103902014801561135757508280519060200120600f600083815260200190815260200160002060016002811061133f5761133e614d28565b5b0160405161134d91906145a2565b6040518091039020145b15611365578091505061137e565b808061137090614c21565b9150506112b3565b50600090505b92915050565b6000611392846006546130cb565b61139e60065484610b03565b6113ab600c5483856113e7565b600660008154809291906113be90614c21565b9190505550600c60008154809291906113d690614c21565b919050555060065490509392505050565b60405180604001604052806113fb84612f6a565b815260200182815250600f600085815260200190815260200160002090600261142592919061370b565b50505050565b600080600090505b600a548110156114bb57836011600083815260200190815260200160002060006002811061146457611463614d28565b5b01541480156114995750826011600083815260200190815260200160002060016002811061149557611494614d28565b5b0154145b156114a85760019150506114c1565b80806114b390614c21565b915050611433565b50600090505b92915050565b6114e283838360405180602001604052806000815250612473565b505050565b606060146000838152602001908152602001600020805461150790614bbe565b80601f016020809104026020016040519081016040528092919081815260200182805461153390614bbe565b80156115805780601f1061155557610100808354040283529160200191611580565b820191906000526020600020905b81548152906001019060200180831161156357829003601f168201915b50505050509050919050565b60606019600083815260200190815260200160002080546115ac90614bbe565b80601f01602080910402602001604051908101604052809291908181526020018280546115d890614bbe565b80156116255780601f106115fa57610100808354040283529160200191611625565b820191906000526020600020905b81548152906001019060200180831161160857829003601f168201915b50505050509050919050565b6000611640600a548484612a48565b600a600081548092919061165390614c21565b9190505550600a54905092915050565b60606000600a67ffffffffffffffff81111561168257611681614d57565b5b6040519080825280602002602001820160405280156116b557816020015b60608152602001906001900390816116a05790505b5090506000805b600d54811015611808576116cf85612f6a565b80519060200120601260008381526020019081526020016000206000600281106116fc576116fb614d28565b5b0160405161170a91906145a2565b604051809103902014156117f5576012600082815260200190815260200160002060016002811061173e5761173d614d28565b5b01805461174a90614bbe565b80601f016020809104026020016040519081016040528092919081815260200182805461177690614bbe565b80156117c35780601f10611798576101008083540402835291602001916117c3565b820191906000526020600020905b8154815290600101906020018083116117a657829003601f168201915b50505050508383815181106117db576117da614d28565b5b602002602001018190525081806117f190614c21565b9250505b808061180090614c21565b9150506116bc565b508192505050919050565b600061182160095483611ba9565b6009600081548092919061183490614c21565b91905055506009549050919050565b6018602052806000526040600020600091509050805461186290614bbe565b80601f016020809104026020016040519081016040528092919081815260200182805461188e90614bbe565b80156118db5780601f106118b0576101008083540402835291602001916118db565b820191906000526020600020905b8154815290600101906020018083116118be57829003601f168201915b505050505081565b6040518060400160405280838152602001828152506016600085815260200190815260200160002090600261191992919061370b565b506040518060400160405280600181526020017f3000000000000000000000000000000000000000000000000000000000000000815250601960008581526020019081526020016000209080519060200190611976929190613632565b50505050565b6000806002600084815260200190815260200160002060009054906101000a900473ffffffffffffffffffffffffffffffffffffffff169050600073ffffffffffffffffffffffffffffffffffffffff168173ffffffffffffffffffffffffffffffffffffffff161415611a25576040517f08c379a0000000000000000000000000000000000000000000000000000000008152600401611a1c906147c3565b60405180910390fd5b80915050919050565b60008073ffffffffffffffffffffffffffffffffffffffff168273ffffffffffffffffffffffffffffffffffffffff161415611a9f576040517f08c379a0000000000000000000000000000000000000000000000000000000008152600401611a96906147a3565b60405180910390fd5b600360008373ffffffffffffffffffffffffffffffffffffffff1673ffffffffffffffffffffffffffffffffffffffff168152602001908152602001600020549050919050565b606060136000838152602001908152602001600020600060028110611b0e57611b0d614d28565b5b018054611b1a90614bbe565b80601f0160208091040260200160405190810160405280929190818152602001828054611b4690614bbe565b8015611b935780601f10611b6857610100808354040283529160200191611b93565b820191906000526020600020905b815481529060010190602001808311611b7657829003601f168201915b50505050509050919050565b6000600854905090565b80601760008481526020019081526020016000209080519060200190611bd0929190613632565b505050565b606060008060005b600b54811015611cb057611bf086612f6a565b8051906020012060106000838152602001908152602001600020600060038110611c1d57611c1c614d28565b5b01604051611c2b91906145a2565b6040518091039020148015611c895750611c4485612f6a565b8051906020012060106000838152602001908152602001600020600160038110611c7157611c70614d28565b5b01604051611c7f91906145a2565b6040518091039020145b15611c9d578280611c9990614c21565b9350505b8080611ca890614c21565b915050611bdd565b5060008267ffffffffffffffff811115611ccd57611ccc614d57565b5b604051908082528060200260200182016040528015611d0057816020015b6060815260200190600190039081611ceb5790505b50905060005b600b54811015611ea757611d1987612f6a565b8051906020012060106000838152602001908152602001600020600060038110611d4657611d45614d28565b5b01604051611d5491906145a2565b6040518091039020148015611db25750611d6d86612f6a565b8051906020012060106000838152602001908152602001600020600160038110611d9a57611d99614d28565b5b01604051611da891906145a2565b6040518091039020145b15611e945760106000828152602001908152602001600020600260038110611ddd57611ddc614d28565b5b018054611de990614bbe565b80601f0160208091040260200160405190810160405280929190818152602001828054611e1590614bbe565b8015611e625780601f10611e3757610100808354040283529160200191611e62565b820191906000526020600020905b815481529060010190602001808311611e4557829003601f168201915b5050505050828481518110611e7a57611e79614d28565b5b60200260200101819052508280611e9090614c21565b9350505b8080611e9f90614c21565b915050611d06565b5080935050505092915050565b600080600090505b600654811015611f1857828051906020012060156000838152602001908152602001600020604051611eee91906145a2565b60405180910390201415611f055780915050611f1e565b8080611f1090614c21565b915050611ebc565b50600090505b919050565b606060018054611f3290614bbe565b80601f0160208091040260200160405190810160405280929190818152602001828054611f5e90614bbe565b8015611fab5780601f10611f8057610100808354040283529160200191611fab565b820191906000526020600020905b815481529060010190602001808311611f8e57829003601f168201915b5050505050905090565b606060008060005b600a54811015612018578460116000838152602001908152602001600020600060028110611fee57611fed614d28565b5b0154141561200557828061200190614c21565b9350505b808061201090614c21565b915050611fbd565b5060008267ffffffffffffffff81111561203557612034614d57565b5b6040519080825280602002602001820160405280156120635781602001602082028036833780820191505090505b50905060005b600a5481101561210b57856011600083815260200190815260200160002060006002811061209a57612099614d28565b5b015414156120f857601160008281526020019081526020016000206001600281106120c8576120c7614d28565b5b01548284815181106120dd576120dc614d28565b5b60200260200101818152505082806120f490614c21565b9350505b808061210390614c21565b915050612069565b50809350505050919050565b61211f61375e565b60166000838152602001908152602001600020600280602002604051908101604052809291906000905b828210156121ec57838201805461215f90614bbe565b80601f016020809104026020016040519081016040528092919081815260200182805461218b90614bbe565b80156121d85780601f106121ad576101008083540402835291602001916121d8565b820191906000526020600020905b8154815290600101906020018083116121bb57829003601f168201915b505050505081526020019060010190612149565b505050509050919050565b612209612202612b64565b83836132a5565b5050565b60095481565b60606000600a67ffffffffffffffff81111561223257612231614d57565b5b60405190808252806020026020018201604052801561226557816020015b60608152602001906001900390816122505790505b5090506000805b600d548110156123b85761227f85612f6a565b80519060200120601260008381526020019081526020016000206000600281106122ac576122ab614d28565b5b016040516122ba91906145a2565b604051809103902014156123a557601260008281526020019081526020016000206001600281106122ee576122ed614d28565b5b0180546122fa90614bbe565b80601f016020809104026020016040519081016040528092919081815260200182805461232690614bbe565b80156123735780601f1061234857610100808354040283529160200191612373565b820191906000526020600020905b81548152906001019060200180831161235657829003601f168201915b505050505083838151811061238b5761238a614d28565b5b602002602001018190525081806123a190614c21565b9250505b80806123b090614c21565b91505061226c565b508192505050919050565b601360205281600052604060002081600281106123df57600080fd5b016000915091505080546123f290614bbe565b80601f016020809104026020016040519081016040528092919081815260200182805461241e90614bbe565b801561246b5780601f106124405761010080835404028352916020019161246b565b820191906000526020600020905b81548152906001019060200180831161244e57829003601f168201915b505050505081565b61248461247e612b64565b83612c25565b6124c3576040517f08c379a00000000000000000000000000000000000000000000000000000000081526004016124ba90614883565b60405180910390fd5b6124cf84848484613412565b50505050565b60006124f5600b54856124e786612f6a565b6124f086612f6a565b610e88565b600b600081548092919061250890614c21565b9190505550600b5490509392505050565b606061252482612a8e565b612563576040517f08c379a000000000000000000000000000000000000000000000000000000000815260040161255a90614843565b60405180910390fd5b60156000838152602001908152602001600020805461258190614bbe565b80601f01602080910402602001604051908101604052809291908181526020018280546125ad90614bbe565b80156125fa5780601f106125cf576101008083540402835291602001916125fa565b820191906000526020600020905b8154815290600101906020018083116125dd57829003601f168201915b50505050509050919050565b600a5481565b600080600090505b6007548110156126705782805190602001206014600083815260200190815260200160002060405161264691906145a2565b6040518091039020141561265d5780915050612676565b808061266890614c21565b915050612614565b50600090505b919050565b604051806040016040528061268f84612f6a565b815260200182815250601260008581526020019081526020016000209060026126b992919061370b565b50505050565b600b5481565b601760205280600052604060002060009150905080546126e490614bbe565b80601f016020809104026020016040519081016040528092919081815260200182805461271090614bbe565b801561275d5780601f106127325761010080835404028352916020019161275d565b820191906000526020600020905b81548152906001019060200180831161274057829003601f168201915b505050505081565b8060146000848152602001908152602001600020908051906020019061278c929190613632565b505050565b60006127a060085484846118e3565b6127e16008546040518060400160405280600181526020017f3000000000000000000000000000000000000000000000000000000000000000815250610ff1565b600860008154809291906127f490614c21565b9190505550600854905092915050565b6000600560008473ffffffffffffffffffffffffffffffffffffffff1673ffffffffffffffffffffffffffffffffffffffff16815260200190815260200160002060008373ffffffffffffffffffffffffffffffffffffffff1673ffffffffffffffffffffffffffffffffffffffff16815260200190815260200160002060009054906101000a900460ff16905092915050565b60606000600a67ffffffffffffffff8111156128b7576128b6614d57565b5b6040519080825280602002602001820160405280156128ea57816020015b60608152602001906001900390816128d55790505b5090506000805b600c54811015612a3d5761290485612f6a565b80519060200120600f600083815260200190815260200160002060006002811061293157612930614d28565b5b0160405161293f91906145a2565b60405180910390201415612a2a57600f600082815260200190815260200160002060016002811061297357612972614d28565b5b01805461297f90614bbe565b80601f01602080910402602001604051908101604052809291908181526020018280546129ab90614bbe565b80156129f85780601f106129cd576101008083540402835291602001916129f8565b820191906000526020600020905b8154815290600101906020018083116129db57829003601f168201915b5050505050838381518110612a1057612a0f614d28565b5b60200260200101819052508180612a2690614c21565b9250505b8080612a3590614c21565b9150506128f1565b508192505050919050565b60405180604001604052808281526020018381525060116000858152602001908152602001600020906002612a7e929190613785565b50505050565b6000600a54905090565b60008073ffffffffffffffffffffffffffffffffffffffff166002600084815260200190815260200160002060009054906101000a900473ffffffffffffffffffffffffffffffffffffffff1673ffffffffffffffffffffffffffffffffffffffff1614159050919050565b60007f01ffc9a7000000000000000000000000000000000000000000000000000000007bffffffffffffffffffffffffffffffffffffffffffffffffffffffff1916827bffffffffffffffffffffffffffffffffffffffffffffffffffffffff1916149050919050565b600033905090565b816004600083815260200190815260200160002060006101000a81548173ffffffffffffffffffffffffffffffffffffffff021916908373ffffffffffffffffffffffffffffffffffffffff160217905550808273ffffffffffffffffffffffffffffffffffffffff16612bdf8361197c565b73ffffffffffffffffffffffffffffffffffffffff167f8c5be1e5ebec7d5bd14f71427d1e84f3dd0314c0f7b2291e5b200ac8c7c3b92560405160405180910390a45050565b6000612c3082612a8e565b612c6f576040517f08c379a0000000000000000000000000000000000000000000000000000000008152600401612c6690614763565b60405180910390fd5b6000612c7a8361197c565b90508073ffffffffffffffffffffffffffffffffffffffff168473ffffffffffffffffffffffffffffffffffffffff161480612cbc5750612cbb8185612804565b5b80612cfa57508373ffffffffffffffffffffffffffffffffffffffff16612ce284610ceb565b73ffffffffffffffffffffffffffffffffffffffff16145b91505092915050565b8273ffffffffffffffffffffffffffffffffffffffff16612d238261197c565b73ffffffffffffffffffffffffffffffffffffffff1614612d79576040517f08c379a0000000000000000000000000000000000000000000000000000000008152600401612d70906146e3565b60405180910390fd5b600073ffffffffffffffffffffffffffffffffffffffff168273ffffffffffffffffffffffffffffffffffffffff161415612de9576040517f08c379a0000000000000000000000000000000000000000000000000000000008152600401612de090614723565b60405180910390fd5b612df483838361346e565b612dff600082612b6c565b6001600360008573ffffffffffffffffffffffffffffffffffffffff1673ffffffffffffffffffffffffffffffffffffffff1681526020019081526020016000206000828254612e4f9190614ad4565b925050819055506001600360008473ffffffffffffffffffffffffffffffffffffffff1673ffffffffffffffffffffffffffffffffffffffff1681526020019081526020016000206000828254612ea69190614a4d565b92505081905550816002600083815260200190815260200160002060006101000a81548173ffffffffffffffffffffffffffffffffffffffff021916908373ffffffffffffffffffffffffffffffffffffffff160217905550808273ffffffffffffffffffffffffffffffffffffffff168473ffffffffffffffffffffffffffffffffffffffff167fddf252ad1be2c89b69c2b068fc378daa952ba7f163c4a11628f55a4df523b3ef60405160405180910390a4612f65838383613473565b505050565b60606000821415612fb2576040518060400160405280600181526020017f300000000000000000000000000000000000000000000000000000000000000081525090506130c6565b600082905060005b60008214612fe4578080612fcd90614c21565b915050600a82612fdd9190614aa3565b9150612fba565b60008167ffffffffffffffff81111561300057612fff614d57565b5b6040519080825280601f01601f1916602001820160405280156130325781602001600182028036833780820191505090505b5090505b600085146130bf5760018261304b9190614ad4565b9150600a8561305a9190614c6a565b60306130669190614a4d565b60f81b81838151811061307c5761307b614d28565b5b60200101907effffffffffffffffffffffffffffffffffffffffffffffffffffffffffffff1916908160001a905350600a856130b89190614aa3565b9450613036565b8093505050505b919050565b600073ffffffffffffffffffffffffffffffffffffffff168273ffffffffffffffffffffffffffffffffffffffff16141561313b576040517f08c379a0000000000000000000000000000000000000000000000000000000008152600401613132906147e3565b60405180910390fd5b61314481612a8e565b15613184576040517f08c379a000000000000000000000000000000000000000000000000000000000815260040161317b90614703565b60405180910390fd5b6131906000838361346e565b6001600360008473ffffffffffffffffffffffffffffffffffffffff1673ffffffffffffffffffffffffffffffffffffffff16815260200190815260200160002060008282546131e09190614a4d565b92505081905550816002600083815260200190815260200160002060006101000a81548173ffffffffffffffffffffffffffffffffffffffff021916908373ffffffffffffffffffffffffffffffffffffffff160217905550808273ffffffffffffffffffffffffffffffffffffffff16600073ffffffffffffffffffffffffffffffffffffffff167fddf252ad1be2c89b69c2b068fc378daa952ba7f163c4a11628f55a4df523b3ef60405160405180910390a46132a160008383613473565b5050565b8173ffffffffffffffffffffffffffffffffffffffff168373ffffffffffffffffffffffffffffffffffffffff161415613314576040517f08c379a000000000000000000000000000000000000000000000000000000000815260040161330b90614743565b60405180910390fd5b80600560008573ffffffffffffffffffffffffffffffffffffffff1673ffffffffffffffffffffffffffffffffffffffff16815260200190815260200160002060008473ffffffffffffffffffffffffffffffffffffffff1673ffffffffffffffffffffffffffffffffffffffff16815260200190815260200160002060006101000a81548160ff0219169083151502179055508173ffffffffffffffffffffffffffffffffffffffff168373ffffffffffffffffffffffffffffffffffffffff167f17307eab39ab6107e8899845ad3d59bd9653f200f220920489ca2b5937696c31836040516134059190614686565b60405180910390a3505050565b61341d848484612d03565b61342984848484613478565b613468576040517f08c379a000000000000000000000000000000000000000000000000000000000815260040161345f906146c3565b60405180910390fd5b50505050565b505050565b505050565b60006134998473ffffffffffffffffffffffffffffffffffffffff1661360f565b15613602578373ffffffffffffffffffffffffffffffffffffffff1663150b7a026134c2612b64565b8786866040518563ffffffff1660e01b81526004016134e494939291906145d4565b602060405180830381600087803b1580156134fe57600080fd5b505af192505050801561352f57506040513d601f19601f8201168201806040525081019061352c9190613bee565b60015b6135b2573d806000811461355f576040519150601f19603f3d011682016040523d82523d6000602084013e613564565b606091505b506000815114156135aa576040517f08c379a00000000000000000000000000000000000000000000000000000000081526004016135a1906146c3565b60405180910390fd5b805181602001fd5b63150b7a0260e01b7bffffffffffffffffffffffffffffffffffffffffffffffffffffffff1916817bffffffffffffffffffffffffffffffffffffffffffffffffffffffff191614915050613607565b600190505b949350505050565b6000808273ffffffffffffffffffffffffffffffffffffffff163b119050919050565b82805461363e90614bbe565b90600052602060002090601f01602090048101928261366057600085556136a7565b82601f1061367957805160ff19168380011785556136a7565b828001600101855582156136a7579182015b828111156136a657825182559160200191906001019061368b565b5b5090506136b491906137c5565b5090565b82600381019282156136fa579160200282015b828111156136f95782518290805190602001906136e9929190613632565b50916020019190600101906136cb565b5b50905061370791906137e2565b5090565b826002810192821561374d579160200282015b8281111561374c57825182908051906020019061373c929190613632565b509160200191906001019061371e565b5b50905061375a91906137e2565b5090565b60405180604001604052806002905b606081526020019060019003908161376d5790505090565b82600281019282156137b4579160200282015b828111156137b3578251825591602001919060010190613798565b5b5090506137c191906137c5565b5090565b5b808211156137de5760008160009055506001016137c6565b5090565b5b8082111561380257600081816137f99190613806565b506001016137e3565b5090565b50805461381290614bbe565b6000825580601f106138245750613843565b601f01602090049060005260206000209081019061384291906137c5565b5b50565b6000613859613854846148e3565b6148be565b90508281526020810184848401111561387557613874614d8b565b5b613880848285614b7c565b509392505050565b600061389b61389684614914565b6148be565b9050828152602081018484840111156138b7576138b6614d8b565b5b6138c2848285614b7c565b509392505050565b6000813590506138d9816151da565b92915050565b6000813590506138ee816151f1565b92915050565b60008135905061390381615208565b92915050565b60008151905061391881615208565b92915050565b600082601f83011261393357613932614d86565b5b8135613943848260208601613846565b91505092915050565b600082601f83011261396157613960614d86565b5b8135613971848260208601613888565b91505092915050565b6000813590506139898161521f565b92915050565b6000602082840312156139a5576139a4614d95565b5b60006139b3848285016138ca565b91505092915050565b600080604083850312156139d3576139d2614d95565b5b60006139e1858286016138ca565b92505060206139f2858286016138ca565b9150509250929050565b600080600060608486031215613a1557613a14614d95565b5b6000613a23868287016138ca565b9350506020613a34868287016138ca565b9250506040613a458682870161397a565b9150509250925092565b60008060008060808587031215613a6957613a68614d95565b5b6000613a77878288016138ca565b9450506020613a88878288016138ca565b9350506040613a998782880161397a565b925050606085013567ffffffffffffffff811115613aba57613ab9614d90565b5b613ac68782880161391e565b91505092959194509250565b60008060408385031215613ae957613ae8614d95565b5b6000613af7858286016138ca565b9250506020613b08858286016138df565b9150509250929050565b600080600060608486031215613b2b57613b2a614d95565b5b6000613b39868287016138ca565b935050602084013567ffffffffffffffff811115613b5a57613b59614d90565b5b613b668682870161394c565b9250506040613b778682870161397a565b9150509250925092565b60008060408385031215613b9857613b97614d95565b5b6000613ba6858286016138ca565b9250506020613bb78582860161397a565b9150509250929050565b600060208284031215613bd757613bd6614d95565b5b6000613be5848285016138f4565b91505092915050565b600060208284031215613c0457613c03614d95565b5b6000613c1284828501613909565b91505092915050565b600060208284031215613c3157613c30614d95565b5b600082013567ffffffffffffffff811115613c4f57613c4e614d90565b5b613c5b8482850161394c565b91505092915050565b60008060408385031215613c7b57613c7a614d95565b5b600083013567ffffffffffffffff811115613c9957613c98614d90565b5b613ca58582860161394c565b925050602083013567ffffffffffffffff811115613cc657613cc5614d90565b5b613cd28582860161394c565b9150509250929050565b600080600060608486031215613cf557613cf4614d95565b5b600084013567ffffffffffffffff811115613d1357613d12614d90565b5b613d1f8682870161394c565b9350506020613d308682870161397a565b9250506040613d418682870161397a565b9150509250925092565b600060208284031215613d6157613d60614d95565b5b6000613d6f8482850161397a565b91505092915050565b60008060408385031215613d8f57613d8e614d95565b5b6000613d9d8582860161397a565b925050602083013567ffffffffffffffff811115613dbe57613dbd614d90565b5b613dca8582860161394c565b9150509250929050565b600080600060608486031215613ded57613dec614d95565b5b6000613dfb8682870161397a565b935050602084013567ffffffffffffffff811115613e1c57613e1b614d90565b5b613e288682870161394c565b925050604084013567ffffffffffffffff811115613e4957613e48614d90565b5b613e558682870161394c565b9150509250925092565b60008060008060808587031215613e7957613e78614d95565b5b6000613e878782880161397a565b945050602085013567ffffffffffffffff811115613ea857613ea7614d90565b5b613eb48782880161394c565b935050604085013567ffffffffffffffff811115613ed557613ed4614d90565b5b613ee18782880161394c565b925050606085013567ffffffffffffffff811115613f0257613f01614d90565b5b613f0e8782880161394c565b91505092959194509250565b60008060008060808587031215613f3457613f33614d95565b5b6000613f428782880161397a565b945050602085013567ffffffffffffffff811115613f6357613f62614d90565b5b613f6f8782880161394c565b935050604085013567ffffffffffffffff811115613f9057613f8f614d90565b5b613f9c8782880161394c565b9250506060613fad8782880161397a565b91505092959194509250565b60008060408385031215613fd057613fcf614d95565b5b6000613fde8582860161397a565b9250506020613fef8582860161397a565b9150509250929050565b60008060006060848603121561401257614011614d95565b5b60006140208682870161397a565b93505060206140318682870161397a565b925050604084013567ffffffffffffffff81111561405257614051614d90565b5b61405e8682870161394c565b9150509250925092565b60008060006060848603121561408157614080614d95565b5b600061408f8682870161397a565b93505060206140a08682870161397a565b92505060406140b18682870161397a565b9150509250925092565b60006140c78383614305565b905092915050565b60006140db8383614584565b60208301905092915050565b6140f081614b08565b82525050565b600061410182614984565b61410b81856149e2565b93508360208202850161411d85614945565b8060005b85811015614159578484038952815161413a85826140bb565b9450614145836149bb565b925060208a01995050600181019050614121565b50829750879550505050505092915050565b60006141768261498f565b61418081856149ed565b9350836020820285016141928561494f565b8060005b858110156141ce57848403895281516141af85826140bb565b94506141ba836149c8565b925060208a01995050600181019050614196565b50829750879550505050505092915050565b60006141eb8261499a565b6141f581856149fe565b93506142008361495f565b8060005b8381101561423157815161421888826140cf565b9750614223836149d5565b925050600181019050614204565b5085935050505092915050565b61424781614b1a565b82525050565b6000614258826149a5565b6142628185614a0f565b9350614272818560208601614b8b565b61427b81614d9a565b840191505092915050565b6000815461429381614bbe565b61429d8186614a20565b945060018216600081146142b857600181146142c9576142fc565b60ff198316865281860193506142fc565b6142d28561496f565b60005b838110156142f4578154818901526001820191506020810190506142d5565b838801955050505b50505092915050565b6000614310826149b0565b61431a8185614a2b565b935061432a818560208601614b8b565b61433381614d9a565b840191505092915050565b6000614349826149b0565b6143538185614a3c565b9350614363818560208601614b8b565b61436c81614d9a565b840191505092915050565b6000614384603283614a3c565b915061438f82614dab565b604082019050919050565b60006143a7602583614a3c565b91506143b282614dfa565b604082019050919050565b60006143ca601c83614a3c565b91506143d582614e49565b602082019050919050565b60006143ed602483614a3c565b91506143f882614e72565b604082019050919050565b6000614410601983614a3c565b915061441b82614ec1565b602082019050919050565b6000614433602c83614a3c565b915061443e82614eea565b604082019050919050565b6000614456603883614a3c565b915061446182614f39565b604082019050919050565b6000614479602a83614a3c565b915061448482614f88565b604082019050919050565b600061449c602983614a3c565b91506144a782614fd7565b604082019050919050565b60006144bf602083614a3c565b91506144ca82615026565b602082019050919050565b60006144e2602c83614a3c565b91506144ed8261504f565b604082019050919050565b6000614505602c83614a3c565b91506145108261509e565b604082019050919050565b6000614528602f83614a3c565b9150614533826150ed565b604082019050919050565b600061454b602183614a3c565b91506145568261513c565b604082019050919050565b600061456e603183614a3c565b91506145798261518b565b604082019050919050565b61458d81614b72565b82525050565b61459c81614b72565b82525050565b60006145ae8284614286565b915081905092915050565b60006020820190506145ce60008301846140e7565b92915050565b60006080820190506145e960008301876140e7565b6145f660208301866140e7565b6146036040830185614593565b8181036060830152614615818461424d565b905095945050505050565b6000602082019050818103600083015261463a81846140f6565b905092915050565b6000602082019050818103600083015261465c818461416b565b905092915050565b6000602082019050818103600083015261467e81846141e0565b905092915050565b600060208201905061469b600083018461423e565b92915050565b600060208201905081810360008301526146bb818461433e565b905092915050565b600060208201905081810360008301526146dc81614377565b9050919050565b600060208201905081810360008301526146fc8161439a565b9050919050565b6000602082019050818103600083015261471c816143bd565b9050919050565b6000602082019050818103600083015261473c816143e0565b9050919050565b6000602082019050818103600083015261475c81614403565b9050919050565b6000602082019050818103600083015261477c81614426565b9050919050565b6000602082019050818103600083015261479c81614449565b9050919050565b600060208201905081810360008301526147bc8161446c565b9050919050565b600060208201905081810360008301526147dc8161448f565b9050919050565b600060208201905081810360008301526147fc816144b2565b9050919050565b6000602082019050818103600083015261481c816144d5565b9050919050565b6000602082019050818103600083015261483c816144f8565b9050919050565b6000602082019050818103600083015261485c8161451b565b9050919050565b6000602082019050818103600083015261487c8161453e565b9050919050565b6000602082019050818103600083015261489c81614561565b9050919050565b60006020820190506148b86000830184614593565b92915050565b60006148c86148d9565b90506148d48282614bf0565b919050565b6000604051905090565b600067ffffffffffffffff8211156148fe576148fd614d57565b5b61490782614d9a565b9050602081019050919050565b600067ffffffffffffffff82111561492f5761492e614d57565b5b61493882614d9a565b9050602081019050919050565b6000819050919050565b6000819050602082019050919050565b6000819050602082019050919050565b60008190508160005260206000209050919050565b600060029050919050565b600081519050919050565b600081519050919050565b600081519050919050565b600081519050919050565b6000602082019050919050565b6000602082019050919050565b6000602082019050919050565b600081905092915050565b600082825260208201905092915050565b600082825260208201905092915050565b600082825260208201905092915050565b600081905092915050565b600082825260208201905092915050565b600082825260208201905092915050565b6000614a5882614b72565b9150614a6383614b72565b9250827fffffffffffffffffffffffffffffffffffffffffffffffffffffffffffffffff03821115614a9857614a97614c9b565b5b828201905092915050565b6000614aae82614b72565b9150614ab983614b72565b925082614ac957614ac8614cca565b5b828204905092915050565b6000614adf82614b72565b9150614aea83614b72565b925082821015614afd57614afc614c9b565b5b828203905092915050565b6000614b1382614b52565b9050919050565b60008115159050919050565b60007fffffffff0000000000000000000000000000000000000000000000000000000082169050919050565b600073ffffffffffffffffffffffffffffffffffffffff82169050919050565b6000819050919050565b82818337600083830152505050565b60005b83811015614ba9578082015181840152602081019050614b8e565b83811115614bb8576000848401525b50505050565b60006002820490506001821680614bd657607f821691505b60208210811415614bea57614be9614cf9565b5b50919050565b614bf982614d9a565b810181811067ffffffffffffffff82111715614c1857614c17614d57565b5b80604052505050565b6000614c2c82614b72565b91507fffffffffffffffffffffffffffffffffffffffffffffffffffffffffffffffff821415614c5f57614c5e614c9b565b5b600182019050919050565b6000614c7582614b72565b9150614c8083614b72565b925082614c9057614c8f614cca565b5b828206905092915050565b7f4e487b7100000000000000000000000000000000000000000000000000000000600052601160045260246000fd5b7f4e487b7100000000000000000000000000000000000000000000000000000000600052601260045260246000fd5b7f4e487b7100000000000000000000000000000000000000000000000000000000600052602260045260246000fd5b7f4e487b7100000000000000000000000000000000000000000000000000000000600052603260045260246000fd5b7f4e487b7100000000000000000000000000000000000000000000000000000000600052604160045260246000fd5b600080fd5b600080fd5b600080fd5b600080fd5b6000601f19601f8301169050919050565b7f4552433732313a207472616e7366657220746f206e6f6e20455243373231526560008201527f63656976657220696d706c656d656e7465720000000000000000000000000000602082015250565b7f4552433732313a207472616e736665722066726f6d20696e636f72726563742060008201527f6f776e6572000000000000000000000000000000000000000000000000000000602082015250565b7f4552433732313a20746f6b656e20616c7265616479206d696e74656400000000600082015250565b7f4552433732313a207472616e7366657220746f20746865207a65726f2061646460008201527f7265737300000000000000000000000000000000000000000000000000000000602082015250565b7f4552433732313a20617070726f766520746f2063616c6c657200000000000000600082015250565b7f4552433732313a206f70657261746f7220717565727920666f72206e6f6e657860008201527f697374656e7420746f6b656e0000000000000000000000000000000000000000602082015250565b7f4552433732313a20617070726f76652063616c6c6572206973206e6f74206f7760008201527f6e6572206e6f7220617070726f76656420666f7220616c6c0000000000000000602082015250565b7f4552433732313a2062616c616e636520717565727920666f7220746865207a6560008201527f726f206164647265737300000000000000000000000000000000000000000000602082015250565b7f4552433732313a206f776e657220717565727920666f72206e6f6e657869737460008201527f656e7420746f6b656e0000000000000000000000000000000000000000000000602082015250565b7f4552433732313a206d696e7420746f20746865207a65726f2061646472657373600082015250565b7f4552433732313a20617070726f76656420717565727920666f72206e6f6e657860008201527f697374656e7420746f6b656e0000000000000000000000000000000000000000602082015250565b7f4552433732314d657461646174613a2055524920736574206f66206e6f6e657860008201527f697374656e7420746f6b656e0000000000000000000000000000000000000000602082015250565b7f4552433732314d657461646174613a2055524920717565727920666f72206e6f60008201527f6e6578697374656e7420746f6b656e0000000000000000000000000000000000602082015250565b7f4552433732313a20617070726f76616c20746f2063757272656e74206f776e6560008201527f7200000000000000000000000000000000000000000000000000000000000000602082015250565b7f4552433732313a207472616e736665722063616c6c6572206973206e6f74206f60008201527f776e6572206e6f7220617070726f766564000000000000000000000000000000602082015250565b6151e381614b08565b81146151ee57600080fd5b50565b6151fa81614b1a565b811461520557600080fd5b50565b61521181614b26565b811461521c57600080fd5b50565b61522881614b72565b811461523357600080fd5b5056fea26469706673582212204ec5cb847db84b01570bea2d6b29842e9d336d5691b54ec91088a315d3223b9164736f6c63430008060033",
  "devdoc": {
    "kind": "dev",
    "methods": {
      "approve(address,uint256)": {
        "details": "See {IERC721-approve}."
      },
      "balanceOf(address)": {
        "details": "See {IERC721-balanceOf}."
      },
      "getApproved(uint256)": {
        "details": "See {IERC721-getApproved}."
      },
      "isApprovedForAll(address,address)": {
        "details": "See {IERC721-isApprovedForAll}."
      },
      "name()": {
        "details": "See {IERC721Metadata-name}."
      },
      "ownerOf(uint256)": {
        "details": "See {IERC721-ownerOf}."
      },
      "safeTransferFrom(address,address,uint256)": {
        "details": "See {IERC721-safeTransferFrom}."
      },
      "safeTransferFrom(address,address,uint256,bytes)": {
        "details": "See {IERC721-safeTransferFrom}."
      },
      "setApprovalForAll(address,bool)": {
        "details": "See {IERC721-setApprovalForAll}."
      },
      "supportsInterface(bytes4)": {
        "details": "See {IERC165-supportsInterface}."
      },
      "symbol()": {
        "details": "See {IERC721Metadata-symbol}."
      },
      "tokenURI(uint256)": {
        "details": "See {IERC721Metadata-tokenURI}."
      },
      "transferFrom(address,address,uint256)": {
        "details": "See {IERC721-transferFrom}."
      }
    },
    "version": 1
  },
  "userdoc": {
    "kind": "user",
    "methods": {},
    "version": 1
  },
  "storageLayout": {
    "storage": [
      {
        "astId": 25,
        "contract": "contracts/CeloERC721.sol:CeloERC721",
        "label": "_name",
        "offset": 0,
        "slot": "0",
        "type": "t_string_storage"
      },
      {
        "astId": 27,
        "contract": "contracts/CeloERC721.sol:CeloERC721",
        "label": "_symbol",
        "offset": 0,
        "slot": "1",
        "type": "t_string_storage"
      },
      {
        "astId": 31,
        "contract": "contracts/CeloERC721.sol:CeloERC721",
        "label": "_owners",
        "offset": 0,
        "slot": "2",
        "type": "t_mapping(t_uint256,t_address)"
      },
      {
        "astId": 35,
        "contract": "contracts/CeloERC721.sol:CeloERC721",
        "label": "_balances",
        "offset": 0,
        "slot": "3",
        "type": "t_mapping(t_address,t_uint256)"
      },
      {
        "astId": 39,
        "contract": "contracts/CeloERC721.sol:CeloERC721",
        "label": "_tokenApprovals",
        "offset": 0,
        "slot": "4",
        "type": "t_mapping(t_uint256,t_address)"
      },
      {
        "astId": 45,
        "contract": "contracts/CeloERC721.sol:CeloERC721",
        "label": "_operatorApprovals",
        "offset": 0,
        "slot": "5",
        "type": "t_mapping(t_address,t_mapping(t_address,t_bool))"
      },
      {
        "astId": 1590,
        "contract": "contracts/CeloERC721.sol:CeloERC721",
        "label": "_tokenIds",
        "offset": 0,
        "slot": "6",
        "type": "t_uint256"
      },
      {
        "astId": 1592,
        "contract": "contracts/CeloERC721.sol:CeloERC721",
        "label": "_bidIds",
        "offset": 0,
        "slot": "7",
        "type": "t_uint256"
      },
      {
        "astId": 1594,
        "contract": "contracts/CeloERC721.sol:CeloERC721",
        "label": "_eventIds",
        "offset": 0,
        "slot": "8",
        "type": "t_uint256"
      },
      {
        "astId": 1596,
        "contract": "contracts/CeloERC721.sol:CeloERC721",
        "label": "_GrantEventIds",
        "offset": 0,
        "slot": "9",
        "type": "t_uint256"
      },
      {
        "astId": 1598,
        "contract": "contracts/CeloERC721.sol:CeloERC721",
        "label": "_GrantProjectIds",
        "offset": 0,
        "slot": "10",
        "type": "t_uint256"
      },
      {
        "astId": 1600,
        "contract": "contracts/CeloERC721.sol:CeloERC721",
        "label": "_GrantVoteIds",
        "offset": 0,
        "slot": "11",
        "type": "t_uint256"
      },
      {
        "astId": 1602,
        "contract": "contracts/CeloERC721.sol:CeloERC721",
        "label": "_EventTokenIds",
        "offset": 0,
        "slot": "12",
        "type": "t_uint256"
      },
      {
        "astId": 1604,
        "contract": "contracts/CeloERC721.sol:CeloERC721",
        "label": "_TokenBidIds",
        "offset": 0,
        "slot": "13",
        "type": "t_uint256"
      },
      {
        "astId": 1606,
        "contract": "contracts/CeloERC721.sol:CeloERC721",
        "label": "_EventTokenSearchIds",
        "offset": 0,
        "slot": "14",
        "type": "t_uint256"
      },
      {
        "astId": 1612,
        "contract": "contracts/CeloERC721.sol:CeloERC721",
        "label": "AllEventTokens",
        "offset": 0,
        "slot": "15",
        "type": "t_mapping(t_uint256,t_array(t_string_storage)2_storage)"
      },
      {
        "astId": 1618,
        "contract": "contracts/CeloERC721.sol:CeloERC721",
        "label": "AllGrantVotes",
        "offset": 0,
        "slot": "16",
        "type": "t_mapping(t_uint256,t_array(t_string_storage)3_storage)"
      },
      {
        "astId": 1624,
        "contract": "contracts/CeloERC721.sol:CeloERC721",
        "label": "AllGrantProject",
        "offset": 0,
        "slot": "17",
        "type": "t_mapping(t_uint256,t_array(t_uint256)2_storage)"
      },
      {
        "astId": 1630,
        "contract": "contracts/CeloERC721.sol:CeloERC721",
        "label": "AllTokensBids",
        "offset": 0,
        "slot": "18",
        "type": "t_mapping(t_uint256,t_array(t_string_storage)2_storage)"
      },
      {
        "astId": 1636,
        "contract": "contracts/CeloERC721.sol:CeloERC721",
        "label": "_SearchedStore",
        "offset": 0,
        "slot": "19",
        "type": "t_mapping(t_uint256,t_array(t_string_storage)2_storage)"
      },
      {
        "astId": 1640,
        "contract": "contracts/CeloERC721.sol:CeloERC721",
        "label": "_bidURIs",
        "offset": 0,
        "slot": "20",
        "type": "t_mapping(t_uint256,t_string_storage)"
      },
      {
        "astId": 1644,
        "contract": "contracts/CeloERC721.sol:CeloERC721",
        "label": "_tokenURIs",
        "offset": 0,
        "slot": "21",
        "type": "t_mapping(t_uint256,t_string_storage)"
      },
      {
        "astId": 1650,
        "contract": "contracts/CeloERC721.sol:CeloERC721",
        "label": "_eventURIs",
        "offset": 0,
        "slot": "22",
        "type": "t_mapping(t_uint256,t_array(t_string_storage)2_storage)"
      },
      {
        "astId": 1654,
        "contract": "contracts/CeloERC721.sol:CeloERC721",
        "label": "_GrantEventURIs",
        "offset": 0,
        "slot": "23",
        "type": "t_mapping(t_uint256,t_string_storage)"
      },
      {
        "astId": 1658,
        "contract": "contracts/CeloERC721.sol:CeloERC721",
        "label": "_JudgerURIs",
        "offset": 0,
        "slot": "24",
        "type": "t_mapping(t_uint256,t_string_storage)"
      },
      {
        "astId": 1662,
        "contract": "contracts/CeloERC721.sol:CeloERC721",
        "label": "_eventRaised",
        "offset": 0,
        "slot": "25",
        "type": "t_mapping(t_uint256,t_string_storage)"
      },
      {
        "astId": 1666,
        "contract": "contracts/CeloERC721.sol:CeloERC721",
        "label": "_eventTokens",
        "offset": 0,
        "slot": "26",
        "type": "t_mapping(t_string_memory_ptr,t_string_storage)"
      }
    ],
    "types": {
      "t_address": {
        "encoding": "inplace",
        "label": "address",
        "numberOfBytes": "20"
      },
      "t_array(t_string_storage)2_storage": {
        "base": "t_string_storage",
        "encoding": "inplace",
        "label": "string[2]",
        "numberOfBytes": "64"
      },
      "t_array(t_string_storage)3_storage": {
        "base": "t_string_storage",
        "encoding": "inplace",
        "label": "string[3]",
        "numberOfBytes": "96"
      },
      "t_array(t_uint256)2_storage": {
        "base": "t_uint256",
        "encoding": "inplace",
        "label": "uint256[2]",
        "numberOfBytes": "64"
      },
      "t_bool": {
        "encoding": "inplace",
        "label": "bool",
        "numberOfBytes": "1"
      },
      "t_mapping(t_address,t_bool)": {
        "encoding": "mapping",
        "key": "t_address",
        "label": "mapping(address => bool)",
        "numberOfBytes": "32",
        "value": "t_bool"
      },
      "t_mapping(t_address,t_mapping(t_address,t_bool))": {
        "encoding": "mapping",
        "key": "t_address",
        "label": "mapping(address => mapping(address => bool))",
        "numberOfBytes": "32",
        "value": "t_mapping(t_address,t_bool)"
      },
      "t_mapping(t_address,t_uint256)": {
        "encoding": "mapping",
        "key": "t_address",
        "label": "mapping(address => uint256)",
        "numberOfBytes": "32",
        "value": "t_uint256"
      },
      "t_mapping(t_string_memory_ptr,t_string_storage)": {
        "encoding": "mapping",
        "key": "t_string_memory_ptr",
        "label": "mapping(string => string)",
        "numberOfBytes": "32",
        "value": "t_string_storage"
      },
      "t_mapping(t_uint256,t_address)": {
        "encoding": "mapping",
        "key": "t_uint256",
        "label": "mapping(uint256 => address)",
        "numberOfBytes": "32",
        "value": "t_address"
      },
      "t_mapping(t_uint256,t_array(t_string_storage)2_storage)": {
        "encoding": "mapping",
        "key": "t_uint256",
        "label": "mapping(uint256 => string[2])",
        "numberOfBytes": "32",
        "value": "t_array(t_string_storage)2_storage"
      },
      "t_mapping(t_uint256,t_array(t_string_storage)3_storage)": {
        "encoding": "mapping",
        "key": "t_uint256",
        "label": "mapping(uint256 => string[3])",
        "numberOfBytes": "32",
        "value": "t_array(t_string_storage)3_storage"
      },
      "t_mapping(t_uint256,t_array(t_uint256)2_storage)": {
        "encoding": "mapping",
        "key": "t_uint256",
        "label": "mapping(uint256 => uint256[2])",
        "numberOfBytes": "32",
        "value": "t_array(t_uint256)2_storage"
      },
      "t_mapping(t_uint256,t_string_storage)": {
        "encoding": "mapping",
        "key": "t_uint256",
        "label": "mapping(uint256 => string)",
        "numberOfBytes": "32",
        "value": "t_string_storage"
      },
      "t_string_memory_ptr": {
        "encoding": "bytes",
        "label": "string",
        "numberOfBytes": "32"
      },
      "t_string_storage": {
        "encoding": "bytes",
        "label": "string",
        "numberOfBytes": "32"
      },
      "t_uint256": {
        "encoding": "inplace",
        "label": "uint256",
        "numberOfBytes": "32"
      }
    }
  }
}